{
	"data": {
		"bytecode": {
			"linkReferences": {},
			"object": "6080604052348015600e575f5ffd5b50610ecd8061001c5f395ff3fe608060405234801561000f575f5ffd5b5060043610610060575f3560e01c806312065fe01461006457806326224c64146100825780633d527883146100b25780637bf12b1c146100e457806399c6d5f314610100578063aba7b3141461011c575b5f5ffd5b61006c61013a565b6040516100799190610512565b60405180910390f35b61009c60048036038101906100979190610596565b61017e565b6040516100a99190610512565b60405180910390f35b6100cc60048036038101906100c791906105eb565b610193565b6040516100db93929190610699565b60405180910390f35b6100fe60048036038101906100f99190610801565b610258565b005b61011a600480360381019061011591906105eb565b61037b565b005b6101246103c1565b60405161013191906109cc565b60405180910390f35b5f60015f3373ffffffffffffffffffffffffffffffffffffffff1673ffffffffffffffffffffffffffffffffffffffff1681526020019081526020015f2054905090565b6001602052805f5260405f205f915090505481565b5f602052815f5260405f2081815481106101ab575f80fd5b905f5260205f2090600302015f9150915050805f0180546101cb90610a19565b80601f01602080910402602001604051908101604052809291908181526020018280546101f790610a19565b80156102425780601f1061021957610100808354040283529160200191610242565b820191905f5260205f20905b81548152906001019060200180831161022557829003601f168201915b5050505050908060010154908060020154905083565b5f60405180606001604052808581526020018481526020018381525090505f5f3373ffffffffffffffffffffffffffffffffffffffff1673ffffffffffffffffffffffffffffffffffffffff1681526020019081526020015f2081908060018154018082558091505060019003905f5260205f2090600302015f909190919091505f820151815f0190816102ec9190610be9565b50602082015181600101556040820151816002015550507f58c0b08981e01e2f5a3d603edf09a6edc25eeaf02c9bc22dde98108d2c31a7a85f5f3373ffffffffffffffffffffffffffffffffffffffff1673ffffffffffffffffffffffffffffffffffffffff1681526020019081526020015f2060405161036d9190610e77565b60405180910390a150505050565b8060015f8473ffffffffffffffffffffffffffffffffffffffff1673ffffffffffffffffffffffffffffffffffffffff1681526020019081526020015f20819055505050565b60605f5f3373ffffffffffffffffffffffffffffffffffffffff1673ffffffffffffffffffffffffffffffffffffffff1681526020019081526020015f20805480602002602001604051908101604052809291908181526020015f905b828210156104f1578382905f5260205f2090600302016040518060600160405290815f8201805461044e90610a19565b80601f016020809104026020016040519081016040528092919081815260200182805461047a90610a19565b80156104c55780601f1061049c576101008083540402835291602001916104c5565b820191905f5260205f20905b8154815290600101906020018083116104a857829003601f168201915b50505050508152602001600182015481526020016002820154815250508152602001906001019061041e565b50505050905090565b5f819050919050565b61050c816104fa565b82525050565b5f6020820190506105255f830184610503565b92915050565b5f604051905090565b5f5ffd5b5f5ffd5b5f73ffffffffffffffffffffffffffffffffffffffff82169050919050565b5f6105658261053c565b9050919050565b6105758161055b565b811461057f575f5ffd5b50565b5f813590506105908161056c565b92915050565b5f602082840312156105ab576105aa610534565b5b5f6105b884828501610582565b91505092915050565b6105ca816104fa565b81146105d4575f5ffd5b50565b5f813590506105e5816105c1565b92915050565b5f5f6040838503121561060157610600610534565b5b5f61060e85828601610582565b925050602061061f858286016105d7565b9150509250929050565b5f81519050919050565b5f82825260208201905092915050565b8281835e5f83830152505050565b5f601f19601f8301169050919050565b5f61066b82610629565b6106758185610633565b9350610685818560208601610643565b61068e81610651565b840191505092915050565b5f6060820190508181035f8301526106b18186610661565b90506106c06020830185610503565b6106cd6040830184610503565b949350505050565b5f5ffd5b5f5ffd5b7f4e487b71000000000000000000000000000000000000000000000000000000005f52604160045260245ffd5b61071382610651565b810181811067ffffffffffffffff82111715610732576107316106dd565b5b80604052505050565b5f61074461052b565b9050610750828261070a565b919050565b5f67ffffffffffffffff82111561076f5761076e6106dd565b5b61077882610651565b9050602081019050919050565b828183375f83830152505050565b5f6107a56107a084610755565b61073b565b9050828152602081018484840111156107c1576107c06106d9565b5b6107cc848285610785565b509392505050565b5f82601f8301126107e8576107e76106d5565b5b81356107f8848260208601610793565b91505092915050565b5f5f5f6060848603121561081857610817610534565b5b5f84013567ffffffffffffffff81111561083557610834610538565b5b610841868287016107d4565b9350506020610852868287016105d7565b9250506040610863868287016105d7565b9150509250925092565b5f81519050919050565b5f82825260208201905092915050565b5f819050602082019050919050565b5f82825260208201905092915050565b5f6108b082610629565b6108ba8185610896565b93506108ca818560208601610643565b6108d381610651565b840191505092915050565b6108e7816104fa565b82525050565b5f606083015f8301518482035f86015261090782826108a6565b915050602083015161091c60208601826108de565b50604083015161092f60408601826108de565b508091505092915050565b5f61094583836108ed565b905092915050565b5f602082019050919050565b5f6109638261086d565b61096d8185610877565b93508360208202850161097f85610887565b805f5b858110156109ba578484038952815161099b858261093a565b94506109a68361094d565b925060208a01995050600181019050610982565b50829750879550505050505092915050565b5f6020820190508181035f8301526109e48184610959565b905092915050565b7f4e487b71000000000000000000000000000000000000000000000000000000005f52602260045260245ffd5b5f6002820490506001821680610a3057607f821691505b602082108103610a4357610a426109ec565b5b50919050565b5f819050815f5260205f209050919050565b5f6020601f8301049050919050565b5f82821b905092915050565b5f60088302610aa57fffffffffffffffffffffffffffffffffffffffffffffffffffffffffffffffff82610a6a565b610aaf8683610a6a565b95508019841693508086168417925050509392505050565b5f819050919050565b5f610aea610ae5610ae0846104fa565b610ac7565b6104fa565b9050919050565b5f819050919050565b610b0383610ad0565b610b17610b0f82610af1565b848454610a76565b825550505050565b5f5f905090565b610b2e610b1f565b610b39818484610afa565b505050565b5b81811015610b5c57610b515f82610b26565b600181019050610b3f565b5050565b601f821115610ba157610b7281610a49565b610b7b84610a5b565b81016020851015610b8a578190505b610b9e610b9685610a5b565b830182610b3e565b50505b505050565b5f82821c905092915050565b5f610bc15f1984600802610ba6565b1980831691505092915050565b5f610bd98383610bb2565b9150826002028217905092915050565b610bf282610629565b67ffffffffffffffff811115610c0b57610c0a6106dd565b5b610c158254610a19565b610c20828285610b60565b5f60209050601f831160018114610c51575f8415610c3f578287015190505b610c498582610bce565b865550610cb0565b601f198416610c5f86610a49565b5f5b82811015610c8657848901518255600182019150602085019450602081019050610c61565b86831015610ca35784890151610c9f601f891682610bb2565b8355505b6001600288020188555050505b505050505050565b5f81549050919050565b5f819050815f5260205f209050919050565b5f8154610ce081610a19565b610cea8186610896565b9450600182165f8114610d045760018114610d1a57610d4c565b60ff198316865281151560200286019350610d4c565b610d2385610a49565b5f5b83811015610d4457815481890152600182019150602081019050610d25565b808801955050505b50505092915050565b5f815f1c9050919050565b5f819050919050565b5f610d7b610d7683610d55565b610d60565b9050919050565b5f606083015f5f84018583035f870152610d9c8382610cd4565b92505060018401549050610daf81610d69565b610dbc60208701826108de565b5060028401549050610dcd81610d69565b610dda60408701826108de565b50819250505092915050565b5f610df18383610d82565b905092915050565b5f600382019050919050565b5f610e0f82610cb8565b610e198185610877565b935083602082028501610e2b85610cc2565b805f5b85811015610e6557848403895281610e468582610de6565b9450610e5183610df9565b925060208a01995050600181019050610e2e565b50829750879550505050505092915050565b5f6020820190508181035f830152610e8f8184610e05565b90509291505056fea2646970667358221220e6ad4a640b71a35d25fe90497a732e22fdc1c426321377d493693dcd0b4ded8664736f6c634300081c0033",
			"opcodes": "PUSH1 0x80 PUSH1 0x40 MSTORE CALLVALUE DUP1 ISZERO PUSH1 0xE JUMPI PUSH0 PUSH0 REVERT JUMPDEST POP PUSH2 0xECD DUP1 PUSH2 0x1C PUSH0 CODECOPY PUSH0 RETURN INVALID PUSH1 0x80 PUSH1 0x40 MSTORE CALLVALUE DUP1 ISZERO PUSH2 0xF JUMPI PUSH0 PUSH0 REVERT JUMPDEST POP PUSH1 0x4 CALLDATASIZE LT PUSH2 0x60 JUMPI PUSH0 CALLDATALOAD PUSH1 0xE0 SHR DUP1 PUSH4 0x12065FE0 EQ PUSH2 0x64 JUMPI DUP1 PUSH4 0x26224C64 EQ PUSH2 0x82 JUMPI DUP1 PUSH4 0x3D527883 EQ PUSH2 0xB2 JUMPI DUP1 PUSH4 0x7BF12B1C EQ PUSH2 0xE4 JUMPI DUP1 PUSH4 0x99C6D5F3 EQ PUSH2 0x100 JUMPI DUP1 PUSH4 0xABA7B314 EQ PUSH2 0x11C JUMPI JUMPDEST PUSH0 PUSH0 REVERT JUMPDEST PUSH2 0x6C PUSH2 0x13A JUMP JUMPDEST PUSH1 0x40 MLOAD PUSH2 0x79 SWAP2 SWAP1 PUSH2 0x512 JUMP JUMPDEST PUSH1 0x40 MLOAD DUP1 SWAP2 SUB SWAP1 RETURN JUMPDEST PUSH2 0x9C PUSH1 0x4 DUP1 CALLDATASIZE SUB DUP2 ADD SWAP1 PUSH2 0x97 SWAP2 SWAP1 PUSH2 0x596 JUMP JUMPDEST PUSH2 0x17E JUMP JUMPDEST PUSH1 0x40 MLOAD PUSH2 0xA9 SWAP2 SWAP1 PUSH2 0x512 JUMP JUMPDEST PUSH1 0x40 MLOAD DUP1 SWAP2 SUB SWAP1 RETURN JUMPDEST PUSH2 0xCC PUSH1 0x4 DUP1 CALLDATASIZE SUB DUP2 ADD SWAP1 PUSH2 0xC7 SWAP2 SWAP1 PUSH2 0x5EB JUMP JUMPDEST PUSH2 0x193 JUMP JUMPDEST PUSH1 0x40 MLOAD PUSH2 0xDB SWAP4 SWAP3 SWAP2 SWAP1 PUSH2 0x699 JUMP JUMPDEST PUSH1 0x40 MLOAD DUP1 SWAP2 SUB SWAP1 RETURN JUMPDEST PUSH2 0xFE PUSH1 0x4 DUP1 CALLDATASIZE SUB DUP2 ADD SWAP1 PUSH2 0xF9 SWAP2 SWAP1 PUSH2 0x801 JUMP JUMPDEST PUSH2 0x258 JUMP JUMPDEST STOP JUMPDEST PUSH2 0x11A PUSH1 0x4 DUP1 CALLDATASIZE SUB DUP2 ADD SWAP1 PUSH2 0x115 SWAP2 SWAP1 PUSH2 0x5EB JUMP JUMPDEST PUSH2 0x37B JUMP JUMPDEST STOP JUMPDEST PUSH2 0x124 PUSH2 0x3C1 JUMP JUMPDEST PUSH1 0x40 MLOAD PUSH2 0x131 SWAP2 SWAP1 PUSH2 0x9CC JUMP JUMPDEST PUSH1 0x40 MLOAD DUP1 SWAP2 SUB SWAP1 RETURN JUMPDEST PUSH0 PUSH1 0x1 PUSH0 CALLER PUSH20 0xFFFFFFFFFFFFFFFFFFFFFFFFFFFFFFFFFFFFFFFF AND PUSH20 0xFFFFFFFFFFFFFFFFFFFFFFFFFFFFFFFFFFFFFFFF AND DUP2 MSTORE PUSH1 0x20 ADD SWAP1 DUP2 MSTORE PUSH1 0x20 ADD PUSH0 KECCAK256 SLOAD SWAP1 POP SWAP1 JUMP JUMPDEST PUSH1 0x1 PUSH1 0x20 MSTORE DUP1 PUSH0 MSTORE PUSH1 0x40 PUSH0 KECCAK256 PUSH0 SWAP2 POP SWAP1 POP SLOAD DUP2 JUMP JUMPDEST PUSH0 PUSH1 0x20 MSTORE DUP2 PUSH0 MSTORE PUSH1 0x40 PUSH0 KECCAK256 DUP2 DUP2 SLOAD DUP2 LT PUSH2 0x1AB JUMPI PUSH0 DUP1 REVERT JUMPDEST SWAP1 PUSH0 MSTORE PUSH1 0x20 PUSH0 KECCAK256 SWAP1 PUSH1 0x3 MUL ADD PUSH0 SWAP2 POP SWAP2 POP POP DUP1 PUSH0 ADD DUP1 SLOAD PUSH2 0x1CB SWAP1 PUSH2 0xA19 JUMP JUMPDEST DUP1 PUSH1 0x1F ADD PUSH1 0x20 DUP1 SWAP2 DIV MUL PUSH1 0x20 ADD PUSH1 0x40 MLOAD SWAP1 DUP2 ADD PUSH1 0x40 MSTORE DUP1 SWAP3 SWAP2 SWAP1 DUP2 DUP2 MSTORE PUSH1 0x20 ADD DUP3 DUP1 SLOAD PUSH2 0x1F7 SWAP1 PUSH2 0xA19 JUMP JUMPDEST DUP1 ISZERO PUSH2 0x242 JUMPI DUP1 PUSH1 0x1F LT PUSH2 0x219 JUMPI PUSH2 0x100 DUP1 DUP4 SLOAD DIV MUL DUP4 MSTORE SWAP2 PUSH1 0x20 ADD SWAP2 PUSH2 0x242 JUMP JUMPDEST DUP3 ADD SWAP2 SWAP1 PUSH0 MSTORE PUSH1 0x20 PUSH0 KECCAK256 SWAP1 JUMPDEST DUP2 SLOAD DUP2 MSTORE SWAP1 PUSH1 0x1 ADD SWAP1 PUSH1 0x20 ADD DUP1 DUP4 GT PUSH2 0x225 JUMPI DUP3 SWAP1 SUB PUSH1 0x1F AND DUP3 ADD SWAP2 JUMPDEST POP POP POP POP POP SWAP1 DUP1 PUSH1 0x1 ADD SLOAD SWAP1 DUP1 PUSH1 0x2 ADD SLOAD SWAP1 POP DUP4 JUMP JUMPDEST PUSH0 PUSH1 0x40 MLOAD DUP1 PUSH1 0x60 ADD PUSH1 0x40 MSTORE DUP1 DUP6 DUP2 MSTORE PUSH1 0x20 ADD DUP5 DUP2 MSTORE PUSH1 0x20 ADD DUP4 DUP2 MSTORE POP SWAP1 POP PUSH0 PUSH0 CALLER PUSH20 0xFFFFFFFFFFFFFFFFFFFFFFFFFFFFFFFFFFFFFFFF AND PUSH20 0xFFFFFFFFFFFFFFFFFFFFFFFFFFFFFFFFFFFFFFFF AND DUP2 MSTORE PUSH1 0x20 ADD SWAP1 DUP2 MSTORE PUSH1 0x20 ADD PUSH0 KECCAK256 DUP2 SWAP1 DUP1 PUSH1 0x1 DUP2 SLOAD ADD DUP1 DUP3 SSTORE DUP1 SWAP2 POP POP PUSH1 0x1 SWAP1 SUB SWAP1 PUSH0 MSTORE PUSH1 0x20 PUSH0 KECCAK256 SWAP1 PUSH1 0x3 MUL ADD PUSH0 SWAP1 SWAP2 SWAP1 SWAP2 SWAP1 SWAP2 POP PUSH0 DUP3 ADD MLOAD DUP2 PUSH0 ADD SWAP1 DUP2 PUSH2 0x2EC SWAP2 SWAP1 PUSH2 0xBE9 JUMP JUMPDEST POP PUSH1 0x20 DUP3 ADD MLOAD DUP2 PUSH1 0x1 ADD SSTORE PUSH1 0x40 DUP3 ADD MLOAD DUP2 PUSH1 0x2 ADD SSTORE POP POP PUSH32 0x58C0B08981E01E2F5A3D603EDF09A6EDC25EEAF02C9BC22DDE98108D2C31A7A8 PUSH0 PUSH0 CALLER PUSH20 0xFFFFFFFFFFFFFFFFFFFFFFFFFFFFFFFFFFFFFFFF AND PUSH20 0xFFFFFFFFFFFFFFFFFFFFFFFFFFFFFFFFFFFFFFFF AND DUP2 MSTORE PUSH1 0x20 ADD SWAP1 DUP2 MSTORE PUSH1 0x20 ADD PUSH0 KECCAK256 PUSH1 0x40 MLOAD PUSH2 0x36D SWAP2 SWAP1 PUSH2 0xE77 JUMP JUMPDEST PUSH1 0x40 MLOAD DUP1 SWAP2 SUB SWAP1 LOG1 POP POP POP POP JUMP JUMPDEST DUP1 PUSH1 0x1 PUSH0 DUP5 PUSH20 0xFFFFFFFFFFFFFFFFFFFFFFFFFFFFFFFFFFFFFFFF AND PUSH20 0xFFFFFFFFFFFFFFFFFFFFFFFFFFFFFFFFFFFFFFFF AND DUP2 MSTORE PUSH1 0x20 ADD SWAP1 DUP2 MSTORE PUSH1 0x20 ADD PUSH0 KECCAK256 DUP2 SWAP1 SSTORE POP POP POP JUMP JUMPDEST PUSH1 0x60 PUSH0 PUSH0 CALLER PUSH20 0xFFFFFFFFFFFFFFFFFFFFFFFFFFFFFFFFFFFFFFFF AND PUSH20 0xFFFFFFFFFFFFFFFFFFFFFFFFFFFFFFFFFFFFFFFF AND DUP2 MSTORE PUSH1 0x20 ADD SWAP1 DUP2 MSTORE PUSH1 0x20 ADD PUSH0 KECCAK256 DUP1 SLOAD DUP1 PUSH1 0x20 MUL PUSH1 0x20 ADD PUSH1 0x40 MLOAD SWAP1 DUP2 ADD PUSH1 0x40 MSTORE DUP1 SWAP3 SWAP2 SWAP1 DUP2 DUP2 MSTORE PUSH1 0x20 ADD PUSH0 SWAP1 JUMPDEST DUP3 DUP3 LT ISZERO PUSH2 0x4F1 JUMPI DUP4 DUP3 SWAP1 PUSH0 MSTORE PUSH1 0x20 PUSH0 KECCAK256 SWAP1 PUSH1 0x3 MUL ADD PUSH1 0x40 MLOAD DUP1 PUSH1 0x60 ADD PUSH1 0x40 MSTORE SWAP1 DUP2 PUSH0 DUP3 ADD DUP1 SLOAD PUSH2 0x44E SWAP1 PUSH2 0xA19 JUMP JUMPDEST DUP1 PUSH1 0x1F ADD PUSH1 0x20 DUP1 SWAP2 DIV MUL PUSH1 0x20 ADD PUSH1 0x40 MLOAD SWAP1 DUP2 ADD PUSH1 0x40 MSTORE DUP1 SWAP3 SWAP2 SWAP1 DUP2 DUP2 MSTORE PUSH1 0x20 ADD DUP3 DUP1 SLOAD PUSH2 0x47A SWAP1 PUSH2 0xA19 JUMP JUMPDEST DUP1 ISZERO PUSH2 0x4C5 JUMPI DUP1 PUSH1 0x1F LT PUSH2 0x49C JUMPI PUSH2 0x100 DUP1 DUP4 SLOAD DIV MUL DUP4 MSTORE SWAP2 PUSH1 0x20 ADD SWAP2 PUSH2 0x4C5 JUMP JUMPDEST DUP3 ADD SWAP2 SWAP1 PUSH0 MSTORE PUSH1 0x20 PUSH0 KECCAK256 SWAP1 JUMPDEST DUP2 SLOAD DUP2 MSTORE SWAP1 PUSH1 0x1 ADD SWAP1 PUSH1 0x20 ADD DUP1 DUP4 GT PUSH2 0x4A8 JUMPI DUP3 SWAP1 SUB PUSH1 0x1F AND DUP3 ADD SWAP2 JUMPDEST POP POP POP POP POP DUP2 MSTORE PUSH1 0x20 ADD PUSH1 0x1 DUP3 ADD SLOAD DUP2 MSTORE PUSH1 0x20 ADD PUSH1 0x2 DUP3 ADD SLOAD DUP2 MSTORE POP POP DUP2 MSTORE PUSH1 0x20 ADD SWAP1 PUSH1 0x1 ADD SWAP1 PUSH2 0x41E JUMP JUMPDEST POP POP POP POP SWAP1 POP SWAP1 JUMP JUMPDEST PUSH0 DUP2 SWAP1 POP SWAP2 SWAP1 POP JUMP JUMPDEST PUSH2 0x50C DUP2 PUSH2 0x4FA JUMP JUMPDEST DUP3 MSTORE POP POP JUMP JUMPDEST PUSH0 PUSH1 0x20 DUP3 ADD SWAP1 POP PUSH2 0x525 PUSH0 DUP4 ADD DUP5 PUSH2 0x503 JUMP JUMPDEST SWAP3 SWAP2 POP POP JUMP JUMPDEST PUSH0 PUSH1 0x40 MLOAD SWAP1 POP SWAP1 JUMP JUMPDEST PUSH0 PUSH0 REVERT JUMPDEST PUSH0 PUSH0 REVERT JUMPDEST PUSH0 PUSH20 0xFFFFFFFFFFFFFFFFFFFFFFFFFFFFFFFFFFFFFFFF DUP3 AND SWAP1 POP SWAP2 SWAP1 POP JUMP JUMPDEST PUSH0 PUSH2 0x565 DUP3 PUSH2 0x53C JUMP JUMPDEST SWAP1 POP SWAP2 SWAP1 POP JUMP JUMPDEST PUSH2 0x575 DUP2 PUSH2 0x55B JUMP JUMPDEST DUP2 EQ PUSH2 0x57F JUMPI PUSH0 PUSH0 REVERT JUMPDEST POP JUMP JUMPDEST PUSH0 DUP2 CALLDATALOAD SWAP1 POP PUSH2 0x590 DUP2 PUSH2 0x56C JUMP JUMPDEST SWAP3 SWAP2 POP POP JUMP JUMPDEST PUSH0 PUSH1 0x20 DUP3 DUP5 SUB SLT ISZERO PUSH2 0x5AB JUMPI PUSH2 0x5AA PUSH2 0x534 JUMP JUMPDEST JUMPDEST PUSH0 PUSH2 0x5B8 DUP5 DUP3 DUP6 ADD PUSH2 0x582 JUMP JUMPDEST SWAP2 POP POP SWAP3 SWAP2 POP POP JUMP JUMPDEST PUSH2 0x5CA DUP2 PUSH2 0x4FA JUMP JUMPDEST DUP2 EQ PUSH2 0x5D4 JUMPI PUSH0 PUSH0 REVERT JUMPDEST POP JUMP JUMPDEST PUSH0 DUP2 CALLDATALOAD SWAP1 POP PUSH2 0x5E5 DUP2 PUSH2 0x5C1 JUMP JUMPDEST SWAP3 SWAP2 POP POP JUMP JUMPDEST PUSH0 PUSH0 PUSH1 0x40 DUP4 DUP6 SUB SLT ISZERO PUSH2 0x601 JUMPI PUSH2 0x600 PUSH2 0x534 JUMP JUMPDEST JUMPDEST PUSH0 PUSH2 0x60E DUP6 DUP3 DUP7 ADD PUSH2 0x582 JUMP JUMPDEST SWAP3 POP POP PUSH1 0x20 PUSH2 0x61F DUP6 DUP3 DUP7 ADD PUSH2 0x5D7 JUMP JUMPDEST SWAP2 POP POP SWAP3 POP SWAP3 SWAP1 POP JUMP JUMPDEST PUSH0 DUP2 MLOAD SWAP1 POP SWAP2 SWAP1 POP JUMP JUMPDEST PUSH0 DUP3 DUP3 MSTORE PUSH1 0x20 DUP3 ADD SWAP1 POP SWAP3 SWAP2 POP POP JUMP JUMPDEST DUP3 DUP2 DUP4 MCOPY PUSH0 DUP4 DUP4 ADD MSTORE POP POP POP JUMP JUMPDEST PUSH0 PUSH1 0x1F NOT PUSH1 0x1F DUP4 ADD AND SWAP1 POP SWAP2 SWAP1 POP JUMP JUMPDEST PUSH0 PUSH2 0x66B DUP3 PUSH2 0x629 JUMP JUMPDEST PUSH2 0x675 DUP2 DUP6 PUSH2 0x633 JUMP JUMPDEST SWAP4 POP PUSH2 0x685 DUP2 DUP6 PUSH1 0x20 DUP7 ADD PUSH2 0x643 JUMP JUMPDEST PUSH2 0x68E DUP2 PUSH2 0x651 JUMP JUMPDEST DUP5 ADD SWAP2 POP POP SWAP3 SWAP2 POP POP JUMP JUMPDEST PUSH0 PUSH1 0x60 DUP3 ADD SWAP1 POP DUP2 DUP2 SUB PUSH0 DUP4 ADD MSTORE PUSH2 0x6B1 DUP2 DUP7 PUSH2 0x661 JUMP JUMPDEST SWAP1 POP PUSH2 0x6C0 PUSH1 0x20 DUP4 ADD DUP6 PUSH2 0x503 JUMP JUMPDEST PUSH2 0x6CD PUSH1 0x40 DUP4 ADD DUP5 PUSH2 0x503 JUMP JUMPDEST SWAP5 SWAP4 POP POP POP POP JUMP JUMPDEST PUSH0 PUSH0 REVERT JUMPDEST PUSH0 PUSH0 REVERT JUMPDEST PUSH32 0x4E487B7100000000000000000000000000000000000000000000000000000000 PUSH0 MSTORE PUSH1 0x41 PUSH1 0x4 MSTORE PUSH1 0x24 PUSH0 REVERT JUMPDEST PUSH2 0x713 DUP3 PUSH2 0x651 JUMP JUMPDEST DUP2 ADD DUP2 DUP2 LT PUSH8 0xFFFFFFFFFFFFFFFF DUP3 GT OR ISZERO PUSH2 0x732 JUMPI PUSH2 0x731 PUSH2 0x6DD JUMP JUMPDEST JUMPDEST DUP1 PUSH1 0x40 MSTORE POP POP POP JUMP JUMPDEST PUSH0 PUSH2 0x744 PUSH2 0x52B JUMP JUMPDEST SWAP1 POP PUSH2 0x750 DUP3 DUP3 PUSH2 0x70A JUMP JUMPDEST SWAP2 SWAP1 POP JUMP JUMPDEST PUSH0 PUSH8 0xFFFFFFFFFFFFFFFF DUP3 GT ISZERO PUSH2 0x76F JUMPI PUSH2 0x76E PUSH2 0x6DD JUMP JUMPDEST JUMPDEST PUSH2 0x778 DUP3 PUSH2 0x651 JUMP JUMPDEST SWAP1 POP PUSH1 0x20 DUP2 ADD SWAP1 POP SWAP2 SWAP1 POP JUMP JUMPDEST DUP3 DUP2 DUP4 CALLDATACOPY PUSH0 DUP4 DUP4 ADD MSTORE POP POP POP JUMP JUMPDEST PUSH0 PUSH2 0x7A5 PUSH2 0x7A0 DUP5 PUSH2 0x755 JUMP JUMPDEST PUSH2 0x73B JUMP JUMPDEST SWAP1 POP DUP3 DUP2 MSTORE PUSH1 0x20 DUP2 ADD DUP5 DUP5 DUP5 ADD GT ISZERO PUSH2 0x7C1 JUMPI PUSH2 0x7C0 PUSH2 0x6D9 JUMP JUMPDEST JUMPDEST PUSH2 0x7CC DUP5 DUP3 DUP6 PUSH2 0x785 JUMP JUMPDEST POP SWAP4 SWAP3 POP POP POP JUMP JUMPDEST PUSH0 DUP3 PUSH1 0x1F DUP4 ADD SLT PUSH2 0x7E8 JUMPI PUSH2 0x7E7 PUSH2 0x6D5 JUMP JUMPDEST JUMPDEST DUP2 CALLDATALOAD PUSH2 0x7F8 DUP5 DUP3 PUSH1 0x20 DUP7 ADD PUSH2 0x793 JUMP JUMPDEST SWAP2 POP POP SWAP3 SWAP2 POP POP JUMP JUMPDEST PUSH0 PUSH0 PUSH0 PUSH1 0x60 DUP5 DUP7 SUB SLT ISZERO PUSH2 0x818 JUMPI PUSH2 0x817 PUSH2 0x534 JUMP JUMPDEST JUMPDEST PUSH0 DUP5 ADD CALLDATALOAD PUSH8 0xFFFFFFFFFFFFFFFF DUP2 GT ISZERO PUSH2 0x835 JUMPI PUSH2 0x834 PUSH2 0x538 JUMP JUMPDEST JUMPDEST PUSH2 0x841 DUP7 DUP3 DUP8 ADD PUSH2 0x7D4 JUMP JUMPDEST SWAP4 POP POP PUSH1 0x20 PUSH2 0x852 DUP7 DUP3 DUP8 ADD PUSH2 0x5D7 JUMP JUMPDEST SWAP3 POP POP PUSH1 0x40 PUSH2 0x863 DUP7 DUP3 DUP8 ADD PUSH2 0x5D7 JUMP JUMPDEST SWAP2 POP POP SWAP3 POP SWAP3 POP SWAP3 JUMP JUMPDEST PUSH0 DUP2 MLOAD SWAP1 POP SWAP2 SWAP1 POP JUMP JUMPDEST PUSH0 DUP3 DUP3 MSTORE PUSH1 0x20 DUP3 ADD SWAP1 POP SWAP3 SWAP2 POP POP JUMP JUMPDEST PUSH0 DUP2 SWAP1 POP PUSH1 0x20 DUP3 ADD SWAP1 POP SWAP2 SWAP1 POP JUMP JUMPDEST PUSH0 DUP3 DUP3 MSTORE PUSH1 0x20 DUP3 ADD SWAP1 POP SWAP3 SWAP2 POP POP JUMP JUMPDEST PUSH0 PUSH2 0x8B0 DUP3 PUSH2 0x629 JUMP JUMPDEST PUSH2 0x8BA DUP2 DUP6 PUSH2 0x896 JUMP JUMPDEST SWAP4 POP PUSH2 0x8CA DUP2 DUP6 PUSH1 0x20 DUP7 ADD PUSH2 0x643 JUMP JUMPDEST PUSH2 0x8D3 DUP2 PUSH2 0x651 JUMP JUMPDEST DUP5 ADD SWAP2 POP POP SWAP3 SWAP2 POP POP JUMP JUMPDEST PUSH2 0x8E7 DUP2 PUSH2 0x4FA JUMP JUMPDEST DUP3 MSTORE POP POP JUMP JUMPDEST PUSH0 PUSH1 0x60 DUP4 ADD PUSH0 DUP4 ADD MLOAD DUP5 DUP3 SUB PUSH0 DUP7 ADD MSTORE PUSH2 0x907 DUP3 DUP3 PUSH2 0x8A6 JUMP JUMPDEST SWAP2 POP POP PUSH1 0x20 DUP4 ADD MLOAD PUSH2 0x91C PUSH1 0x20 DUP7 ADD DUP3 PUSH2 0x8DE JUMP JUMPDEST POP PUSH1 0x40 DUP4 ADD MLOAD PUSH2 0x92F PUSH1 0x40 DUP7 ADD DUP3 PUSH2 0x8DE JUMP JUMPDEST POP DUP1 SWAP2 POP POP SWAP3 SWAP2 POP POP JUMP JUMPDEST PUSH0 PUSH2 0x945 DUP4 DUP4 PUSH2 0x8ED JUMP JUMPDEST SWAP1 POP SWAP3 SWAP2 POP POP JUMP JUMPDEST PUSH0 PUSH1 0x20 DUP3 ADD SWAP1 POP SWAP2 SWAP1 POP JUMP JUMPDEST PUSH0 PUSH2 0x963 DUP3 PUSH2 0x86D JUMP JUMPDEST PUSH2 0x96D DUP2 DUP6 PUSH2 0x877 JUMP JUMPDEST SWAP4 POP DUP4 PUSH1 0x20 DUP3 MUL DUP6 ADD PUSH2 0x97F DUP6 PUSH2 0x887 JUMP JUMPDEST DUP1 PUSH0 JUMPDEST DUP6 DUP2 LT ISZERO PUSH2 0x9BA JUMPI DUP5 DUP5 SUB DUP10 MSTORE DUP2 MLOAD PUSH2 0x99B DUP6 DUP3 PUSH2 0x93A JUMP JUMPDEST SWAP5 POP PUSH2 0x9A6 DUP4 PUSH2 0x94D JUMP JUMPDEST SWAP3 POP PUSH1 0x20 DUP11 ADD SWAP10 POP POP PUSH1 0x1 DUP2 ADD SWAP1 POP PUSH2 0x982 JUMP JUMPDEST POP DUP3 SWAP8 POP DUP8 SWAP6 POP POP POP POP POP POP SWAP3 SWAP2 POP POP JUMP JUMPDEST PUSH0 PUSH1 0x20 DUP3 ADD SWAP1 POP DUP2 DUP2 SUB PUSH0 DUP4 ADD MSTORE PUSH2 0x9E4 DUP2 DUP5 PUSH2 0x959 JUMP JUMPDEST SWAP1 POP SWAP3 SWAP2 POP POP JUMP JUMPDEST PUSH32 0x4E487B7100000000000000000000000000000000000000000000000000000000 PUSH0 MSTORE PUSH1 0x22 PUSH1 0x4 MSTORE PUSH1 0x24 PUSH0 REVERT JUMPDEST PUSH0 PUSH1 0x2 DUP3 DIV SWAP1 POP PUSH1 0x1 DUP3 AND DUP1 PUSH2 0xA30 JUMPI PUSH1 0x7F DUP3 AND SWAP2 POP JUMPDEST PUSH1 0x20 DUP3 LT DUP2 SUB PUSH2 0xA43 JUMPI PUSH2 0xA42 PUSH2 0x9EC JUMP JUMPDEST JUMPDEST POP SWAP2 SWAP1 POP JUMP JUMPDEST PUSH0 DUP2 SWAP1 POP DUP2 PUSH0 MSTORE PUSH1 0x20 PUSH0 KECCAK256 SWAP1 POP SWAP2 SWAP1 POP JUMP JUMPDEST PUSH0 PUSH1 0x20 PUSH1 0x1F DUP4 ADD DIV SWAP1 POP SWAP2 SWAP1 POP JUMP JUMPDEST PUSH0 DUP3 DUP3 SHL SWAP1 POP SWAP3 SWAP2 POP POP JUMP JUMPDEST PUSH0 PUSH1 0x8 DUP4 MUL PUSH2 0xAA5 PUSH32 0xFFFFFFFFFFFFFFFFFFFFFFFFFFFFFFFFFFFFFFFFFFFFFFFFFFFFFFFFFFFFFFFF DUP3 PUSH2 0xA6A JUMP JUMPDEST PUSH2 0xAAF DUP7 DUP4 PUSH2 0xA6A JUMP JUMPDEST SWAP6 POP DUP1 NOT DUP5 AND SWAP4 POP DUP1 DUP7 AND DUP5 OR SWAP3 POP POP POP SWAP4 SWAP3 POP POP POP JUMP JUMPDEST PUSH0 DUP2 SWAP1 POP SWAP2 SWAP1 POP JUMP JUMPDEST PUSH0 PUSH2 0xAEA PUSH2 0xAE5 PUSH2 0xAE0 DUP5 PUSH2 0x4FA JUMP JUMPDEST PUSH2 0xAC7 JUMP JUMPDEST PUSH2 0x4FA JUMP JUMPDEST SWAP1 POP SWAP2 SWAP1 POP JUMP JUMPDEST PUSH0 DUP2 SWAP1 POP SWAP2 SWAP1 POP JUMP JUMPDEST PUSH2 0xB03 DUP4 PUSH2 0xAD0 JUMP JUMPDEST PUSH2 0xB17 PUSH2 0xB0F DUP3 PUSH2 0xAF1 JUMP JUMPDEST DUP5 DUP5 SLOAD PUSH2 0xA76 JUMP JUMPDEST DUP3 SSTORE POP POP POP POP JUMP JUMPDEST PUSH0 PUSH0 SWAP1 POP SWAP1 JUMP JUMPDEST PUSH2 0xB2E PUSH2 0xB1F JUMP JUMPDEST PUSH2 0xB39 DUP2 DUP5 DUP5 PUSH2 0xAFA JUMP JUMPDEST POP POP POP JUMP JUMPDEST JUMPDEST DUP2 DUP2 LT ISZERO PUSH2 0xB5C JUMPI PUSH2 0xB51 PUSH0 DUP3 PUSH2 0xB26 JUMP JUMPDEST PUSH1 0x1 DUP2 ADD SWAP1 POP PUSH2 0xB3F JUMP JUMPDEST POP POP JUMP JUMPDEST PUSH1 0x1F DUP3 GT ISZERO PUSH2 0xBA1 JUMPI PUSH2 0xB72 DUP2 PUSH2 0xA49 JUMP JUMPDEST PUSH2 0xB7B DUP5 PUSH2 0xA5B JUMP JUMPDEST DUP2 ADD PUSH1 0x20 DUP6 LT ISZERO PUSH2 0xB8A JUMPI DUP2 SWAP1 POP JUMPDEST PUSH2 0xB9E PUSH2 0xB96 DUP6 PUSH2 0xA5B JUMP JUMPDEST DUP4 ADD DUP3 PUSH2 0xB3E JUMP JUMPDEST POP POP JUMPDEST POP POP POP JUMP JUMPDEST PUSH0 DUP3 DUP3 SHR SWAP1 POP SWAP3 SWAP2 POP POP JUMP JUMPDEST PUSH0 PUSH2 0xBC1 PUSH0 NOT DUP5 PUSH1 0x8 MUL PUSH2 0xBA6 JUMP JUMPDEST NOT DUP1 DUP4 AND SWAP2 POP POP SWAP3 SWAP2 POP POP JUMP JUMPDEST PUSH0 PUSH2 0xBD9 DUP4 DUP4 PUSH2 0xBB2 JUMP JUMPDEST SWAP2 POP DUP3 PUSH1 0x2 MUL DUP3 OR SWAP1 POP SWAP3 SWAP2 POP POP JUMP JUMPDEST PUSH2 0xBF2 DUP3 PUSH2 0x629 JUMP JUMPDEST PUSH8 0xFFFFFFFFFFFFFFFF DUP2 GT ISZERO PUSH2 0xC0B JUMPI PUSH2 0xC0A PUSH2 0x6DD JUMP JUMPDEST JUMPDEST PUSH2 0xC15 DUP3 SLOAD PUSH2 0xA19 JUMP JUMPDEST PUSH2 0xC20 DUP3 DUP3 DUP6 PUSH2 0xB60 JUMP JUMPDEST PUSH0 PUSH1 0x20 SWAP1 POP PUSH1 0x1F DUP4 GT PUSH1 0x1 DUP2 EQ PUSH2 0xC51 JUMPI PUSH0 DUP5 ISZERO PUSH2 0xC3F JUMPI DUP3 DUP8 ADD MLOAD SWAP1 POP JUMPDEST PUSH2 0xC49 DUP6 DUP3 PUSH2 0xBCE JUMP JUMPDEST DUP7 SSTORE POP PUSH2 0xCB0 JUMP JUMPDEST PUSH1 0x1F NOT DUP5 AND PUSH2 0xC5F DUP7 PUSH2 0xA49 JUMP JUMPDEST PUSH0 JUMPDEST DUP3 DUP2 LT ISZERO PUSH2 0xC86 JUMPI DUP5 DUP10 ADD MLOAD DUP3 SSTORE PUSH1 0x1 DUP3 ADD SWAP2 POP PUSH1 0x20 DUP6 ADD SWAP5 POP PUSH1 0x20 DUP2 ADD SWAP1 POP PUSH2 0xC61 JUMP JUMPDEST DUP7 DUP4 LT ISZERO PUSH2 0xCA3 JUMPI DUP5 DUP10 ADD MLOAD PUSH2 0xC9F PUSH1 0x1F DUP10 AND DUP3 PUSH2 0xBB2 JUMP JUMPDEST DUP4 SSTORE POP JUMPDEST PUSH1 0x1 PUSH1 0x2 DUP9 MUL ADD DUP9 SSTORE POP POP POP JUMPDEST POP POP POP POP POP POP JUMP JUMPDEST PUSH0 DUP2 SLOAD SWAP1 POP SWAP2 SWAP1 POP JUMP JUMPDEST PUSH0 DUP2 SWAP1 POP DUP2 PUSH0 MSTORE PUSH1 0x20 PUSH0 KECCAK256 SWAP1 POP SWAP2 SWAP1 POP JUMP JUMPDEST PUSH0 DUP2 SLOAD PUSH2 0xCE0 DUP2 PUSH2 0xA19 JUMP JUMPDEST PUSH2 0xCEA DUP2 DUP7 PUSH2 0x896 JUMP JUMPDEST SWAP5 POP PUSH1 0x1 DUP3 AND PUSH0 DUP2 EQ PUSH2 0xD04 JUMPI PUSH1 0x1 DUP2 EQ PUSH2 0xD1A JUMPI PUSH2 0xD4C JUMP JUMPDEST PUSH1 0xFF NOT DUP4 AND DUP7 MSTORE DUP2 ISZERO ISZERO PUSH1 0x20 MUL DUP7 ADD SWAP4 POP PUSH2 0xD4C JUMP JUMPDEST PUSH2 0xD23 DUP6 PUSH2 0xA49 JUMP JUMPDEST PUSH0 JUMPDEST DUP4 DUP2 LT ISZERO PUSH2 0xD44 JUMPI DUP2 SLOAD DUP2 DUP10 ADD MSTORE PUSH1 0x1 DUP3 ADD SWAP2 POP PUSH1 0x20 DUP2 ADD SWAP1 POP PUSH2 0xD25 JUMP JUMPDEST DUP1 DUP9 ADD SWAP6 POP POP POP JUMPDEST POP POP POP SWAP3 SWAP2 POP POP JUMP JUMPDEST PUSH0 DUP2 PUSH0 SHR SWAP1 POP SWAP2 SWAP1 POP JUMP JUMPDEST PUSH0 DUP2 SWAP1 POP SWAP2 SWAP1 POP JUMP JUMPDEST PUSH0 PUSH2 0xD7B PUSH2 0xD76 DUP4 PUSH2 0xD55 JUMP JUMPDEST PUSH2 0xD60 JUMP JUMPDEST SWAP1 POP SWAP2 SWAP1 POP JUMP JUMPDEST PUSH0 PUSH1 0x60 DUP4 ADD PUSH0 PUSH0 DUP5 ADD DUP6 DUP4 SUB PUSH0 DUP8 ADD MSTORE PUSH2 0xD9C DUP4 DUP3 PUSH2 0xCD4 JUMP JUMPDEST SWAP3 POP POP PUSH1 0x1 DUP5 ADD SLOAD SWAP1 POP PUSH2 0xDAF DUP2 PUSH2 0xD69 JUMP JUMPDEST PUSH2 0xDBC PUSH1 0x20 DUP8 ADD DUP3 PUSH2 0x8DE JUMP JUMPDEST POP PUSH1 0x2 DUP5 ADD SLOAD SWAP1 POP PUSH2 0xDCD DUP2 PUSH2 0xD69 JUMP JUMPDEST PUSH2 0xDDA PUSH1 0x40 DUP8 ADD DUP3 PUSH2 0x8DE JUMP JUMPDEST POP DUP2 SWAP3 POP POP POP SWAP3 SWAP2 POP POP JUMP JUMPDEST PUSH0 PUSH2 0xDF1 DUP4 DUP4 PUSH2 0xD82 JUMP JUMPDEST SWAP1 POP SWAP3 SWAP2 POP POP JUMP JUMPDEST PUSH0 PUSH1 0x3 DUP3 ADD SWAP1 POP SWAP2 SWAP1 POP JUMP JUMPDEST PUSH0 PUSH2 0xE0F DUP3 PUSH2 0xCB8 JUMP JUMPDEST PUSH2 0xE19 DUP2 DUP6 PUSH2 0x877 JUMP JUMPDEST SWAP4 POP DUP4 PUSH1 0x20 DUP3 MUL DUP6 ADD PUSH2 0xE2B DUP6 PUSH2 0xCC2 JUMP JUMPDEST DUP1 PUSH0 JUMPDEST DUP6 DUP2 LT ISZERO PUSH2 0xE65 JUMPI DUP5 DUP5 SUB DUP10 MSTORE DUP2 PUSH2 0xE46 DUP6 DUP3 PUSH2 0xDE6 JUMP JUMPDEST SWAP5 POP PUSH2 0xE51 DUP4 PUSH2 0xDF9 JUMP JUMPDEST SWAP3 POP PUSH1 0x20 DUP11 ADD SWAP10 POP POP PUSH1 0x1 DUP2 ADD SWAP1 POP PUSH2 0xE2E JUMP JUMPDEST POP DUP3 SWAP8 POP DUP8 SWAP6 POP POP POP POP POP POP SWAP3 SWAP2 POP POP JUMP JUMPDEST PUSH0 PUSH1 0x20 DUP3 ADD SWAP1 POP DUP2 DUP2 SUB PUSH0 DUP4 ADD MSTORE PUSH2 0xE8F DUP2 DUP5 PUSH2 0xE05 JUMP JUMPDEST SWAP1 POP SWAP3 SWAP2 POP POP JUMP INVALID LOG2 PUSH5 0x6970667358 0x22 SLT KECCAK256 0xE6 0xAD BLOBBASEFEE PUSH5 0xB71A35D25 INVALID SWAP1 BLOBHASH PUSH27 0x732E22FDC1C426321377D493693DCD0B4DED8664736F6C63430008 SHR STOP CALLER "
		},
		"gasEstimates": {
			"creation": {
				"codeDepositCost": "757800",
				"executionCost": "790",
				"totalCost": "758590"
			},
			"external": {
				"addBalances(address,uint256)": "22887",
				"createProduct(string,uint256,uint256)": "infinite",
				"getBalance()": "2497",
				"getUserProducts()": "infinite",
				"userBalances(address)": "2802",
				"userProducts(address,uint256)": "infinite"
			}
		},
		"methodIdentifiers": {
			"addBalances(address,uint256)": "99c6d5f3",
			"createProduct(string,uint256,uint256)": "7bf12b1c",
			"getBalance()": "12065fe0",
			"getUserProducts()": "aba7b314",
			"userBalances(address)": "26224c64",
			"userProducts(address,uint256)": "3d527883"
		}
	},
	"abi": [
		{
			"anonymous": false,
			"inputs": [
				{
					"components": [
						{
							"internalType": "string",
							"name": "name",
							"type": "string"
						},
						{
							"internalType": "uint256",
							"name": "price",
							"type": "uint256"
						},
						{
							"internalType": "uint256",
							"name": "quantity",
							"type": "uint256"
						}
					],
					"indexed": false,
					"internalType": "struct Test.Product[]",
					"name": "product",
					"type": "tuple[]"
				}
			],
			"name": "ProductUpdate",
			"type": "event"
		},
		{
			"inputs": [
				{
					"internalType": "address",
					"name": "_user",
					"type": "address"
				},
				{
					"internalType": "uint256",
					"name": "_amount",
					"type": "uint256"
				}
			],
			"name": "addBalances",
			"outputs": [],
			"stateMutability": "nonpayable",
			"type": "function"
		},
		{
			"inputs": [
				{
					"internalType": "string",
					"name": "_name",
					"type": "string"
				},
				{
					"internalType": "uint256",
					"name": "_price",
					"type": "uint256"
				},
				{
					"internalType": "uint256",
					"name": "_quantity",
					"type": "uint256"
				}
			],
			"name": "createProduct",
			"outputs": [],
			"stateMutability": "nonpayable",
			"type": "function"
		},
		{
			"inputs": [],
			"name": "getBalance",
			"outputs": [
				{
					"internalType": "uint256",
					"name": "",
					"type": "uint256"
				}
			],
			"stateMutability": "view",
			"type": "function"
		},
		{
			"inputs": [],
			"name": "getUserProducts",
			"outputs": [
				{
					"components": [
						{
							"internalType": "string",
							"name": "name",
							"type": "string"
						},
						{
							"internalType": "uint256",
							"name": "price",
							"type": "uint256"
						},
						{
							"internalType": "uint256",
							"name": "quantity",
							"type": "uint256"
						}
					],
					"internalType": "struct Test.Product[]",
					"name": "",
					"type": "tuple[]"
				}
			],
			"stateMutability": "view",
			"type": "function"
		},
		{
			"inputs": [
				{
					"internalType": "address",
					"name": "",
					"type": "address"
				}
			],
			"name": "userBalances",
			"outputs": [
				{
					"internalType": "uint256",
					"name": "",
					"type": "uint256"
				}
			],
			"stateMutability": "view",
			"type": "function"
		},
		{
			"inputs": [
				{
					"internalType": "address",
					"name": "",
					"type": "address"
				},
				{
					"internalType": "uint256",
					"name": "",
					"type": "uint256"
				}
			],
			"name": "userProducts",
			"outputs": [
				{
					"internalType": "string",
					"name": "name",
					"type": "string"
				},
				{
					"internalType": "uint256",
					"name": "price",
					"type": "uint256"
				},
				{
					"internalType": "uint256",
					"name": "quantity",
					"type": "uint256"
				}
			],
			"stateMutability": "view",
			"type": "function"
		}
	]
}