{
	"data": {
		"bytecode": {
			"linkReferences": {},
			"object": "608060405234801561000f575f5ffd5b50604051612cae380380612cae833981810160405281019061003191906102fd565b338383815f908161004291906105b1565b50806001908161005291906105b1565b5050505f73ffffffffffffffffffffffffffffffffffffffff168173ffffffffffffffffffffffffffffffffffffffff16036100c5575f6040517f1e4fbdf70000000000000000000000000000000000000000000000000000000081526004016100bc91906106bf565b60405180910390fd5b6100d4816100ed60201b60201c565b5080600790816100e491906105b1565b505050506106d8565b5f60065f9054906101000a900473ffffffffffffffffffffffffffffffffffffffff1690508160065f6101000a81548173ffffffffffffffffffffffffffffffffffffffff021916908373ffffffffffffffffffffffffffffffffffffffff1602179055508173ffffffffffffffffffffffffffffffffffffffff168173ffffffffffffffffffffffffffffffffffffffff167f8be0079c531659141344cd1fd0a4f28419497f9722a3daafe3b4186f6b6457e060405160405180910390a35050565b5f604051905090565b5f5ffd5b5f5ffd5b5f5ffd5b5f5ffd5b5f601f19601f8301169050919050565b7f4e487b71000000000000000000000000000000000000000000000000000000005f52604160045260245ffd5b61020f826101c9565b810181811067ffffffffffffffff8211171561022e5761022d6101d9565b5b80604052505050565b5f6102406101b0565b905061024c8282610206565b919050565b5f67ffffffffffffffff82111561026b5761026a6101d9565b5b610274826101c9565b9050602081019050919050565b8281835e5f83830152505050565b5f6102a161029c84610251565b610237565b9050828152602081018484840111156102bd576102bc6101c5565b5b6102c8848285610281565b509392505050565b5f82601f8301126102e4576102e36101c1565b5b81516102f484826020860161028f565b91505092915050565b5f5f5f60608486031215610314576103136101b9565b5b5f84015167ffffffffffffffff811115610331576103306101bd565b5b61033d868287016102d0565b935050602084015167ffffffffffffffff81111561035e5761035d6101bd565b5b61036a868287016102d0565b925050604084015167ffffffffffffffff81111561038b5761038a6101bd565b5b610397868287016102d0565b9150509250925092565b5f81519050919050565b7f4e487b71000000000000000000000000000000000000000000000000000000005f52602260045260245ffd5b5f60028204905060018216806103ef57607f821691505b602082108103610402576104016103ab565b5b50919050565b5f819050815f5260205f209050919050565b5f6020601f8301049050919050565b5f82821b905092915050565b5f600883026104647fffffffffffffffffffffffffffffffffffffffffffffffffffffffffffffffff82610429565b61046e8683610429565b95508019841693508086168417925050509392505050565b5f819050919050565b5f819050919050565b5f6104b26104ad6104a884610486565b61048f565b610486565b9050919050565b5f819050919050565b6104cb83610498565b6104df6104d7826104b9565b848454610435565b825550505050565b5f5f905090565b6104f66104e7565b6105018184846104c2565b505050565b5b81811015610524576105195f826104ee565b600181019050610507565b5050565b601f8211156105695761053a81610408565b6105438461041a565b81016020851015610552578190505b61056661055e8561041a565b830182610506565b50505b505050565b5f82821c905092915050565b5f6105895f198460080261056e565b1980831691505092915050565b5f6105a1838361057a565b9150826002028217905092915050565b6105ba826103a1565b67ffffffffffffffff8111156105d3576105d26101d9565b5b6105dd82546103d8565b6105e8828285610528565b5f60209050601f831160018114610619575f8415610607578287015190505b6106118582610596565b865550610678565b601f19841661062786610408565b5f5b8281101561064e57848901518255600182019150602085019450602081019050610629565b8683101561066b5784890151610667601f89168261057a565b8355505b6001600288020188555050505b505050505050565b5f73ffffffffffffffffffffffffffffffffffffffff82169050919050565b5f6106a982610680565b9050919050565b6106b98161069f565b82525050565b5f6020820190506106d25f8301846106b0565b92915050565b6125c9806106e55f395ff3fe608060405234801561000f575f5ffd5b5060043610610135575f3560e01c80636352211e116100b6578063a22cb4651161007a578063a22cb46514610323578063b88d4fde1461033f578063c395c8af1461035b578063c87b56dd14610379578063e985e9c5146103a9578063f2fde38b146103d957610135565b80636352211e1461027d57806370a08231146102ad578063715018a6146102dd5780638da5cb5b146102e757806395d89b411461030557610135565b806323b872dd116100fd57806323b872dd146101f157806342842e0e1461020d57806348ae238f1461022957806354ba0f271461024557806355f804b31461026157610135565b806301ffc9a71461013957806306fdde0314610169578063081812fc14610187578063095ea7b3146101b757806312065fe0146101d3575b5f5ffd5b610153600480360381019061014e9190611af3565b6103f5565b6040516101609190611b38565b60405180910390f35b6101716104d6565b60405161017e9190611bc1565b60405180910390f35b6101a1600480360381019061019c9190611c14565b610565565b6040516101ae9190611c7e565b60405180910390f35b6101d160048036038101906101cc9190611cc1565b610580565b005b6101db610596565b6040516101e89190611d0e565b60405180910390f35b61020b60048036038101906102069190611d27565b6105a5565b005b61022760048036038101906102229190611d27565b6106a4565b005b610243600480360381019061023e9190611d77565b6106c3565b005b61025f600480360381019061025a9190611db5565b6106d3565b005b61027b60048036038101906102769190611f0c565b6106f2565b005b61029760048036038101906102929190611c14565b61070d565b6040516102a49190611c7e565b60405180910390f35b6102c760048036038101906102c29190611db5565b61071e565b6040516102d49190611d0e565b60405180910390f35b6102e56107d4565b005b6102ef6107e7565b6040516102fc9190611c7e565b60405180910390f35b61030d61080f565b60405161031a9190611bc1565b60405180910390f35b61033d60048036038101906103389190611f7d565b61089f565b005b61035960048036038101906103549190612059565b6108b5565b005b6103636108da565b6040516103709190611bc1565b60405180910390f35b610393600480360381019061038e9190611c14565b61096a565b6040516103a09190611bc1565b60405180910390f35b6103c360048036038101906103be9190611d77565b6109d0565b6040516103d09190611b38565b60405180910390f35b6103f360048036038101906103ee9190611db5565b610a5e565b005b5f7f80ac58cd000000000000000000000000000000000000000000000000000000007bffffffffffffffffffffffffffffffffffffffffffffffffffffffff1916827bffffffffffffffffffffffffffffffffffffffffffffffffffffffff191614806104bf57507f5b5e139f000000000000000000000000000000000000000000000000000000007bffffffffffffffffffffffffffffffffffffffffffffffffffffffff1916827bffffffffffffffffffffffffffffffffffffffffffffffffffffffff1916145b806104cf57506104ce82610ae2565b5b9050919050565b60605f80546104e490612106565b80601f016020809104026020016040519081016040528092919081815260200182805461051090612106565b801561055b5780601f106105325761010080835404028352916020019161055b565b820191905f5260205f20905b81548152906001019060200180831161053e57829003601f168201915b5050505050905090565b5f61056f82610b4b565b5061057982610bd1565b9050919050565b610592828261058d610c0a565b610c11565b5050565b5f6105a03361071e565b905090565b5f73ffffffffffffffffffffffffffffffffffffffff168273ffffffffffffffffffffffffffffffffffffffff1603610615575f6040517f64a0ae9200000000000000000000000000000000000000000000000000000000815260040161060c9190611c7e565b60405180910390fd5b5f6106288383610623610c0a565b610c23565b90508373ffffffffffffffffffffffffffffffffffffffff168173ffffffffffffffffffffffffffffffffffffffff161461069e578382826040517f64283d7b00000000000000000000000000000000000000000000000000000000815260040161069593929190612136565b60405180910390fd5b50505050565b6106be83838360405180602001604052805f8152506108b5565b505050565b6106cf828260016105a5565b5050565b6106db610e2e565b6106e481610eb5565b6106ef816001610f4e565b50565b6106fa610e2e565b8060079081610709919061230b565b5050565b5f61071782610b4b565b9050919050565b5f5f73ffffffffffffffffffffffffffffffffffffffff168273ffffffffffffffffffffffffffffffffffffffff160361078f575f6040517f89c62b640000000000000000000000000000000000000000000000000000000081526004016107869190611c7e565b60405180910390fd5b60035f8373ffffffffffffffffffffffffffffffffffffffff1673ffffffffffffffffffffffffffffffffffffffff1681526020019081526020015f20549050919050565b6107dc610e2e565b6107e55f611041565b565b5f60065f9054906101000a900473ffffffffffffffffffffffffffffffffffffffff16905090565b60606001805461081e90612106565b80601f016020809104026020016040519081016040528092919081815260200182805461084a90612106565b80156108955780601f1061086c57610100808354040283529160200191610895565b820191905f5260205f20905b81548152906001019060200180831161087857829003601f168201915b5050505050905090565b6108b16108aa610c0a565b8383611104565b5050565b6108c08484846105a5565b6108d46108cb610c0a565b8585858561126d565b50505050565b6060600780546108e990612106565b80601f016020809104026020016040519081016040528092919081815260200182805461091590612106565b80156109605780601f1061093757610100808354040283529160200191610960565b820191905f5260205f20905b81548152906001019060200180831161094357829003601f168201915b5050505050905090565b606061097582610b4b565b505f61097f611419565b90505f81511161099d5760405180602001604052805f8152506109c8565b806109a7846114a9565b6040516020016109b8929190612414565b6040516020818303038152906040525b915050919050565b5f60055f8473ffffffffffffffffffffffffffffffffffffffff1673ffffffffffffffffffffffffffffffffffffffff1681526020019081526020015f205f8373ffffffffffffffffffffffffffffffffffffffff1673ffffffffffffffffffffffffffffffffffffffff1681526020019081526020015f205f9054906101000a900460ff16905092915050565b610a66610e2e565b5f73ffffffffffffffffffffffffffffffffffffffff168173ffffffffffffffffffffffffffffffffffffffff1603610ad6575f6040517f1e4fbdf7000000000000000000000000000000000000000000000000000000008152600401610acd9190611c7e565b60405180910390fd5b610adf81611041565b50565b5f7f01ffc9a7000000000000000000000000000000000000000000000000000000007bffffffffffffffffffffffffffffffffffffffffffffffffffffffff1916827bffffffffffffffffffffffffffffffffffffffffffffffffffffffff1916149050919050565b5f5f610b5683611573565b90505f73ffffffffffffffffffffffffffffffffffffffff168173ffffffffffffffffffffffffffffffffffffffff1603610bc857826040517f7e273289000000000000000000000000000000000000000000000000000000008152600401610bbf9190611d0e565b60405180910390fd5b80915050919050565b5f60045f8381526020019081526020015f205f9054906101000a900473ffffffffffffffffffffffffffffffffffffffff169050919050565b5f33905090565b610c1e83838360016115ac565b505050565b5f5f610c2e84611573565b90505f73ffffffffffffffffffffffffffffffffffffffff168373ffffffffffffffffffffffffffffffffffffffff1614610c6f57610c6e81848661176b565b5b5f73ffffffffffffffffffffffffffffffffffffffff168173ffffffffffffffffffffffffffffffffffffffff1614610cfa57610cae5f855f5f6115ac565b600160035f8373ffffffffffffffffffffffffffffffffffffffff1673ffffffffffffffffffffffffffffffffffffffff1681526020019081526020015f205f82825403925050819055505b5f73ffffffffffffffffffffffffffffffffffffffff168573ffffffffffffffffffffffffffffffffffffffff1614610d7957600160035f8773ffffffffffffffffffffffffffffffffffffffff1673ffffffffffffffffffffffffffffffffffffffff1681526020019081526020015f205f82825401925050819055505b8460025f8681526020019081526020015f205f6101000a81548173ffffffffffffffffffffffffffffffffffffffff021916908373ffffffffffffffffffffffffffffffffffffffff160217905550838573ffffffffffffffffffffffffffffffffffffffff168273ffffffffffffffffffffffffffffffffffffffff167fddf252ad1be2c89b69c2b068fc378daa952ba7f163c4a11628f55a4df523b3ef60405160405180910390a4809150509392505050565b610e36610c0a565b73ffffffffffffffffffffffffffffffffffffffff16610e546107e7565b73ffffffffffffffffffffffffffffffffffffffff1614610eb357610e77610c0a565b6040517f118cdaa7000000000000000000000000000000000000000000000000000000008152600401610eaa9190611c7e565b60405180910390fd5b565b610f4b81604051602401610ec99190611c7e565b6040516020818303038152906040527f2c2ecbc2000000000000000000000000000000000000000000000000000000007bffffffffffffffffffffffffffffffffffffffffffffffffffffffff19166020820180517bffffffffffffffffffffffffffffffffffffffffffffffffffffffff838183161783525050505061182e565b50565b5f73ffffffffffffffffffffffffffffffffffffffff168273ffffffffffffffffffffffffffffffffffffffff1603610fbe575f6040517f64a0ae92000000000000000000000000000000000000000000000000000000008152600401610fb59190611c7e565b60405180910390fd5b5f610fca83835f610c23565b90505f73ffffffffffffffffffffffffffffffffffffffff168173ffffffffffffffffffffffffffffffffffffffff161461103c575f6040517f73c6ac6e0000000000000000000000000000000000000000000000000000000081526004016110339190611c7e565b60405180910390fd5b505050565b5f60065f9054906101000a900473ffffffffffffffffffffffffffffffffffffffff1690508160065f6101000a81548173ffffffffffffffffffffffffffffffffffffffff021916908373ffffffffffffffffffffffffffffffffffffffff1602179055508173ffffffffffffffffffffffffffffffffffffffff168173ffffffffffffffffffffffffffffffffffffffff167f8be0079c531659141344cd1fd0a4f28419497f9722a3daafe3b4186f6b6457e060405160405180910390a35050565b5f73ffffffffffffffffffffffffffffffffffffffff168273ffffffffffffffffffffffffffffffffffffffff160361117457816040517f5b08ba1800000000000000000000000000000000000000000000000000000000815260040161116b9190611c7e565b60405180910390fd5b8060055f8573ffffffffffffffffffffffffffffffffffffffff1673ffffffffffffffffffffffffffffffffffffffff1681526020019081526020015f205f8473ffffffffffffffffffffffffffffffffffffffff1673ffffffffffffffffffffffffffffffffffffffff1681526020019081526020015f205f6101000a81548160ff0219169083151502179055508173ffffffffffffffffffffffffffffffffffffffff168373ffffffffffffffffffffffffffffffffffffffff167f17307eab39ab6107e8899845ad3d59bd9653f200f220920489ca2b5937696c31836040516112609190611b38565b60405180910390a3505050565b5f8373ffffffffffffffffffffffffffffffffffffffff163b1115611412578273ffffffffffffffffffffffffffffffffffffffff1663150b7a02868685856040518563ffffffff1660e01b81526004016112cb9493929190612489565b6020604051808303815f875af192505050801561130657506040513d601f19601f8201168201806040525081019061130391906124e7565b60015b611387573d805f8114611334576040519150601f19603f3d011682016040523d82523d5f602084013e611339565b606091505b505f81510361137f57836040517f64a0ae920000000000000000000000000000000000000000000000000000000081526004016113769190611c7e565b60405180910390fd5b805181602001fd5b63150b7a0260e01b7bffffffffffffffffffffffffffffffffffffffffffffffffffffffff1916817bffffffffffffffffffffffffffffffffffffffffffffffffffffffff19161461141057836040517f64a0ae920000000000000000000000000000000000000000000000000000000081526004016114079190611c7e565b60405180910390fd5b505b5050505050565b60606007805461142890612106565b80601f016020809104026020016040519081016040528092919081815260200182805461145490612106565b801561149f5780601f106114765761010080835404028352916020019161149f565b820191905f5260205f20905b81548152906001019060200180831161148257829003601f168201915b5050505050905090565b60605f60016114b784611848565b0190505f8167ffffffffffffffff8111156114d5576114d4611de8565b5b6040519080825280601f01601f1916602001820160405280156115075781602001600182028036833780820191505090505b5090505f82602001820190505b600115611568578080600190039150507f3031323334353637383961626364656600000000000000000000000000000000600a86061a8153600a858161155d5761155c612512565b5b0494505f8503611514575b819350505050919050565b5f60025f8381526020019081526020015f205f9054906101000a900473ffffffffffffffffffffffffffffffffffffffff169050919050565b80806115e457505f73ffffffffffffffffffffffffffffffffffffffff168273ffffffffffffffffffffffffffffffffffffffff1614155b15611716575f6115f384610b4b565b90505f73ffffffffffffffffffffffffffffffffffffffff168373ffffffffffffffffffffffffffffffffffffffff161415801561165d57508273ffffffffffffffffffffffffffffffffffffffff168173ffffffffffffffffffffffffffffffffffffffff1614155b8015611670575061166e81846109d0565b155b156116b257826040517fa9fbf51f0000000000000000000000000000000000000000000000000000000081526004016116a99190611c7e565b60405180910390fd5b811561171457838573ffffffffffffffffffffffffffffffffffffffff168273ffffffffffffffffffffffffffffffffffffffff167f8c5be1e5ebec7d5bd14f71427d1e84f3dd0314c0f7b2291e5b200ac8c7c3b92560405160405180910390a45b505b8360045f8581526020019081526020015f205f6101000a81548173ffffffffffffffffffffffffffffffffffffffff021916908373ffffffffffffffffffffffffffffffffffffffff16021790555050505050565b611776838383611999565b611829575f73ffffffffffffffffffffffffffffffffffffffff168373ffffffffffffffffffffffffffffffffffffffff16036117ea57806040517f7e2732890000000000000000000000000000000000000000000000000000000081526004016117e19190611d0e565b60405180910390fd5b81816040517f177e802f00000000000000000000000000000000000000000000000000000000815260040161182092919061253f565b60405180910390fd5b505050565b6118458161183d611a59611a78565b63ffffffff16565b50565b5f5f5f90507a184f03e93ff9f4daa797ed6e38ed64bf6a1f01000000000000000083106118a4577a184f03e93ff9f4daa797ed6e38ed64bf6a1f010000000000000000838161189a57611899612512565b5b0492506040810190505b6d04ee2d6d415b85acef810000000083106118e1576d04ee2d6d415b85acef810000000083816118d7576118d6612512565b5b0492506020810190505b662386f26fc10000831061191057662386f26fc10000838161190657611905612512565b5b0492506010810190505b6305f5e1008310611939576305f5e100838161192f5761192e612512565b5b0492506008810190505b612710831061195e57612710838161195457611953612512565b5b0492506004810190505b60648310611981576064838161197757611976612512565b5b0492506002810190505b600a8310611990576001810190505b80915050919050565b5f5f73ffffffffffffffffffffffffffffffffffffffff168373ffffffffffffffffffffffffffffffffffffffff1614158015611a5057508273ffffffffffffffffffffffffffffffffffffffff168473ffffffffffffffffffffffffffffffffffffffff161480611a115750611a1084846109d0565b5b80611a4f57508273ffffffffffffffffffffffffffffffffffffffff16611a3783610bd1565b73ffffffffffffffffffffffffffffffffffffffff16145b5b90509392505050565b5f6a636f6e736f6c652e6c6f6790505f5f835160208501845afa505050565b611a83819050919050565b611a8b612566565b565b5f604051905090565b5f5ffd5b5f5ffd5b5f7fffffffff0000000000000000000000000000000000000000000000000000000082169050919050565b611ad281611a9e565b8114611adc575f5ffd5b50565b5f81359050611aed81611ac9565b92915050565b5f60208284031215611b0857611b07611a96565b5b5f611b1584828501611adf565b91505092915050565b5f8115159050919050565b611b3281611b1e565b82525050565b5f602082019050611b4b5f830184611b29565b92915050565b5f81519050919050565b5f82825260208201905092915050565b8281835e5f83830152505050565b5f601f19601f8301169050919050565b5f611b9382611b51565b611b9d8185611b5b565b9350611bad818560208601611b6b565b611bb681611b79565b840191505092915050565b5f6020820190508181035f830152611bd98184611b89565b905092915050565b5f819050919050565b611bf381611be1565b8114611bfd575f5ffd5b50565b5f81359050611c0e81611bea565b92915050565b5f60208284031215611c2957611c28611a96565b5b5f611c3684828501611c00565b91505092915050565b5f73ffffffffffffffffffffffffffffffffffffffff82169050919050565b5f611c6882611c3f565b9050919050565b611c7881611c5e565b82525050565b5f602082019050611c915f830184611c6f565b92915050565b611ca081611c5e565b8114611caa575f5ffd5b50565b5f81359050611cbb81611c97565b92915050565b5f5f60408385031215611cd757611cd6611a96565b5b5f611ce485828601611cad565b9250506020611cf585828601611c00565b9150509250929050565b611d0881611be1565b82525050565b5f602082019050611d215f830184611cff565b92915050565b5f5f5f60608486031215611d3e57611d3d611a96565b5b5f611d4b86828701611cad565b9350506020611d5c86828701611cad565b9250506040611d6d86828701611c00565b9150509250925092565b5f5f60408385031215611d8d57611d8c611a96565b5b5f611d9a85828601611cad565b9250506020611dab85828601611cad565b9150509250929050565b5f60208284031215611dca57611dc9611a96565b5b5f611dd784828501611cad565b91505092915050565b5f5ffd5b5f5ffd5b7f4e487b71000000000000000000000000000000000000000000000000000000005f52604160045260245ffd5b611e1e82611b79565b810181811067ffffffffffffffff82111715611e3d57611e3c611de8565b5b80604052505050565b5f611e4f611a8d565b9050611e5b8282611e15565b919050565b5f67ffffffffffffffff821115611e7a57611e79611de8565b5b611e8382611b79565b9050602081019050919050565b828183375f83830152505050565b5f611eb0611eab84611e60565b611e46565b905082815260208101848484011115611ecc57611ecb611de4565b5b611ed7848285611e90565b509392505050565b5f82601f830112611ef357611ef2611de0565b5b8135611f03848260208601611e9e565b91505092915050565b5f60208284031215611f2157611f20611a96565b5b5f82013567ffffffffffffffff811115611f3e57611f3d611a9a565b5b611f4a84828501611edf565b91505092915050565b611f5c81611b1e565b8114611f66575f5ffd5b50565b5f81359050611f7781611f53565b92915050565b5f5f60408385031215611f9357611f92611a96565b5b5f611fa085828601611cad565b9250506020611fb185828601611f69565b9150509250929050565b5f67ffffffffffffffff821115611fd557611fd4611de8565b5b611fde82611b79565b9050602081019050919050565b5f611ffd611ff884611fbb565b611e46565b90508281526020810184848401111561201957612018611de4565b5b612024848285611e90565b509392505050565b5f82601f8301126120405761203f611de0565b5b8135612050848260208601611feb565b91505092915050565b5f5f5f5f6080858703121561207157612070611a96565b5b5f61207e87828801611cad565b945050602061208f87828801611cad565b93505060406120a087828801611c00565b925050606085013567ffffffffffffffff8111156120c1576120c0611a9a565b5b6120cd8782880161202c565b91505092959194509250565b7f4e487b71000000000000000000000000000000000000000000000000000000005f52602260045260245ffd5b5f600282049050600182168061211d57607f821691505b6020821081036121305761212f6120d9565b5b50919050565b5f6060820190506121495f830186611c6f565b6121566020830185611cff565b6121636040830184611c6f565b949350505050565b5f819050815f5260205f209050919050565b5f6020601f8301049050919050565b5f82821b905092915050565b5f600883026121c77fffffffffffffffffffffffffffffffffffffffffffffffffffffffffffffffff8261218c565b6121d1868361218c565b95508019841693508086168417925050509392505050565b5f819050919050565b5f61220c61220761220284611be1565b6121e9565b611be1565b9050919050565b5f819050919050565b612225836121f2565b61223961223182612213565b848454612198565b825550505050565b5f5f905090565b612250612241565b61225b81848461221c565b505050565b5b8181101561227e576122735f82612248565b600181019050612261565b5050565b601f8211156122c3576122948161216b565b61229d8461217d565b810160208510156122ac578190505b6122c06122b88561217d565b830182612260565b50505b505050565b5f82821c905092915050565b5f6122e35f19846008026122c8565b1980831691505092915050565b5f6122fb83836122d4565b9150826002028217905092915050565b61231482611b51565b67ffffffffffffffff81111561232d5761232c611de8565b5b6123378254612106565b612342828285612282565b5f60209050601f831160018114612373575f8415612361578287015190505b61236b85826122f0565b8655506123d2565b601f1984166123818661216b565b5f5b828110156123a857848901518255600182019150602085019450602081019050612383565b868310156123c557848901516123c1601f8916826122d4565b8355505b6001600288020188555050505b505050505050565b5f81905092915050565b5f6123ee82611b51565b6123f881856123da565b9350612408818560208601611b6b565b80840191505092915050565b5f61241f82856123e4565b915061242b82846123e4565b91508190509392505050565b5f81519050919050565b5f82825260208201905092915050565b5f61245b82612437565b6124658185612441565b9350612475818560208601611b6b565b61247e81611b79565b840191505092915050565b5f60808201905061249c5f830187611c6f565b6124a96020830186611c6f565b6124b66040830185611cff565b81810360608301526124c88184612451565b905095945050505050565b5f815190506124e181611ac9565b92915050565b5f602082840312156124fc576124fb611a96565b5b5f612509848285016124d3565b91505092915050565b7f4e487b71000000000000000000000000000000000000000000000000000000005f52601260045260245ffd5b5f6040820190506125525f830185611c6f565b61255f6020830184611cff565b9392505050565b7f4e487b71000000000000000000000000000000000000000000000000000000005f52605160045260245ffdfea26469706673582212205ee2423304dab02cc195639b00dbc4a5ce77cd4ec283d1c0a7fae10bbeb7e49664736f6c634300081d0033",
			"opcodes": "PUSH1 0x80 PUSH1 0x40 MSTORE CALLVALUE DUP1 ISZERO PUSH2 0xF JUMPI PUSH0 PUSH0 REVERT JUMPDEST POP PUSH1 0x40 MLOAD PUSH2 0x2CAE CODESIZE SUB DUP1 PUSH2 0x2CAE DUP4 CODECOPY DUP2 DUP2 ADD PUSH1 0x40 MSTORE DUP2 ADD SWAP1 PUSH2 0x31 SWAP2 SWAP1 PUSH2 0x2FD JUMP JUMPDEST CALLER DUP4 DUP4 DUP2 PUSH0 SWAP1 DUP2 PUSH2 0x42 SWAP2 SWAP1 PUSH2 0x5B1 JUMP JUMPDEST POP DUP1 PUSH1 0x1 SWAP1 DUP2 PUSH2 0x52 SWAP2 SWAP1 PUSH2 0x5B1 JUMP JUMPDEST POP POP POP PUSH0 PUSH20 0xFFFFFFFFFFFFFFFFFFFFFFFFFFFFFFFFFFFFFFFF AND DUP2 PUSH20 0xFFFFFFFFFFFFFFFFFFFFFFFFFFFFFFFFFFFFFFFF AND SUB PUSH2 0xC5 JUMPI PUSH0 PUSH1 0x40 MLOAD PUSH32 0x1E4FBDF700000000000000000000000000000000000000000000000000000000 DUP2 MSTORE PUSH1 0x4 ADD PUSH2 0xBC SWAP2 SWAP1 PUSH2 0x6BF JUMP JUMPDEST PUSH1 0x40 MLOAD DUP1 SWAP2 SUB SWAP1 REVERT JUMPDEST PUSH2 0xD4 DUP2 PUSH2 0xED PUSH1 0x20 SHL PUSH1 0x20 SHR JUMP JUMPDEST POP DUP1 PUSH1 0x7 SWAP1 DUP2 PUSH2 0xE4 SWAP2 SWAP1 PUSH2 0x5B1 JUMP JUMPDEST POP POP POP POP PUSH2 0x6D8 JUMP JUMPDEST PUSH0 PUSH1 0x6 PUSH0 SWAP1 SLOAD SWAP1 PUSH2 0x100 EXP SWAP1 DIV PUSH20 0xFFFFFFFFFFFFFFFFFFFFFFFFFFFFFFFFFFFFFFFF AND SWAP1 POP DUP2 PUSH1 0x6 PUSH0 PUSH2 0x100 EXP DUP2 SLOAD DUP2 PUSH20 0xFFFFFFFFFFFFFFFFFFFFFFFFFFFFFFFFFFFFFFFF MUL NOT AND SWAP1 DUP4 PUSH20 0xFFFFFFFFFFFFFFFFFFFFFFFFFFFFFFFFFFFFFFFF AND MUL OR SWAP1 SSTORE POP DUP2 PUSH20 0xFFFFFFFFFFFFFFFFFFFFFFFFFFFFFFFFFFFFFFFF AND DUP2 PUSH20 0xFFFFFFFFFFFFFFFFFFFFFFFFFFFFFFFFFFFFFFFF AND PUSH32 0x8BE0079C531659141344CD1FD0A4F28419497F9722A3DAAFE3B4186F6B6457E0 PUSH1 0x40 MLOAD PUSH1 0x40 MLOAD DUP1 SWAP2 SUB SWAP1 LOG3 POP POP JUMP JUMPDEST PUSH0 PUSH1 0x40 MLOAD SWAP1 POP SWAP1 JUMP JUMPDEST PUSH0 PUSH0 REVERT JUMPDEST PUSH0 PUSH0 REVERT JUMPDEST PUSH0 PUSH0 REVERT JUMPDEST PUSH0 PUSH0 REVERT JUMPDEST PUSH0 PUSH1 0x1F NOT PUSH1 0x1F DUP4 ADD AND SWAP1 POP SWAP2 SWAP1 POP JUMP JUMPDEST PUSH32 0x4E487B7100000000000000000000000000000000000000000000000000000000 PUSH0 MSTORE PUSH1 0x41 PUSH1 0x4 MSTORE PUSH1 0x24 PUSH0 REVERT JUMPDEST PUSH2 0x20F DUP3 PUSH2 0x1C9 JUMP JUMPDEST DUP2 ADD DUP2 DUP2 LT PUSH8 0xFFFFFFFFFFFFFFFF DUP3 GT OR ISZERO PUSH2 0x22E JUMPI PUSH2 0x22D PUSH2 0x1D9 JUMP JUMPDEST JUMPDEST DUP1 PUSH1 0x40 MSTORE POP POP POP JUMP JUMPDEST PUSH0 PUSH2 0x240 PUSH2 0x1B0 JUMP JUMPDEST SWAP1 POP PUSH2 0x24C DUP3 DUP3 PUSH2 0x206 JUMP JUMPDEST SWAP2 SWAP1 POP JUMP JUMPDEST PUSH0 PUSH8 0xFFFFFFFFFFFFFFFF DUP3 GT ISZERO PUSH2 0x26B JUMPI PUSH2 0x26A PUSH2 0x1D9 JUMP JUMPDEST JUMPDEST PUSH2 0x274 DUP3 PUSH2 0x1C9 JUMP JUMPDEST SWAP1 POP PUSH1 0x20 DUP2 ADD SWAP1 POP SWAP2 SWAP1 POP JUMP JUMPDEST DUP3 DUP2 DUP4 MCOPY PUSH0 DUP4 DUP4 ADD MSTORE POP POP POP JUMP JUMPDEST PUSH0 PUSH2 0x2A1 PUSH2 0x29C DUP5 PUSH2 0x251 JUMP JUMPDEST PUSH2 0x237 JUMP JUMPDEST SWAP1 POP DUP3 DUP2 MSTORE PUSH1 0x20 DUP2 ADD DUP5 DUP5 DUP5 ADD GT ISZERO PUSH2 0x2BD JUMPI PUSH2 0x2BC PUSH2 0x1C5 JUMP JUMPDEST JUMPDEST PUSH2 0x2C8 DUP5 DUP3 DUP6 PUSH2 0x281 JUMP JUMPDEST POP SWAP4 SWAP3 POP POP POP JUMP JUMPDEST PUSH0 DUP3 PUSH1 0x1F DUP4 ADD SLT PUSH2 0x2E4 JUMPI PUSH2 0x2E3 PUSH2 0x1C1 JUMP JUMPDEST JUMPDEST DUP2 MLOAD PUSH2 0x2F4 DUP5 DUP3 PUSH1 0x20 DUP7 ADD PUSH2 0x28F JUMP JUMPDEST SWAP2 POP POP SWAP3 SWAP2 POP POP JUMP JUMPDEST PUSH0 PUSH0 PUSH0 PUSH1 0x60 DUP5 DUP7 SUB SLT ISZERO PUSH2 0x314 JUMPI PUSH2 0x313 PUSH2 0x1B9 JUMP JUMPDEST JUMPDEST PUSH0 DUP5 ADD MLOAD PUSH8 0xFFFFFFFFFFFFFFFF DUP2 GT ISZERO PUSH2 0x331 JUMPI PUSH2 0x330 PUSH2 0x1BD JUMP JUMPDEST JUMPDEST PUSH2 0x33D DUP7 DUP3 DUP8 ADD PUSH2 0x2D0 JUMP JUMPDEST SWAP4 POP POP PUSH1 0x20 DUP5 ADD MLOAD PUSH8 0xFFFFFFFFFFFFFFFF DUP2 GT ISZERO PUSH2 0x35E JUMPI PUSH2 0x35D PUSH2 0x1BD JUMP JUMPDEST JUMPDEST PUSH2 0x36A DUP7 DUP3 DUP8 ADD PUSH2 0x2D0 JUMP JUMPDEST SWAP3 POP POP PUSH1 0x40 DUP5 ADD MLOAD PUSH8 0xFFFFFFFFFFFFFFFF DUP2 GT ISZERO PUSH2 0x38B JUMPI PUSH2 0x38A PUSH2 0x1BD JUMP JUMPDEST JUMPDEST PUSH2 0x397 DUP7 DUP3 DUP8 ADD PUSH2 0x2D0 JUMP JUMPDEST SWAP2 POP POP SWAP3 POP SWAP3 POP SWAP3 JUMP JUMPDEST PUSH0 DUP2 MLOAD SWAP1 POP SWAP2 SWAP1 POP JUMP JUMPDEST PUSH32 0x4E487B7100000000000000000000000000000000000000000000000000000000 PUSH0 MSTORE PUSH1 0x22 PUSH1 0x4 MSTORE PUSH1 0x24 PUSH0 REVERT JUMPDEST PUSH0 PUSH1 0x2 DUP3 DIV SWAP1 POP PUSH1 0x1 DUP3 AND DUP1 PUSH2 0x3EF JUMPI PUSH1 0x7F DUP3 AND SWAP2 POP JUMPDEST PUSH1 0x20 DUP3 LT DUP2 SUB PUSH2 0x402 JUMPI PUSH2 0x401 PUSH2 0x3AB JUMP JUMPDEST JUMPDEST POP SWAP2 SWAP1 POP JUMP JUMPDEST PUSH0 DUP2 SWAP1 POP DUP2 PUSH0 MSTORE PUSH1 0x20 PUSH0 KECCAK256 SWAP1 POP SWAP2 SWAP1 POP JUMP JUMPDEST PUSH0 PUSH1 0x20 PUSH1 0x1F DUP4 ADD DIV SWAP1 POP SWAP2 SWAP1 POP JUMP JUMPDEST PUSH0 DUP3 DUP3 SHL SWAP1 POP SWAP3 SWAP2 POP POP JUMP JUMPDEST PUSH0 PUSH1 0x8 DUP4 MUL PUSH2 0x464 PUSH32 0xFFFFFFFFFFFFFFFFFFFFFFFFFFFFFFFFFFFFFFFFFFFFFFFFFFFFFFFFFFFFFFFF DUP3 PUSH2 0x429 JUMP JUMPDEST PUSH2 0x46E DUP7 DUP4 PUSH2 0x429 JUMP JUMPDEST SWAP6 POP DUP1 NOT DUP5 AND SWAP4 POP DUP1 DUP7 AND DUP5 OR SWAP3 POP POP POP SWAP4 SWAP3 POP POP POP JUMP JUMPDEST PUSH0 DUP2 SWAP1 POP SWAP2 SWAP1 POP JUMP JUMPDEST PUSH0 DUP2 SWAP1 POP SWAP2 SWAP1 POP JUMP JUMPDEST PUSH0 PUSH2 0x4B2 PUSH2 0x4AD PUSH2 0x4A8 DUP5 PUSH2 0x486 JUMP JUMPDEST PUSH2 0x48F JUMP JUMPDEST PUSH2 0x486 JUMP JUMPDEST SWAP1 POP SWAP2 SWAP1 POP JUMP JUMPDEST PUSH0 DUP2 SWAP1 POP SWAP2 SWAP1 POP JUMP JUMPDEST PUSH2 0x4CB DUP4 PUSH2 0x498 JUMP JUMPDEST PUSH2 0x4DF PUSH2 0x4D7 DUP3 PUSH2 0x4B9 JUMP JUMPDEST DUP5 DUP5 SLOAD PUSH2 0x435 JUMP JUMPDEST DUP3 SSTORE POP POP POP POP JUMP JUMPDEST PUSH0 PUSH0 SWAP1 POP SWAP1 JUMP JUMPDEST PUSH2 0x4F6 PUSH2 0x4E7 JUMP JUMPDEST PUSH2 0x501 DUP2 DUP5 DUP5 PUSH2 0x4C2 JUMP JUMPDEST POP POP POP JUMP JUMPDEST JUMPDEST DUP2 DUP2 LT ISZERO PUSH2 0x524 JUMPI PUSH2 0x519 PUSH0 DUP3 PUSH2 0x4EE JUMP JUMPDEST PUSH1 0x1 DUP2 ADD SWAP1 POP PUSH2 0x507 JUMP JUMPDEST POP POP JUMP JUMPDEST PUSH1 0x1F DUP3 GT ISZERO PUSH2 0x569 JUMPI PUSH2 0x53A DUP2 PUSH2 0x408 JUMP JUMPDEST PUSH2 0x543 DUP5 PUSH2 0x41A JUMP JUMPDEST DUP2 ADD PUSH1 0x20 DUP6 LT ISZERO PUSH2 0x552 JUMPI DUP2 SWAP1 POP JUMPDEST PUSH2 0x566 PUSH2 0x55E DUP6 PUSH2 0x41A JUMP JUMPDEST DUP4 ADD DUP3 PUSH2 0x506 JUMP JUMPDEST POP POP JUMPDEST POP POP POP JUMP JUMPDEST PUSH0 DUP3 DUP3 SHR SWAP1 POP SWAP3 SWAP2 POP POP JUMP JUMPDEST PUSH0 PUSH2 0x589 PUSH0 NOT DUP5 PUSH1 0x8 MUL PUSH2 0x56E JUMP JUMPDEST NOT DUP1 DUP4 AND SWAP2 POP POP SWAP3 SWAP2 POP POP JUMP JUMPDEST PUSH0 PUSH2 0x5A1 DUP4 DUP4 PUSH2 0x57A JUMP JUMPDEST SWAP2 POP DUP3 PUSH1 0x2 MUL DUP3 OR SWAP1 POP SWAP3 SWAP2 POP POP JUMP JUMPDEST PUSH2 0x5BA DUP3 PUSH2 0x3A1 JUMP JUMPDEST PUSH8 0xFFFFFFFFFFFFFFFF DUP2 GT ISZERO PUSH2 0x5D3 JUMPI PUSH2 0x5D2 PUSH2 0x1D9 JUMP JUMPDEST JUMPDEST PUSH2 0x5DD DUP3 SLOAD PUSH2 0x3D8 JUMP JUMPDEST PUSH2 0x5E8 DUP3 DUP3 DUP6 PUSH2 0x528 JUMP JUMPDEST PUSH0 PUSH1 0x20 SWAP1 POP PUSH1 0x1F DUP4 GT PUSH1 0x1 DUP2 EQ PUSH2 0x619 JUMPI PUSH0 DUP5 ISZERO PUSH2 0x607 JUMPI DUP3 DUP8 ADD MLOAD SWAP1 POP JUMPDEST PUSH2 0x611 DUP6 DUP3 PUSH2 0x596 JUMP JUMPDEST DUP7 SSTORE POP PUSH2 0x678 JUMP JUMPDEST PUSH1 0x1F NOT DUP5 AND PUSH2 0x627 DUP7 PUSH2 0x408 JUMP JUMPDEST PUSH0 JUMPDEST DUP3 DUP2 LT ISZERO PUSH2 0x64E JUMPI DUP5 DUP10 ADD MLOAD DUP3 SSTORE PUSH1 0x1 DUP3 ADD SWAP2 POP PUSH1 0x20 DUP6 ADD SWAP5 POP PUSH1 0x20 DUP2 ADD SWAP1 POP PUSH2 0x629 JUMP JUMPDEST DUP7 DUP4 LT ISZERO PUSH2 0x66B JUMPI DUP5 DUP10 ADD MLOAD PUSH2 0x667 PUSH1 0x1F DUP10 AND DUP3 PUSH2 0x57A JUMP JUMPDEST DUP4 SSTORE POP JUMPDEST PUSH1 0x1 PUSH1 0x2 DUP9 MUL ADD DUP9 SSTORE POP POP POP JUMPDEST POP POP POP POP POP POP JUMP JUMPDEST PUSH0 PUSH20 0xFFFFFFFFFFFFFFFFFFFFFFFFFFFFFFFFFFFFFFFF DUP3 AND SWAP1 POP SWAP2 SWAP1 POP JUMP JUMPDEST PUSH0 PUSH2 0x6A9 DUP3 PUSH2 0x680 JUMP JUMPDEST SWAP1 POP SWAP2 SWAP1 POP JUMP JUMPDEST PUSH2 0x6B9 DUP2 PUSH2 0x69F JUMP JUMPDEST DUP3 MSTORE POP POP JUMP JUMPDEST PUSH0 PUSH1 0x20 DUP3 ADD SWAP1 POP PUSH2 0x6D2 PUSH0 DUP4 ADD DUP5 PUSH2 0x6B0 JUMP JUMPDEST SWAP3 SWAP2 POP POP JUMP JUMPDEST PUSH2 0x25C9 DUP1 PUSH2 0x6E5 PUSH0 CODECOPY PUSH0 RETURN INVALID PUSH1 0x80 PUSH1 0x40 MSTORE CALLVALUE DUP1 ISZERO PUSH2 0xF JUMPI PUSH0 PUSH0 REVERT JUMPDEST POP PUSH1 0x4 CALLDATASIZE LT PUSH2 0x135 JUMPI PUSH0 CALLDATALOAD PUSH1 0xE0 SHR DUP1 PUSH4 0x6352211E GT PUSH2 0xB6 JUMPI DUP1 PUSH4 0xA22CB465 GT PUSH2 0x7A JUMPI DUP1 PUSH4 0xA22CB465 EQ PUSH2 0x323 JUMPI DUP1 PUSH4 0xB88D4FDE EQ PUSH2 0x33F JUMPI DUP1 PUSH4 0xC395C8AF EQ PUSH2 0x35B JUMPI DUP1 PUSH4 0xC87B56DD EQ PUSH2 0x379 JUMPI DUP1 PUSH4 0xE985E9C5 EQ PUSH2 0x3A9 JUMPI DUP1 PUSH4 0xF2FDE38B EQ PUSH2 0x3D9 JUMPI PUSH2 0x135 JUMP JUMPDEST DUP1 PUSH4 0x6352211E EQ PUSH2 0x27D JUMPI DUP1 PUSH4 0x70A08231 EQ PUSH2 0x2AD JUMPI DUP1 PUSH4 0x715018A6 EQ PUSH2 0x2DD JUMPI DUP1 PUSH4 0x8DA5CB5B EQ PUSH2 0x2E7 JUMPI DUP1 PUSH4 0x95D89B41 EQ PUSH2 0x305 JUMPI PUSH2 0x135 JUMP JUMPDEST DUP1 PUSH4 0x23B872DD GT PUSH2 0xFD JUMPI DUP1 PUSH4 0x23B872DD EQ PUSH2 0x1F1 JUMPI DUP1 PUSH4 0x42842E0E EQ PUSH2 0x20D JUMPI DUP1 PUSH4 0x48AE238F EQ PUSH2 0x229 JUMPI DUP1 PUSH4 0x54BA0F27 EQ PUSH2 0x245 JUMPI DUP1 PUSH4 0x55F804B3 EQ PUSH2 0x261 JUMPI PUSH2 0x135 JUMP JUMPDEST DUP1 PUSH4 0x1FFC9A7 EQ PUSH2 0x139 JUMPI DUP1 PUSH4 0x6FDDE03 EQ PUSH2 0x169 JUMPI DUP1 PUSH4 0x81812FC EQ PUSH2 0x187 JUMPI DUP1 PUSH4 0x95EA7B3 EQ PUSH2 0x1B7 JUMPI DUP1 PUSH4 0x12065FE0 EQ PUSH2 0x1D3 JUMPI JUMPDEST PUSH0 PUSH0 REVERT JUMPDEST PUSH2 0x153 PUSH1 0x4 DUP1 CALLDATASIZE SUB DUP2 ADD SWAP1 PUSH2 0x14E SWAP2 SWAP1 PUSH2 0x1AF3 JUMP JUMPDEST PUSH2 0x3F5 JUMP JUMPDEST PUSH1 0x40 MLOAD PUSH2 0x160 SWAP2 SWAP1 PUSH2 0x1B38 JUMP JUMPDEST PUSH1 0x40 MLOAD DUP1 SWAP2 SUB SWAP1 RETURN JUMPDEST PUSH2 0x171 PUSH2 0x4D6 JUMP JUMPDEST PUSH1 0x40 MLOAD PUSH2 0x17E SWAP2 SWAP1 PUSH2 0x1BC1 JUMP JUMPDEST PUSH1 0x40 MLOAD DUP1 SWAP2 SUB SWAP1 RETURN JUMPDEST PUSH2 0x1A1 PUSH1 0x4 DUP1 CALLDATASIZE SUB DUP2 ADD SWAP1 PUSH2 0x19C SWAP2 SWAP1 PUSH2 0x1C14 JUMP JUMPDEST PUSH2 0x565 JUMP JUMPDEST PUSH1 0x40 MLOAD PUSH2 0x1AE SWAP2 SWAP1 PUSH2 0x1C7E JUMP JUMPDEST PUSH1 0x40 MLOAD DUP1 SWAP2 SUB SWAP1 RETURN JUMPDEST PUSH2 0x1D1 PUSH1 0x4 DUP1 CALLDATASIZE SUB DUP2 ADD SWAP1 PUSH2 0x1CC SWAP2 SWAP1 PUSH2 0x1CC1 JUMP JUMPDEST PUSH2 0x580 JUMP JUMPDEST STOP JUMPDEST PUSH2 0x1DB PUSH2 0x596 JUMP JUMPDEST PUSH1 0x40 MLOAD PUSH2 0x1E8 SWAP2 SWAP1 PUSH2 0x1D0E JUMP JUMPDEST PUSH1 0x40 MLOAD DUP1 SWAP2 SUB SWAP1 RETURN JUMPDEST PUSH2 0x20B PUSH1 0x4 DUP1 CALLDATASIZE SUB DUP2 ADD SWAP1 PUSH2 0x206 SWAP2 SWAP1 PUSH2 0x1D27 JUMP JUMPDEST PUSH2 0x5A5 JUMP JUMPDEST STOP JUMPDEST PUSH2 0x227 PUSH1 0x4 DUP1 CALLDATASIZE SUB DUP2 ADD SWAP1 PUSH2 0x222 SWAP2 SWAP1 PUSH2 0x1D27 JUMP JUMPDEST PUSH2 0x6A4 JUMP JUMPDEST STOP JUMPDEST PUSH2 0x243 PUSH1 0x4 DUP1 CALLDATASIZE SUB DUP2 ADD SWAP1 PUSH2 0x23E SWAP2 SWAP1 PUSH2 0x1D77 JUMP JUMPDEST PUSH2 0x6C3 JUMP JUMPDEST STOP JUMPDEST PUSH2 0x25F PUSH1 0x4 DUP1 CALLDATASIZE SUB DUP2 ADD SWAP1 PUSH2 0x25A SWAP2 SWAP1 PUSH2 0x1DB5 JUMP JUMPDEST PUSH2 0x6D3 JUMP JUMPDEST STOP JUMPDEST PUSH2 0x27B PUSH1 0x4 DUP1 CALLDATASIZE SUB DUP2 ADD SWAP1 PUSH2 0x276 SWAP2 SWAP1 PUSH2 0x1F0C JUMP JUMPDEST PUSH2 0x6F2 JUMP JUMPDEST STOP JUMPDEST PUSH2 0x297 PUSH1 0x4 DUP1 CALLDATASIZE SUB DUP2 ADD SWAP1 PUSH2 0x292 SWAP2 SWAP1 PUSH2 0x1C14 JUMP JUMPDEST PUSH2 0x70D JUMP JUMPDEST PUSH1 0x40 MLOAD PUSH2 0x2A4 SWAP2 SWAP1 PUSH2 0x1C7E JUMP JUMPDEST PUSH1 0x40 MLOAD DUP1 SWAP2 SUB SWAP1 RETURN JUMPDEST PUSH2 0x2C7 PUSH1 0x4 DUP1 CALLDATASIZE SUB DUP2 ADD SWAP1 PUSH2 0x2C2 SWAP2 SWAP1 PUSH2 0x1DB5 JUMP JUMPDEST PUSH2 0x71E JUMP JUMPDEST PUSH1 0x40 MLOAD PUSH2 0x2D4 SWAP2 SWAP1 PUSH2 0x1D0E JUMP JUMPDEST PUSH1 0x40 MLOAD DUP1 SWAP2 SUB SWAP1 RETURN JUMPDEST PUSH2 0x2E5 PUSH2 0x7D4 JUMP JUMPDEST STOP JUMPDEST PUSH2 0x2EF PUSH2 0x7E7 JUMP JUMPDEST PUSH1 0x40 MLOAD PUSH2 0x2FC SWAP2 SWAP1 PUSH2 0x1C7E JUMP JUMPDEST PUSH1 0x40 MLOAD DUP1 SWAP2 SUB SWAP1 RETURN JUMPDEST PUSH2 0x30D PUSH2 0x80F JUMP JUMPDEST PUSH1 0x40 MLOAD PUSH2 0x31A SWAP2 SWAP1 PUSH2 0x1BC1 JUMP JUMPDEST PUSH1 0x40 MLOAD DUP1 SWAP2 SUB SWAP1 RETURN JUMPDEST PUSH2 0x33D PUSH1 0x4 DUP1 CALLDATASIZE SUB DUP2 ADD SWAP1 PUSH2 0x338 SWAP2 SWAP1 PUSH2 0x1F7D JUMP JUMPDEST PUSH2 0x89F JUMP JUMPDEST STOP JUMPDEST PUSH2 0x359 PUSH1 0x4 DUP1 CALLDATASIZE SUB DUP2 ADD SWAP1 PUSH2 0x354 SWAP2 SWAP1 PUSH2 0x2059 JUMP JUMPDEST PUSH2 0x8B5 JUMP JUMPDEST STOP JUMPDEST PUSH2 0x363 PUSH2 0x8DA JUMP JUMPDEST PUSH1 0x40 MLOAD PUSH2 0x370 SWAP2 SWAP1 PUSH2 0x1BC1 JUMP JUMPDEST PUSH1 0x40 MLOAD DUP1 SWAP2 SUB SWAP1 RETURN JUMPDEST PUSH2 0x393 PUSH1 0x4 DUP1 CALLDATASIZE SUB DUP2 ADD SWAP1 PUSH2 0x38E SWAP2 SWAP1 PUSH2 0x1C14 JUMP JUMPDEST PUSH2 0x96A JUMP JUMPDEST PUSH1 0x40 MLOAD PUSH2 0x3A0 SWAP2 SWAP1 PUSH2 0x1BC1 JUMP JUMPDEST PUSH1 0x40 MLOAD DUP1 SWAP2 SUB SWAP1 RETURN JUMPDEST PUSH2 0x3C3 PUSH1 0x4 DUP1 CALLDATASIZE SUB DUP2 ADD SWAP1 PUSH2 0x3BE SWAP2 SWAP1 PUSH2 0x1D77 JUMP JUMPDEST PUSH2 0x9D0 JUMP JUMPDEST PUSH1 0x40 MLOAD PUSH2 0x3D0 SWAP2 SWAP1 PUSH2 0x1B38 JUMP JUMPDEST PUSH1 0x40 MLOAD DUP1 SWAP2 SUB SWAP1 RETURN JUMPDEST PUSH2 0x3F3 PUSH1 0x4 DUP1 CALLDATASIZE SUB DUP2 ADD SWAP1 PUSH2 0x3EE SWAP2 SWAP1 PUSH2 0x1DB5 JUMP JUMPDEST PUSH2 0xA5E JUMP JUMPDEST STOP JUMPDEST PUSH0 PUSH32 0x80AC58CD00000000000000000000000000000000000000000000000000000000 PUSH28 0xFFFFFFFFFFFFFFFFFFFFFFFFFFFFFFFFFFFFFFFFFFFFFFFFFFFFFFFF NOT AND DUP3 PUSH28 0xFFFFFFFFFFFFFFFFFFFFFFFFFFFFFFFFFFFFFFFFFFFFFFFFFFFFFFFF NOT AND EQ DUP1 PUSH2 0x4BF JUMPI POP PUSH32 0x5B5E139F00000000000000000000000000000000000000000000000000000000 PUSH28 0xFFFFFFFFFFFFFFFFFFFFFFFFFFFFFFFFFFFFFFFFFFFFFFFFFFFFFFFF NOT AND DUP3 PUSH28 0xFFFFFFFFFFFFFFFFFFFFFFFFFFFFFFFFFFFFFFFFFFFFFFFFFFFFFFFF NOT AND EQ JUMPDEST DUP1 PUSH2 0x4CF JUMPI POP PUSH2 0x4CE DUP3 PUSH2 0xAE2 JUMP JUMPDEST JUMPDEST SWAP1 POP SWAP2 SWAP1 POP JUMP JUMPDEST PUSH1 0x60 PUSH0 DUP1 SLOAD PUSH2 0x4E4 SWAP1 PUSH2 0x2106 JUMP JUMPDEST DUP1 PUSH1 0x1F ADD PUSH1 0x20 DUP1 SWAP2 DIV MUL PUSH1 0x20 ADD PUSH1 0x40 MLOAD SWAP1 DUP2 ADD PUSH1 0x40 MSTORE DUP1 SWAP3 SWAP2 SWAP1 DUP2 DUP2 MSTORE PUSH1 0x20 ADD DUP3 DUP1 SLOAD PUSH2 0x510 SWAP1 PUSH2 0x2106 JUMP JUMPDEST DUP1 ISZERO PUSH2 0x55B JUMPI DUP1 PUSH1 0x1F LT PUSH2 0x532 JUMPI PUSH2 0x100 DUP1 DUP4 SLOAD DIV MUL DUP4 MSTORE SWAP2 PUSH1 0x20 ADD SWAP2 PUSH2 0x55B JUMP JUMPDEST DUP3 ADD SWAP2 SWAP1 PUSH0 MSTORE PUSH1 0x20 PUSH0 KECCAK256 SWAP1 JUMPDEST DUP2 SLOAD DUP2 MSTORE SWAP1 PUSH1 0x1 ADD SWAP1 PUSH1 0x20 ADD DUP1 DUP4 GT PUSH2 0x53E JUMPI DUP3 SWAP1 SUB PUSH1 0x1F AND DUP3 ADD SWAP2 JUMPDEST POP POP POP POP POP SWAP1 POP SWAP1 JUMP JUMPDEST PUSH0 PUSH2 0x56F DUP3 PUSH2 0xB4B JUMP JUMPDEST POP PUSH2 0x579 DUP3 PUSH2 0xBD1 JUMP JUMPDEST SWAP1 POP SWAP2 SWAP1 POP JUMP JUMPDEST PUSH2 0x592 DUP3 DUP3 PUSH2 0x58D PUSH2 0xC0A JUMP JUMPDEST PUSH2 0xC11 JUMP JUMPDEST POP POP JUMP JUMPDEST PUSH0 PUSH2 0x5A0 CALLER PUSH2 0x71E JUMP JUMPDEST SWAP1 POP SWAP1 JUMP JUMPDEST PUSH0 PUSH20 0xFFFFFFFFFFFFFFFFFFFFFFFFFFFFFFFFFFFFFFFF AND DUP3 PUSH20 0xFFFFFFFFFFFFFFFFFFFFFFFFFFFFFFFFFFFFFFFF AND SUB PUSH2 0x615 JUMPI PUSH0 PUSH1 0x40 MLOAD PUSH32 0x64A0AE9200000000000000000000000000000000000000000000000000000000 DUP2 MSTORE PUSH1 0x4 ADD PUSH2 0x60C SWAP2 SWAP1 PUSH2 0x1C7E JUMP JUMPDEST PUSH1 0x40 MLOAD DUP1 SWAP2 SUB SWAP1 REVERT JUMPDEST PUSH0 PUSH2 0x628 DUP4 DUP4 PUSH2 0x623 PUSH2 0xC0A JUMP JUMPDEST PUSH2 0xC23 JUMP JUMPDEST SWAP1 POP DUP4 PUSH20 0xFFFFFFFFFFFFFFFFFFFFFFFFFFFFFFFFFFFFFFFF AND DUP2 PUSH20 0xFFFFFFFFFFFFFFFFFFFFFFFFFFFFFFFFFFFFFFFF AND EQ PUSH2 0x69E JUMPI DUP4 DUP3 DUP3 PUSH1 0x40 MLOAD PUSH32 0x64283D7B00000000000000000000000000000000000000000000000000000000 DUP2 MSTORE PUSH1 0x4 ADD PUSH2 0x695 SWAP4 SWAP3 SWAP2 SWAP1 PUSH2 0x2136 JUMP JUMPDEST PUSH1 0x40 MLOAD DUP1 SWAP2 SUB SWAP1 REVERT JUMPDEST POP POP POP POP JUMP JUMPDEST PUSH2 0x6BE DUP4 DUP4 DUP4 PUSH1 0x40 MLOAD DUP1 PUSH1 0x20 ADD PUSH1 0x40 MSTORE DUP1 PUSH0 DUP2 MSTORE POP PUSH2 0x8B5 JUMP JUMPDEST POP POP POP JUMP JUMPDEST PUSH2 0x6CF DUP3 DUP3 PUSH1 0x1 PUSH2 0x5A5 JUMP JUMPDEST POP POP JUMP JUMPDEST PUSH2 0x6DB PUSH2 0xE2E JUMP JUMPDEST PUSH2 0x6E4 DUP2 PUSH2 0xEB5 JUMP JUMPDEST PUSH2 0x6EF DUP2 PUSH1 0x1 PUSH2 0xF4E JUMP JUMPDEST POP JUMP JUMPDEST PUSH2 0x6FA PUSH2 0xE2E JUMP JUMPDEST DUP1 PUSH1 0x7 SWAP1 DUP2 PUSH2 0x709 SWAP2 SWAP1 PUSH2 0x230B JUMP JUMPDEST POP POP JUMP JUMPDEST PUSH0 PUSH2 0x717 DUP3 PUSH2 0xB4B JUMP JUMPDEST SWAP1 POP SWAP2 SWAP1 POP JUMP JUMPDEST PUSH0 PUSH0 PUSH20 0xFFFFFFFFFFFFFFFFFFFFFFFFFFFFFFFFFFFFFFFF AND DUP3 PUSH20 0xFFFFFFFFFFFFFFFFFFFFFFFFFFFFFFFFFFFFFFFF AND SUB PUSH2 0x78F JUMPI PUSH0 PUSH1 0x40 MLOAD PUSH32 0x89C62B6400000000000000000000000000000000000000000000000000000000 DUP2 MSTORE PUSH1 0x4 ADD PUSH2 0x786 SWAP2 SWAP1 PUSH2 0x1C7E JUMP JUMPDEST PUSH1 0x40 MLOAD DUP1 SWAP2 SUB SWAP1 REVERT JUMPDEST PUSH1 0x3 PUSH0 DUP4 PUSH20 0xFFFFFFFFFFFFFFFFFFFFFFFFFFFFFFFFFFFFFFFF AND PUSH20 0xFFFFFFFFFFFFFFFFFFFFFFFFFFFFFFFFFFFFFFFF AND DUP2 MSTORE PUSH1 0x20 ADD SWAP1 DUP2 MSTORE PUSH1 0x20 ADD PUSH0 KECCAK256 SLOAD SWAP1 POP SWAP2 SWAP1 POP JUMP JUMPDEST PUSH2 0x7DC PUSH2 0xE2E JUMP JUMPDEST PUSH2 0x7E5 PUSH0 PUSH2 0x1041 JUMP JUMPDEST JUMP JUMPDEST PUSH0 PUSH1 0x6 PUSH0 SWAP1 SLOAD SWAP1 PUSH2 0x100 EXP SWAP1 DIV PUSH20 0xFFFFFFFFFFFFFFFFFFFFFFFFFFFFFFFFFFFFFFFF AND SWAP1 POP SWAP1 JUMP JUMPDEST PUSH1 0x60 PUSH1 0x1 DUP1 SLOAD PUSH2 0x81E SWAP1 PUSH2 0x2106 JUMP JUMPDEST DUP1 PUSH1 0x1F ADD PUSH1 0x20 DUP1 SWAP2 DIV MUL PUSH1 0x20 ADD PUSH1 0x40 MLOAD SWAP1 DUP2 ADD PUSH1 0x40 MSTORE DUP1 SWAP3 SWAP2 SWAP1 DUP2 DUP2 MSTORE PUSH1 0x20 ADD DUP3 DUP1 SLOAD PUSH2 0x84A SWAP1 PUSH2 0x2106 JUMP JUMPDEST DUP1 ISZERO PUSH2 0x895 JUMPI DUP1 PUSH1 0x1F LT PUSH2 0x86C JUMPI PUSH2 0x100 DUP1 DUP4 SLOAD DIV MUL DUP4 MSTORE SWAP2 PUSH1 0x20 ADD SWAP2 PUSH2 0x895 JUMP JUMPDEST DUP3 ADD SWAP2 SWAP1 PUSH0 MSTORE PUSH1 0x20 PUSH0 KECCAK256 SWAP1 JUMPDEST DUP2 SLOAD DUP2 MSTORE SWAP1 PUSH1 0x1 ADD SWAP1 PUSH1 0x20 ADD DUP1 DUP4 GT PUSH2 0x878 JUMPI DUP3 SWAP1 SUB PUSH1 0x1F AND DUP3 ADD SWAP2 JUMPDEST POP POP POP POP POP SWAP1 POP SWAP1 JUMP JUMPDEST PUSH2 0x8B1 PUSH2 0x8AA PUSH2 0xC0A JUMP JUMPDEST DUP4 DUP4 PUSH2 0x1104 JUMP JUMPDEST POP POP JUMP JUMPDEST PUSH2 0x8C0 DUP5 DUP5 DUP5 PUSH2 0x5A5 JUMP JUMPDEST PUSH2 0x8D4 PUSH2 0x8CB PUSH2 0xC0A JUMP JUMPDEST DUP6 DUP6 DUP6 DUP6 PUSH2 0x126D JUMP JUMPDEST POP POP POP POP JUMP JUMPDEST PUSH1 0x60 PUSH1 0x7 DUP1 SLOAD PUSH2 0x8E9 SWAP1 PUSH2 0x2106 JUMP JUMPDEST DUP1 PUSH1 0x1F ADD PUSH1 0x20 DUP1 SWAP2 DIV MUL PUSH1 0x20 ADD PUSH1 0x40 MLOAD SWAP1 DUP2 ADD PUSH1 0x40 MSTORE DUP1 SWAP3 SWAP2 SWAP1 DUP2 DUP2 MSTORE PUSH1 0x20 ADD DUP3 DUP1 SLOAD PUSH2 0x915 SWAP1 PUSH2 0x2106 JUMP JUMPDEST DUP1 ISZERO PUSH2 0x960 JUMPI DUP1 PUSH1 0x1F LT PUSH2 0x937 JUMPI PUSH2 0x100 DUP1 DUP4 SLOAD DIV MUL DUP4 MSTORE SWAP2 PUSH1 0x20 ADD SWAP2 PUSH2 0x960 JUMP JUMPDEST DUP3 ADD SWAP2 SWAP1 PUSH0 MSTORE PUSH1 0x20 PUSH0 KECCAK256 SWAP1 JUMPDEST DUP2 SLOAD DUP2 MSTORE SWAP1 PUSH1 0x1 ADD SWAP1 PUSH1 0x20 ADD DUP1 DUP4 GT PUSH2 0x943 JUMPI DUP3 SWAP1 SUB PUSH1 0x1F AND DUP3 ADD SWAP2 JUMPDEST POP POP POP POP POP SWAP1 POP SWAP1 JUMP JUMPDEST PUSH1 0x60 PUSH2 0x975 DUP3 PUSH2 0xB4B JUMP JUMPDEST POP PUSH0 PUSH2 0x97F PUSH2 0x1419 JUMP JUMPDEST SWAP1 POP PUSH0 DUP2 MLOAD GT PUSH2 0x99D JUMPI PUSH1 0x40 MLOAD DUP1 PUSH1 0x20 ADD PUSH1 0x40 MSTORE DUP1 PUSH0 DUP2 MSTORE POP PUSH2 0x9C8 JUMP JUMPDEST DUP1 PUSH2 0x9A7 DUP5 PUSH2 0x14A9 JUMP JUMPDEST PUSH1 0x40 MLOAD PUSH1 0x20 ADD PUSH2 0x9B8 SWAP3 SWAP2 SWAP1 PUSH2 0x2414 JUMP JUMPDEST PUSH1 0x40 MLOAD PUSH1 0x20 DUP2 DUP4 SUB SUB DUP2 MSTORE SWAP1 PUSH1 0x40 MSTORE JUMPDEST SWAP2 POP POP SWAP2 SWAP1 POP JUMP JUMPDEST PUSH0 PUSH1 0x5 PUSH0 DUP5 PUSH20 0xFFFFFFFFFFFFFFFFFFFFFFFFFFFFFFFFFFFFFFFF AND PUSH20 0xFFFFFFFFFFFFFFFFFFFFFFFFFFFFFFFFFFFFFFFF AND DUP2 MSTORE PUSH1 0x20 ADD SWAP1 DUP2 MSTORE PUSH1 0x20 ADD PUSH0 KECCAK256 PUSH0 DUP4 PUSH20 0xFFFFFFFFFFFFFFFFFFFFFFFFFFFFFFFFFFFFFFFF AND PUSH20 0xFFFFFFFFFFFFFFFFFFFFFFFFFFFFFFFFFFFFFFFF AND DUP2 MSTORE PUSH1 0x20 ADD SWAP1 DUP2 MSTORE PUSH1 0x20 ADD PUSH0 KECCAK256 PUSH0 SWAP1 SLOAD SWAP1 PUSH2 0x100 EXP SWAP1 DIV PUSH1 0xFF AND SWAP1 POP SWAP3 SWAP2 POP POP JUMP JUMPDEST PUSH2 0xA66 PUSH2 0xE2E JUMP JUMPDEST PUSH0 PUSH20 0xFFFFFFFFFFFFFFFFFFFFFFFFFFFFFFFFFFFFFFFF AND DUP2 PUSH20 0xFFFFFFFFFFFFFFFFFFFFFFFFFFFFFFFFFFFFFFFF AND SUB PUSH2 0xAD6 JUMPI PUSH0 PUSH1 0x40 MLOAD PUSH32 0x1E4FBDF700000000000000000000000000000000000000000000000000000000 DUP2 MSTORE PUSH1 0x4 ADD PUSH2 0xACD SWAP2 SWAP1 PUSH2 0x1C7E JUMP JUMPDEST PUSH1 0x40 MLOAD DUP1 SWAP2 SUB SWAP1 REVERT JUMPDEST PUSH2 0xADF DUP2 PUSH2 0x1041 JUMP JUMPDEST POP JUMP JUMPDEST PUSH0 PUSH32 0x1FFC9A700000000000000000000000000000000000000000000000000000000 PUSH28 0xFFFFFFFFFFFFFFFFFFFFFFFFFFFFFFFFFFFFFFFFFFFFFFFFFFFFFFFF NOT AND DUP3 PUSH28 0xFFFFFFFFFFFFFFFFFFFFFFFFFFFFFFFFFFFFFFFFFFFFFFFFFFFFFFFF NOT AND EQ SWAP1 POP SWAP2 SWAP1 POP JUMP JUMPDEST PUSH0 PUSH0 PUSH2 0xB56 DUP4 PUSH2 0x1573 JUMP JUMPDEST SWAP1 POP PUSH0 PUSH20 0xFFFFFFFFFFFFFFFFFFFFFFFFFFFFFFFFFFFFFFFF AND DUP2 PUSH20 0xFFFFFFFFFFFFFFFFFFFFFFFFFFFFFFFFFFFFFFFF AND SUB PUSH2 0xBC8 JUMPI DUP3 PUSH1 0x40 MLOAD PUSH32 0x7E27328900000000000000000000000000000000000000000000000000000000 DUP2 MSTORE PUSH1 0x4 ADD PUSH2 0xBBF SWAP2 SWAP1 PUSH2 0x1D0E JUMP JUMPDEST PUSH1 0x40 MLOAD DUP1 SWAP2 SUB SWAP1 REVERT JUMPDEST DUP1 SWAP2 POP POP SWAP2 SWAP1 POP JUMP JUMPDEST PUSH0 PUSH1 0x4 PUSH0 DUP4 DUP2 MSTORE PUSH1 0x20 ADD SWAP1 DUP2 MSTORE PUSH1 0x20 ADD PUSH0 KECCAK256 PUSH0 SWAP1 SLOAD SWAP1 PUSH2 0x100 EXP SWAP1 DIV PUSH20 0xFFFFFFFFFFFFFFFFFFFFFFFFFFFFFFFFFFFFFFFF AND SWAP1 POP SWAP2 SWAP1 POP JUMP JUMPDEST PUSH0 CALLER SWAP1 POP SWAP1 JUMP JUMPDEST PUSH2 0xC1E DUP4 DUP4 DUP4 PUSH1 0x1 PUSH2 0x15AC JUMP JUMPDEST POP POP POP JUMP JUMPDEST PUSH0 PUSH0 PUSH2 0xC2E DUP5 PUSH2 0x1573 JUMP JUMPDEST SWAP1 POP PUSH0 PUSH20 0xFFFFFFFFFFFFFFFFFFFFFFFFFFFFFFFFFFFFFFFF AND DUP4 PUSH20 0xFFFFFFFFFFFFFFFFFFFFFFFFFFFFFFFFFFFFFFFF AND EQ PUSH2 0xC6F JUMPI PUSH2 0xC6E DUP2 DUP5 DUP7 PUSH2 0x176B JUMP JUMPDEST JUMPDEST PUSH0 PUSH20 0xFFFFFFFFFFFFFFFFFFFFFFFFFFFFFFFFFFFFFFFF AND DUP2 PUSH20 0xFFFFFFFFFFFFFFFFFFFFFFFFFFFFFFFFFFFFFFFF AND EQ PUSH2 0xCFA JUMPI PUSH2 0xCAE PUSH0 DUP6 PUSH0 PUSH0 PUSH2 0x15AC JUMP JUMPDEST PUSH1 0x1 PUSH1 0x3 PUSH0 DUP4 PUSH20 0xFFFFFFFFFFFFFFFFFFFFFFFFFFFFFFFFFFFFFFFF AND PUSH20 0xFFFFFFFFFFFFFFFFFFFFFFFFFFFFFFFFFFFFFFFF AND DUP2 MSTORE PUSH1 0x20 ADD SWAP1 DUP2 MSTORE PUSH1 0x20 ADD PUSH0 KECCAK256 PUSH0 DUP3 DUP3 SLOAD SUB SWAP3 POP POP DUP2 SWAP1 SSTORE POP JUMPDEST PUSH0 PUSH20 0xFFFFFFFFFFFFFFFFFFFFFFFFFFFFFFFFFFFFFFFF AND DUP6 PUSH20 0xFFFFFFFFFFFFFFFFFFFFFFFFFFFFFFFFFFFFFFFF AND EQ PUSH2 0xD79 JUMPI PUSH1 0x1 PUSH1 0x3 PUSH0 DUP8 PUSH20 0xFFFFFFFFFFFFFFFFFFFFFFFFFFFFFFFFFFFFFFFF AND PUSH20 0xFFFFFFFFFFFFFFFFFFFFFFFFFFFFFFFFFFFFFFFF AND DUP2 MSTORE PUSH1 0x20 ADD SWAP1 DUP2 MSTORE PUSH1 0x20 ADD PUSH0 KECCAK256 PUSH0 DUP3 DUP3 SLOAD ADD SWAP3 POP POP DUP2 SWAP1 SSTORE POP JUMPDEST DUP5 PUSH1 0x2 PUSH0 DUP7 DUP2 MSTORE PUSH1 0x20 ADD SWAP1 DUP2 MSTORE PUSH1 0x20 ADD PUSH0 KECCAK256 PUSH0 PUSH2 0x100 EXP DUP2 SLOAD DUP2 PUSH20 0xFFFFFFFFFFFFFFFFFFFFFFFFFFFFFFFFFFFFFFFF MUL NOT AND SWAP1 DUP4 PUSH20 0xFFFFFFFFFFFFFFFFFFFFFFFFFFFFFFFFFFFFFFFF AND MUL OR SWAP1 SSTORE POP DUP4 DUP6 PUSH20 0xFFFFFFFFFFFFFFFFFFFFFFFFFFFFFFFFFFFFFFFF AND DUP3 PUSH20 0xFFFFFFFFFFFFFFFFFFFFFFFFFFFFFFFFFFFFFFFF AND PUSH32 0xDDF252AD1BE2C89B69C2B068FC378DAA952BA7F163C4A11628F55A4DF523B3EF PUSH1 0x40 MLOAD PUSH1 0x40 MLOAD DUP1 SWAP2 SUB SWAP1 LOG4 DUP1 SWAP2 POP POP SWAP4 SWAP3 POP POP POP JUMP JUMPDEST PUSH2 0xE36 PUSH2 0xC0A JUMP JUMPDEST PUSH20 0xFFFFFFFFFFFFFFFFFFFFFFFFFFFFFFFFFFFFFFFF AND PUSH2 0xE54 PUSH2 0x7E7 JUMP JUMPDEST PUSH20 0xFFFFFFFFFFFFFFFFFFFFFFFFFFFFFFFFFFFFFFFF AND EQ PUSH2 0xEB3 JUMPI PUSH2 0xE77 PUSH2 0xC0A JUMP JUMPDEST PUSH1 0x40 MLOAD PUSH32 0x118CDAA700000000000000000000000000000000000000000000000000000000 DUP2 MSTORE PUSH1 0x4 ADD PUSH2 0xEAA SWAP2 SWAP1 PUSH2 0x1C7E JUMP JUMPDEST PUSH1 0x40 MLOAD DUP1 SWAP2 SUB SWAP1 REVERT JUMPDEST JUMP JUMPDEST PUSH2 0xF4B DUP2 PUSH1 0x40 MLOAD PUSH1 0x24 ADD PUSH2 0xEC9 SWAP2 SWAP1 PUSH2 0x1C7E JUMP JUMPDEST PUSH1 0x40 MLOAD PUSH1 0x20 DUP2 DUP4 SUB SUB DUP2 MSTORE SWAP1 PUSH1 0x40 MSTORE PUSH32 0x2C2ECBC200000000000000000000000000000000000000000000000000000000 PUSH28 0xFFFFFFFFFFFFFFFFFFFFFFFFFFFFFFFFFFFFFFFFFFFFFFFFFFFFFFFF NOT AND PUSH1 0x20 DUP3 ADD DUP1 MLOAD PUSH28 0xFFFFFFFFFFFFFFFFFFFFFFFFFFFFFFFFFFFFFFFFFFFFFFFFFFFFFFFF DUP4 DUP2 DUP4 AND OR DUP4 MSTORE POP POP POP POP PUSH2 0x182E JUMP JUMPDEST POP JUMP JUMPDEST PUSH0 PUSH20 0xFFFFFFFFFFFFFFFFFFFFFFFFFFFFFFFFFFFFFFFF AND DUP3 PUSH20 0xFFFFFFFFFFFFFFFFFFFFFFFFFFFFFFFFFFFFFFFF AND SUB PUSH2 0xFBE JUMPI PUSH0 PUSH1 0x40 MLOAD PUSH32 0x64A0AE9200000000000000000000000000000000000000000000000000000000 DUP2 MSTORE PUSH1 0x4 ADD PUSH2 0xFB5 SWAP2 SWAP1 PUSH2 0x1C7E JUMP JUMPDEST PUSH1 0x40 MLOAD DUP1 SWAP2 SUB SWAP1 REVERT JUMPDEST PUSH0 PUSH2 0xFCA DUP4 DUP4 PUSH0 PUSH2 0xC23 JUMP JUMPDEST SWAP1 POP PUSH0 PUSH20 0xFFFFFFFFFFFFFFFFFFFFFFFFFFFFFFFFFFFFFFFF AND DUP2 PUSH20 0xFFFFFFFFFFFFFFFFFFFFFFFFFFFFFFFFFFFFFFFF AND EQ PUSH2 0x103C JUMPI PUSH0 PUSH1 0x40 MLOAD PUSH32 0x73C6AC6E00000000000000000000000000000000000000000000000000000000 DUP2 MSTORE PUSH1 0x4 ADD PUSH2 0x1033 SWAP2 SWAP1 PUSH2 0x1C7E JUMP JUMPDEST PUSH1 0x40 MLOAD DUP1 SWAP2 SUB SWAP1 REVERT JUMPDEST POP POP POP JUMP JUMPDEST PUSH0 PUSH1 0x6 PUSH0 SWAP1 SLOAD SWAP1 PUSH2 0x100 EXP SWAP1 DIV PUSH20 0xFFFFFFFFFFFFFFFFFFFFFFFFFFFFFFFFFFFFFFFF AND SWAP1 POP DUP2 PUSH1 0x6 PUSH0 PUSH2 0x100 EXP DUP2 SLOAD DUP2 PUSH20 0xFFFFFFFFFFFFFFFFFFFFFFFFFFFFFFFFFFFFFFFF MUL NOT AND SWAP1 DUP4 PUSH20 0xFFFFFFFFFFFFFFFFFFFFFFFFFFFFFFFFFFFFFFFF AND MUL OR SWAP1 SSTORE POP DUP2 PUSH20 0xFFFFFFFFFFFFFFFFFFFFFFFFFFFFFFFFFFFFFFFF AND DUP2 PUSH20 0xFFFFFFFFFFFFFFFFFFFFFFFFFFFFFFFFFFFFFFFF AND PUSH32 0x8BE0079C531659141344CD1FD0A4F28419497F9722A3DAAFE3B4186F6B6457E0 PUSH1 0x40 MLOAD PUSH1 0x40 MLOAD DUP1 SWAP2 SUB SWAP1 LOG3 POP POP JUMP JUMPDEST PUSH0 PUSH20 0xFFFFFFFFFFFFFFFFFFFFFFFFFFFFFFFFFFFFFFFF AND DUP3 PUSH20 0xFFFFFFFFFFFFFFFFFFFFFFFFFFFFFFFFFFFFFFFF AND SUB PUSH2 0x1174 JUMPI DUP2 PUSH1 0x40 MLOAD PUSH32 0x5B08BA1800000000000000000000000000000000000000000000000000000000 DUP2 MSTORE PUSH1 0x4 ADD PUSH2 0x116B SWAP2 SWAP1 PUSH2 0x1C7E JUMP JUMPDEST PUSH1 0x40 MLOAD DUP1 SWAP2 SUB SWAP1 REVERT JUMPDEST DUP1 PUSH1 0x5 PUSH0 DUP6 PUSH20 0xFFFFFFFFFFFFFFFFFFFFFFFFFFFFFFFFFFFFFFFF AND PUSH20 0xFFFFFFFFFFFFFFFFFFFFFFFFFFFFFFFFFFFFFFFF AND DUP2 MSTORE PUSH1 0x20 ADD SWAP1 DUP2 MSTORE PUSH1 0x20 ADD PUSH0 KECCAK256 PUSH0 DUP5 PUSH20 0xFFFFFFFFFFFFFFFFFFFFFFFFFFFFFFFFFFFFFFFF AND PUSH20 0xFFFFFFFFFFFFFFFFFFFFFFFFFFFFFFFFFFFFFFFF AND DUP2 MSTORE PUSH1 0x20 ADD SWAP1 DUP2 MSTORE PUSH1 0x20 ADD PUSH0 KECCAK256 PUSH0 PUSH2 0x100 EXP DUP2 SLOAD DUP2 PUSH1 0xFF MUL NOT AND SWAP1 DUP4 ISZERO ISZERO MUL OR SWAP1 SSTORE POP DUP2 PUSH20 0xFFFFFFFFFFFFFFFFFFFFFFFFFFFFFFFFFFFFFFFF AND DUP4 PUSH20 0xFFFFFFFFFFFFFFFFFFFFFFFFFFFFFFFFFFFFFFFF AND PUSH32 0x17307EAB39AB6107E8899845AD3D59BD9653F200F220920489CA2B5937696C31 DUP4 PUSH1 0x40 MLOAD PUSH2 0x1260 SWAP2 SWAP1 PUSH2 0x1B38 JUMP JUMPDEST PUSH1 0x40 MLOAD DUP1 SWAP2 SUB SWAP1 LOG3 POP POP POP JUMP JUMPDEST PUSH0 DUP4 PUSH20 0xFFFFFFFFFFFFFFFFFFFFFFFFFFFFFFFFFFFFFFFF AND EXTCODESIZE GT ISZERO PUSH2 0x1412 JUMPI DUP3 PUSH20 0xFFFFFFFFFFFFFFFFFFFFFFFFFFFFFFFFFFFFFFFF AND PUSH4 0x150B7A02 DUP7 DUP7 DUP6 DUP6 PUSH1 0x40 MLOAD DUP6 PUSH4 0xFFFFFFFF AND PUSH1 0xE0 SHL DUP2 MSTORE PUSH1 0x4 ADD PUSH2 0x12CB SWAP5 SWAP4 SWAP3 SWAP2 SWAP1 PUSH2 0x2489 JUMP JUMPDEST PUSH1 0x20 PUSH1 0x40 MLOAD DUP1 DUP4 SUB DUP2 PUSH0 DUP8 GAS CALL SWAP3 POP POP POP DUP1 ISZERO PUSH2 0x1306 JUMPI POP PUSH1 0x40 MLOAD RETURNDATASIZE PUSH1 0x1F NOT PUSH1 0x1F DUP3 ADD AND DUP3 ADD DUP1 PUSH1 0x40 MSTORE POP DUP2 ADD SWAP1 PUSH2 0x1303 SWAP2 SWAP1 PUSH2 0x24E7 JUMP JUMPDEST PUSH1 0x1 JUMPDEST PUSH2 0x1387 JUMPI RETURNDATASIZE DUP1 PUSH0 DUP2 EQ PUSH2 0x1334 JUMPI PUSH1 0x40 MLOAD SWAP2 POP PUSH1 0x1F NOT PUSH1 0x3F RETURNDATASIZE ADD AND DUP3 ADD PUSH1 0x40 MSTORE RETURNDATASIZE DUP3 MSTORE RETURNDATASIZE PUSH0 PUSH1 0x20 DUP5 ADD RETURNDATACOPY PUSH2 0x1339 JUMP JUMPDEST PUSH1 0x60 SWAP2 POP JUMPDEST POP PUSH0 DUP2 MLOAD SUB PUSH2 0x137F JUMPI DUP4 PUSH1 0x40 MLOAD PUSH32 0x64A0AE9200000000000000000000000000000000000000000000000000000000 DUP2 MSTORE PUSH1 0x4 ADD PUSH2 0x1376 SWAP2 SWAP1 PUSH2 0x1C7E JUMP JUMPDEST PUSH1 0x40 MLOAD DUP1 SWAP2 SUB SWAP1 REVERT JUMPDEST DUP1 MLOAD DUP2 PUSH1 0x20 ADD REVERT JUMPDEST PUSH4 0x150B7A02 PUSH1 0xE0 SHL PUSH28 0xFFFFFFFFFFFFFFFFFFFFFFFFFFFFFFFFFFFFFFFFFFFFFFFFFFFFFFFF NOT AND DUP2 PUSH28 0xFFFFFFFFFFFFFFFFFFFFFFFFFFFFFFFFFFFFFFFFFFFFFFFFFFFFFFFF NOT AND EQ PUSH2 0x1410 JUMPI DUP4 PUSH1 0x40 MLOAD PUSH32 0x64A0AE9200000000000000000000000000000000000000000000000000000000 DUP2 MSTORE PUSH1 0x4 ADD PUSH2 0x1407 SWAP2 SWAP1 PUSH2 0x1C7E JUMP JUMPDEST PUSH1 0x40 MLOAD DUP1 SWAP2 SUB SWAP1 REVERT JUMPDEST POP JUMPDEST POP POP POP POP POP JUMP JUMPDEST PUSH1 0x60 PUSH1 0x7 DUP1 SLOAD PUSH2 0x1428 SWAP1 PUSH2 0x2106 JUMP JUMPDEST DUP1 PUSH1 0x1F ADD PUSH1 0x20 DUP1 SWAP2 DIV MUL PUSH1 0x20 ADD PUSH1 0x40 MLOAD SWAP1 DUP2 ADD PUSH1 0x40 MSTORE DUP1 SWAP3 SWAP2 SWAP1 DUP2 DUP2 MSTORE PUSH1 0x20 ADD DUP3 DUP1 SLOAD PUSH2 0x1454 SWAP1 PUSH2 0x2106 JUMP JUMPDEST DUP1 ISZERO PUSH2 0x149F JUMPI DUP1 PUSH1 0x1F LT PUSH2 0x1476 JUMPI PUSH2 0x100 DUP1 DUP4 SLOAD DIV MUL DUP4 MSTORE SWAP2 PUSH1 0x20 ADD SWAP2 PUSH2 0x149F JUMP JUMPDEST DUP3 ADD SWAP2 SWAP1 PUSH0 MSTORE PUSH1 0x20 PUSH0 KECCAK256 SWAP1 JUMPDEST DUP2 SLOAD DUP2 MSTORE SWAP1 PUSH1 0x1 ADD SWAP1 PUSH1 0x20 ADD DUP1 DUP4 GT PUSH2 0x1482 JUMPI DUP3 SWAP1 SUB PUSH1 0x1F AND DUP3 ADD SWAP2 JUMPDEST POP POP POP POP POP SWAP1 POP SWAP1 JUMP JUMPDEST PUSH1 0x60 PUSH0 PUSH1 0x1 PUSH2 0x14B7 DUP5 PUSH2 0x1848 JUMP JUMPDEST ADD SWAP1 POP PUSH0 DUP2 PUSH8 0xFFFFFFFFFFFFFFFF DUP2 GT ISZERO PUSH2 0x14D5 JUMPI PUSH2 0x14D4 PUSH2 0x1DE8 JUMP JUMPDEST JUMPDEST PUSH1 0x40 MLOAD SWAP1 DUP1 DUP3 MSTORE DUP1 PUSH1 0x1F ADD PUSH1 0x1F NOT AND PUSH1 0x20 ADD DUP3 ADD PUSH1 0x40 MSTORE DUP1 ISZERO PUSH2 0x1507 JUMPI DUP2 PUSH1 0x20 ADD PUSH1 0x1 DUP3 MUL DUP1 CALLDATASIZE DUP4 CALLDATACOPY DUP1 DUP3 ADD SWAP2 POP POP SWAP1 POP JUMPDEST POP SWAP1 POP PUSH0 DUP3 PUSH1 0x20 ADD DUP3 ADD SWAP1 POP JUMPDEST PUSH1 0x1 ISZERO PUSH2 0x1568 JUMPI DUP1 DUP1 PUSH1 0x1 SWAP1 SUB SWAP2 POP POP PUSH32 0x3031323334353637383961626364656600000000000000000000000000000000 PUSH1 0xA DUP7 MOD BYTE DUP2 MSTORE8 PUSH1 0xA DUP6 DUP2 PUSH2 0x155D JUMPI PUSH2 0x155C PUSH2 0x2512 JUMP JUMPDEST JUMPDEST DIV SWAP5 POP PUSH0 DUP6 SUB PUSH2 0x1514 JUMPI JUMPDEST DUP2 SWAP4 POP POP POP POP SWAP2 SWAP1 POP JUMP JUMPDEST PUSH0 PUSH1 0x2 PUSH0 DUP4 DUP2 MSTORE PUSH1 0x20 ADD SWAP1 DUP2 MSTORE PUSH1 0x20 ADD PUSH0 KECCAK256 PUSH0 SWAP1 SLOAD SWAP1 PUSH2 0x100 EXP SWAP1 DIV PUSH20 0xFFFFFFFFFFFFFFFFFFFFFFFFFFFFFFFFFFFFFFFF AND SWAP1 POP SWAP2 SWAP1 POP JUMP JUMPDEST DUP1 DUP1 PUSH2 0x15E4 JUMPI POP PUSH0 PUSH20 0xFFFFFFFFFFFFFFFFFFFFFFFFFFFFFFFFFFFFFFFF AND DUP3 PUSH20 0xFFFFFFFFFFFFFFFFFFFFFFFFFFFFFFFFFFFFFFFF AND EQ ISZERO JUMPDEST ISZERO PUSH2 0x1716 JUMPI PUSH0 PUSH2 0x15F3 DUP5 PUSH2 0xB4B JUMP JUMPDEST SWAP1 POP PUSH0 PUSH20 0xFFFFFFFFFFFFFFFFFFFFFFFFFFFFFFFFFFFFFFFF AND DUP4 PUSH20 0xFFFFFFFFFFFFFFFFFFFFFFFFFFFFFFFFFFFFFFFF AND EQ ISZERO DUP1 ISZERO PUSH2 0x165D JUMPI POP DUP3 PUSH20 0xFFFFFFFFFFFFFFFFFFFFFFFFFFFFFFFFFFFFFFFF AND DUP2 PUSH20 0xFFFFFFFFFFFFFFFFFFFFFFFFFFFFFFFFFFFFFFFF AND EQ ISZERO JUMPDEST DUP1 ISZERO PUSH2 0x1670 JUMPI POP PUSH2 0x166E DUP2 DUP5 PUSH2 0x9D0 JUMP JUMPDEST ISZERO JUMPDEST ISZERO PUSH2 0x16B2 JUMPI DUP3 PUSH1 0x40 MLOAD PUSH32 0xA9FBF51F00000000000000000000000000000000000000000000000000000000 DUP2 MSTORE PUSH1 0x4 ADD PUSH2 0x16A9 SWAP2 SWAP1 PUSH2 0x1C7E JUMP JUMPDEST PUSH1 0x40 MLOAD DUP1 SWAP2 SUB SWAP1 REVERT JUMPDEST DUP2 ISZERO PUSH2 0x1714 JUMPI DUP4 DUP6 PUSH20 0xFFFFFFFFFFFFFFFFFFFFFFFFFFFFFFFFFFFFFFFF AND DUP3 PUSH20 0xFFFFFFFFFFFFFFFFFFFFFFFFFFFFFFFFFFFFFFFF AND PUSH32 0x8C5BE1E5EBEC7D5BD14F71427D1E84F3DD0314C0F7B2291E5B200AC8C7C3B925 PUSH1 0x40 MLOAD PUSH1 0x40 MLOAD DUP1 SWAP2 SUB SWAP1 LOG4 JUMPDEST POP JUMPDEST DUP4 PUSH1 0x4 PUSH0 DUP6 DUP2 MSTORE PUSH1 0x20 ADD SWAP1 DUP2 MSTORE PUSH1 0x20 ADD PUSH0 KECCAK256 PUSH0 PUSH2 0x100 EXP DUP2 SLOAD DUP2 PUSH20 0xFFFFFFFFFFFFFFFFFFFFFFFFFFFFFFFFFFFFFFFF MUL NOT AND SWAP1 DUP4 PUSH20 0xFFFFFFFFFFFFFFFFFFFFFFFFFFFFFFFFFFFFFFFF AND MUL OR SWAP1 SSTORE POP POP POP POP POP JUMP JUMPDEST PUSH2 0x1776 DUP4 DUP4 DUP4 PUSH2 0x1999 JUMP JUMPDEST PUSH2 0x1829 JUMPI PUSH0 PUSH20 0xFFFFFFFFFFFFFFFFFFFFFFFFFFFFFFFFFFFFFFFF AND DUP4 PUSH20 0xFFFFFFFFFFFFFFFFFFFFFFFFFFFFFFFFFFFFFFFF AND SUB PUSH2 0x17EA JUMPI DUP1 PUSH1 0x40 MLOAD PUSH32 0x7E27328900000000000000000000000000000000000000000000000000000000 DUP2 MSTORE PUSH1 0x4 ADD PUSH2 0x17E1 SWAP2 SWAP1 PUSH2 0x1D0E JUMP JUMPDEST PUSH1 0x40 MLOAD DUP1 SWAP2 SUB SWAP1 REVERT JUMPDEST DUP2 DUP2 PUSH1 0x40 MLOAD PUSH32 0x177E802F00000000000000000000000000000000000000000000000000000000 DUP2 MSTORE PUSH1 0x4 ADD PUSH2 0x1820 SWAP3 SWAP2 SWAP1 PUSH2 0x253F JUMP JUMPDEST PUSH1 0x40 MLOAD DUP1 SWAP2 SUB SWAP1 REVERT JUMPDEST POP POP POP JUMP JUMPDEST PUSH2 0x1845 DUP2 PUSH2 0x183D PUSH2 0x1A59 PUSH2 0x1A78 JUMP JUMPDEST PUSH4 0xFFFFFFFF AND JUMP JUMPDEST POP JUMP JUMPDEST PUSH0 PUSH0 PUSH0 SWAP1 POP PUSH27 0x184F03E93FF9F4DAA797ED6E38ED64BF6A1F010000000000000000 DUP4 LT PUSH2 0x18A4 JUMPI PUSH27 0x184F03E93FF9F4DAA797ED6E38ED64BF6A1F010000000000000000 DUP4 DUP2 PUSH2 0x189A JUMPI PUSH2 0x1899 PUSH2 0x2512 JUMP JUMPDEST JUMPDEST DIV SWAP3 POP PUSH1 0x40 DUP2 ADD SWAP1 POP JUMPDEST PUSH14 0x4EE2D6D415B85ACEF8100000000 DUP4 LT PUSH2 0x18E1 JUMPI PUSH14 0x4EE2D6D415B85ACEF8100000000 DUP4 DUP2 PUSH2 0x18D7 JUMPI PUSH2 0x18D6 PUSH2 0x2512 JUMP JUMPDEST JUMPDEST DIV SWAP3 POP PUSH1 0x20 DUP2 ADD SWAP1 POP JUMPDEST PUSH7 0x2386F26FC10000 DUP4 LT PUSH2 0x1910 JUMPI PUSH7 0x2386F26FC10000 DUP4 DUP2 PUSH2 0x1906 JUMPI PUSH2 0x1905 PUSH2 0x2512 JUMP JUMPDEST JUMPDEST DIV SWAP3 POP PUSH1 0x10 DUP2 ADD SWAP1 POP JUMPDEST PUSH4 0x5F5E100 DUP4 LT PUSH2 0x1939 JUMPI PUSH4 0x5F5E100 DUP4 DUP2 PUSH2 0x192F JUMPI PUSH2 0x192E PUSH2 0x2512 JUMP JUMPDEST JUMPDEST DIV SWAP3 POP PUSH1 0x8 DUP2 ADD SWAP1 POP JUMPDEST PUSH2 0x2710 DUP4 LT PUSH2 0x195E JUMPI PUSH2 0x2710 DUP4 DUP2 PUSH2 0x1954 JUMPI PUSH2 0x1953 PUSH2 0x2512 JUMP JUMPDEST JUMPDEST DIV SWAP3 POP PUSH1 0x4 DUP2 ADD SWAP1 POP JUMPDEST PUSH1 0x64 DUP4 LT PUSH2 0x1981 JUMPI PUSH1 0x64 DUP4 DUP2 PUSH2 0x1977 JUMPI PUSH2 0x1976 PUSH2 0x2512 JUMP JUMPDEST JUMPDEST DIV SWAP3 POP PUSH1 0x2 DUP2 ADD SWAP1 POP JUMPDEST PUSH1 0xA DUP4 LT PUSH2 0x1990 JUMPI PUSH1 0x1 DUP2 ADD SWAP1 POP JUMPDEST DUP1 SWAP2 POP POP SWAP2 SWAP1 POP JUMP JUMPDEST PUSH0 PUSH0 PUSH20 0xFFFFFFFFFFFFFFFFFFFFFFFFFFFFFFFFFFFFFFFF AND DUP4 PUSH20 0xFFFFFFFFFFFFFFFFFFFFFFFFFFFFFFFFFFFFFFFF AND EQ ISZERO DUP1 ISZERO PUSH2 0x1A50 JUMPI POP DUP3 PUSH20 0xFFFFFFFFFFFFFFFFFFFFFFFFFFFFFFFFFFFFFFFF AND DUP5 PUSH20 0xFFFFFFFFFFFFFFFFFFFFFFFFFFFFFFFFFFFFFFFF AND EQ DUP1 PUSH2 0x1A11 JUMPI POP PUSH2 0x1A10 DUP5 DUP5 PUSH2 0x9D0 JUMP JUMPDEST JUMPDEST DUP1 PUSH2 0x1A4F JUMPI POP DUP3 PUSH20 0xFFFFFFFFFFFFFFFFFFFFFFFFFFFFFFFFFFFFFFFF AND PUSH2 0x1A37 DUP4 PUSH2 0xBD1 JUMP JUMPDEST PUSH20 0xFFFFFFFFFFFFFFFFFFFFFFFFFFFFFFFFFFFFFFFF AND EQ JUMPDEST JUMPDEST SWAP1 POP SWAP4 SWAP3 POP POP POP JUMP JUMPDEST PUSH0 PUSH11 0x636F6E736F6C652E6C6F67 SWAP1 POP PUSH0 PUSH0 DUP4 MLOAD PUSH1 0x20 DUP6 ADD DUP5 GAS STATICCALL POP POP POP JUMP JUMPDEST PUSH2 0x1A83 DUP2 SWAP1 POP SWAP2 SWAP1 POP JUMP JUMPDEST PUSH2 0x1A8B PUSH2 0x2566 JUMP JUMPDEST JUMP JUMPDEST PUSH0 PUSH1 0x40 MLOAD SWAP1 POP SWAP1 JUMP JUMPDEST PUSH0 PUSH0 REVERT JUMPDEST PUSH0 PUSH0 REVERT JUMPDEST PUSH0 PUSH32 0xFFFFFFFF00000000000000000000000000000000000000000000000000000000 DUP3 AND SWAP1 POP SWAP2 SWAP1 POP JUMP JUMPDEST PUSH2 0x1AD2 DUP2 PUSH2 0x1A9E JUMP JUMPDEST DUP2 EQ PUSH2 0x1ADC JUMPI PUSH0 PUSH0 REVERT JUMPDEST POP JUMP JUMPDEST PUSH0 DUP2 CALLDATALOAD SWAP1 POP PUSH2 0x1AED DUP2 PUSH2 0x1AC9 JUMP JUMPDEST SWAP3 SWAP2 POP POP JUMP JUMPDEST PUSH0 PUSH1 0x20 DUP3 DUP5 SUB SLT ISZERO PUSH2 0x1B08 JUMPI PUSH2 0x1B07 PUSH2 0x1A96 JUMP JUMPDEST JUMPDEST PUSH0 PUSH2 0x1B15 DUP5 DUP3 DUP6 ADD PUSH2 0x1ADF JUMP JUMPDEST SWAP2 POP POP SWAP3 SWAP2 POP POP JUMP JUMPDEST PUSH0 DUP2 ISZERO ISZERO SWAP1 POP SWAP2 SWAP1 POP JUMP JUMPDEST PUSH2 0x1B32 DUP2 PUSH2 0x1B1E JUMP JUMPDEST DUP3 MSTORE POP POP JUMP JUMPDEST PUSH0 PUSH1 0x20 DUP3 ADD SWAP1 POP PUSH2 0x1B4B PUSH0 DUP4 ADD DUP5 PUSH2 0x1B29 JUMP JUMPDEST SWAP3 SWAP2 POP POP JUMP JUMPDEST PUSH0 DUP2 MLOAD SWAP1 POP SWAP2 SWAP1 POP JUMP JUMPDEST PUSH0 DUP3 DUP3 MSTORE PUSH1 0x20 DUP3 ADD SWAP1 POP SWAP3 SWAP2 POP POP JUMP JUMPDEST DUP3 DUP2 DUP4 MCOPY PUSH0 DUP4 DUP4 ADD MSTORE POP POP POP JUMP JUMPDEST PUSH0 PUSH1 0x1F NOT PUSH1 0x1F DUP4 ADD AND SWAP1 POP SWAP2 SWAP1 POP JUMP JUMPDEST PUSH0 PUSH2 0x1B93 DUP3 PUSH2 0x1B51 JUMP JUMPDEST PUSH2 0x1B9D DUP2 DUP6 PUSH2 0x1B5B JUMP JUMPDEST SWAP4 POP PUSH2 0x1BAD DUP2 DUP6 PUSH1 0x20 DUP7 ADD PUSH2 0x1B6B JUMP JUMPDEST PUSH2 0x1BB6 DUP2 PUSH2 0x1B79 JUMP JUMPDEST DUP5 ADD SWAP2 POP POP SWAP3 SWAP2 POP POP JUMP JUMPDEST PUSH0 PUSH1 0x20 DUP3 ADD SWAP1 POP DUP2 DUP2 SUB PUSH0 DUP4 ADD MSTORE PUSH2 0x1BD9 DUP2 DUP5 PUSH2 0x1B89 JUMP JUMPDEST SWAP1 POP SWAP3 SWAP2 POP POP JUMP JUMPDEST PUSH0 DUP2 SWAP1 POP SWAP2 SWAP1 POP JUMP JUMPDEST PUSH2 0x1BF3 DUP2 PUSH2 0x1BE1 JUMP JUMPDEST DUP2 EQ PUSH2 0x1BFD JUMPI PUSH0 PUSH0 REVERT JUMPDEST POP JUMP JUMPDEST PUSH0 DUP2 CALLDATALOAD SWAP1 POP PUSH2 0x1C0E DUP2 PUSH2 0x1BEA JUMP JUMPDEST SWAP3 SWAP2 POP POP JUMP JUMPDEST PUSH0 PUSH1 0x20 DUP3 DUP5 SUB SLT ISZERO PUSH2 0x1C29 JUMPI PUSH2 0x1C28 PUSH2 0x1A96 JUMP JUMPDEST JUMPDEST PUSH0 PUSH2 0x1C36 DUP5 DUP3 DUP6 ADD PUSH2 0x1C00 JUMP JUMPDEST SWAP2 POP POP SWAP3 SWAP2 POP POP JUMP JUMPDEST PUSH0 PUSH20 0xFFFFFFFFFFFFFFFFFFFFFFFFFFFFFFFFFFFFFFFF DUP3 AND SWAP1 POP SWAP2 SWAP1 POP JUMP JUMPDEST PUSH0 PUSH2 0x1C68 DUP3 PUSH2 0x1C3F JUMP JUMPDEST SWAP1 POP SWAP2 SWAP1 POP JUMP JUMPDEST PUSH2 0x1C78 DUP2 PUSH2 0x1C5E JUMP JUMPDEST DUP3 MSTORE POP POP JUMP JUMPDEST PUSH0 PUSH1 0x20 DUP3 ADD SWAP1 POP PUSH2 0x1C91 PUSH0 DUP4 ADD DUP5 PUSH2 0x1C6F JUMP JUMPDEST SWAP3 SWAP2 POP POP JUMP JUMPDEST PUSH2 0x1CA0 DUP2 PUSH2 0x1C5E JUMP JUMPDEST DUP2 EQ PUSH2 0x1CAA JUMPI PUSH0 PUSH0 REVERT JUMPDEST POP JUMP JUMPDEST PUSH0 DUP2 CALLDATALOAD SWAP1 POP PUSH2 0x1CBB DUP2 PUSH2 0x1C97 JUMP JUMPDEST SWAP3 SWAP2 POP POP JUMP JUMPDEST PUSH0 PUSH0 PUSH1 0x40 DUP4 DUP6 SUB SLT ISZERO PUSH2 0x1CD7 JUMPI PUSH2 0x1CD6 PUSH2 0x1A96 JUMP JUMPDEST JUMPDEST PUSH0 PUSH2 0x1CE4 DUP6 DUP3 DUP7 ADD PUSH2 0x1CAD JUMP JUMPDEST SWAP3 POP POP PUSH1 0x20 PUSH2 0x1CF5 DUP6 DUP3 DUP7 ADD PUSH2 0x1C00 JUMP JUMPDEST SWAP2 POP POP SWAP3 POP SWAP3 SWAP1 POP JUMP JUMPDEST PUSH2 0x1D08 DUP2 PUSH2 0x1BE1 JUMP JUMPDEST DUP3 MSTORE POP POP JUMP JUMPDEST PUSH0 PUSH1 0x20 DUP3 ADD SWAP1 POP PUSH2 0x1D21 PUSH0 DUP4 ADD DUP5 PUSH2 0x1CFF JUMP JUMPDEST SWAP3 SWAP2 POP POP JUMP JUMPDEST PUSH0 PUSH0 PUSH0 PUSH1 0x60 DUP5 DUP7 SUB SLT ISZERO PUSH2 0x1D3E JUMPI PUSH2 0x1D3D PUSH2 0x1A96 JUMP JUMPDEST JUMPDEST PUSH0 PUSH2 0x1D4B DUP7 DUP3 DUP8 ADD PUSH2 0x1CAD JUMP JUMPDEST SWAP4 POP POP PUSH1 0x20 PUSH2 0x1D5C DUP7 DUP3 DUP8 ADD PUSH2 0x1CAD JUMP JUMPDEST SWAP3 POP POP PUSH1 0x40 PUSH2 0x1D6D DUP7 DUP3 DUP8 ADD PUSH2 0x1C00 JUMP JUMPDEST SWAP2 POP POP SWAP3 POP SWAP3 POP SWAP3 JUMP JUMPDEST PUSH0 PUSH0 PUSH1 0x40 DUP4 DUP6 SUB SLT ISZERO PUSH2 0x1D8D JUMPI PUSH2 0x1D8C PUSH2 0x1A96 JUMP JUMPDEST JUMPDEST PUSH0 PUSH2 0x1D9A DUP6 DUP3 DUP7 ADD PUSH2 0x1CAD JUMP JUMPDEST SWAP3 POP POP PUSH1 0x20 PUSH2 0x1DAB DUP6 DUP3 DUP7 ADD PUSH2 0x1CAD JUMP JUMPDEST SWAP2 POP POP SWAP3 POP SWAP3 SWAP1 POP JUMP JUMPDEST PUSH0 PUSH1 0x20 DUP3 DUP5 SUB SLT ISZERO PUSH2 0x1DCA JUMPI PUSH2 0x1DC9 PUSH2 0x1A96 JUMP JUMPDEST JUMPDEST PUSH0 PUSH2 0x1DD7 DUP5 DUP3 DUP6 ADD PUSH2 0x1CAD JUMP JUMPDEST SWAP2 POP POP SWAP3 SWAP2 POP POP JUMP JUMPDEST PUSH0 PUSH0 REVERT JUMPDEST PUSH0 PUSH0 REVERT JUMPDEST PUSH32 0x4E487B7100000000000000000000000000000000000000000000000000000000 PUSH0 MSTORE PUSH1 0x41 PUSH1 0x4 MSTORE PUSH1 0x24 PUSH0 REVERT JUMPDEST PUSH2 0x1E1E DUP3 PUSH2 0x1B79 JUMP JUMPDEST DUP2 ADD DUP2 DUP2 LT PUSH8 0xFFFFFFFFFFFFFFFF DUP3 GT OR ISZERO PUSH2 0x1E3D JUMPI PUSH2 0x1E3C PUSH2 0x1DE8 JUMP JUMPDEST JUMPDEST DUP1 PUSH1 0x40 MSTORE POP POP POP JUMP JUMPDEST PUSH0 PUSH2 0x1E4F PUSH2 0x1A8D JUMP JUMPDEST SWAP1 POP PUSH2 0x1E5B DUP3 DUP3 PUSH2 0x1E15 JUMP JUMPDEST SWAP2 SWAP1 POP JUMP JUMPDEST PUSH0 PUSH8 0xFFFFFFFFFFFFFFFF DUP3 GT ISZERO PUSH2 0x1E7A JUMPI PUSH2 0x1E79 PUSH2 0x1DE8 JUMP JUMPDEST JUMPDEST PUSH2 0x1E83 DUP3 PUSH2 0x1B79 JUMP JUMPDEST SWAP1 POP PUSH1 0x20 DUP2 ADD SWAP1 POP SWAP2 SWAP1 POP JUMP JUMPDEST DUP3 DUP2 DUP4 CALLDATACOPY PUSH0 DUP4 DUP4 ADD MSTORE POP POP POP JUMP JUMPDEST PUSH0 PUSH2 0x1EB0 PUSH2 0x1EAB DUP5 PUSH2 0x1E60 JUMP JUMPDEST PUSH2 0x1E46 JUMP JUMPDEST SWAP1 POP DUP3 DUP2 MSTORE PUSH1 0x20 DUP2 ADD DUP5 DUP5 DUP5 ADD GT ISZERO PUSH2 0x1ECC JUMPI PUSH2 0x1ECB PUSH2 0x1DE4 JUMP JUMPDEST JUMPDEST PUSH2 0x1ED7 DUP5 DUP3 DUP6 PUSH2 0x1E90 JUMP JUMPDEST POP SWAP4 SWAP3 POP POP POP JUMP JUMPDEST PUSH0 DUP3 PUSH1 0x1F DUP4 ADD SLT PUSH2 0x1EF3 JUMPI PUSH2 0x1EF2 PUSH2 0x1DE0 JUMP JUMPDEST JUMPDEST DUP2 CALLDATALOAD PUSH2 0x1F03 DUP5 DUP3 PUSH1 0x20 DUP7 ADD PUSH2 0x1E9E JUMP JUMPDEST SWAP2 POP POP SWAP3 SWAP2 POP POP JUMP JUMPDEST PUSH0 PUSH1 0x20 DUP3 DUP5 SUB SLT ISZERO PUSH2 0x1F21 JUMPI PUSH2 0x1F20 PUSH2 0x1A96 JUMP JUMPDEST JUMPDEST PUSH0 DUP3 ADD CALLDATALOAD PUSH8 0xFFFFFFFFFFFFFFFF DUP2 GT ISZERO PUSH2 0x1F3E JUMPI PUSH2 0x1F3D PUSH2 0x1A9A JUMP JUMPDEST JUMPDEST PUSH2 0x1F4A DUP5 DUP3 DUP6 ADD PUSH2 0x1EDF JUMP JUMPDEST SWAP2 POP POP SWAP3 SWAP2 POP POP JUMP JUMPDEST PUSH2 0x1F5C DUP2 PUSH2 0x1B1E JUMP JUMPDEST DUP2 EQ PUSH2 0x1F66 JUMPI PUSH0 PUSH0 REVERT JUMPDEST POP JUMP JUMPDEST PUSH0 DUP2 CALLDATALOAD SWAP1 POP PUSH2 0x1F77 DUP2 PUSH2 0x1F53 JUMP JUMPDEST SWAP3 SWAP2 POP POP JUMP JUMPDEST PUSH0 PUSH0 PUSH1 0x40 DUP4 DUP6 SUB SLT ISZERO PUSH2 0x1F93 JUMPI PUSH2 0x1F92 PUSH2 0x1A96 JUMP JUMPDEST JUMPDEST PUSH0 PUSH2 0x1FA0 DUP6 DUP3 DUP7 ADD PUSH2 0x1CAD JUMP JUMPDEST SWAP3 POP POP PUSH1 0x20 PUSH2 0x1FB1 DUP6 DUP3 DUP7 ADD PUSH2 0x1F69 JUMP JUMPDEST SWAP2 POP POP SWAP3 POP SWAP3 SWAP1 POP JUMP JUMPDEST PUSH0 PUSH8 0xFFFFFFFFFFFFFFFF DUP3 GT ISZERO PUSH2 0x1FD5 JUMPI PUSH2 0x1FD4 PUSH2 0x1DE8 JUMP JUMPDEST JUMPDEST PUSH2 0x1FDE DUP3 PUSH2 0x1B79 JUMP JUMPDEST SWAP1 POP PUSH1 0x20 DUP2 ADD SWAP1 POP SWAP2 SWAP1 POP JUMP JUMPDEST PUSH0 PUSH2 0x1FFD PUSH2 0x1FF8 DUP5 PUSH2 0x1FBB JUMP JUMPDEST PUSH2 0x1E46 JUMP JUMPDEST SWAP1 POP DUP3 DUP2 MSTORE PUSH1 0x20 DUP2 ADD DUP5 DUP5 DUP5 ADD GT ISZERO PUSH2 0x2019 JUMPI PUSH2 0x2018 PUSH2 0x1DE4 JUMP JUMPDEST JUMPDEST PUSH2 0x2024 DUP5 DUP3 DUP6 PUSH2 0x1E90 JUMP JUMPDEST POP SWAP4 SWAP3 POP POP POP JUMP JUMPDEST PUSH0 DUP3 PUSH1 0x1F DUP4 ADD SLT PUSH2 0x2040 JUMPI PUSH2 0x203F PUSH2 0x1DE0 JUMP JUMPDEST JUMPDEST DUP2 CALLDATALOAD PUSH2 0x2050 DUP5 DUP3 PUSH1 0x20 DUP7 ADD PUSH2 0x1FEB JUMP JUMPDEST SWAP2 POP POP SWAP3 SWAP2 POP POP JUMP JUMPDEST PUSH0 PUSH0 PUSH0 PUSH0 PUSH1 0x80 DUP6 DUP8 SUB SLT ISZERO PUSH2 0x2071 JUMPI PUSH2 0x2070 PUSH2 0x1A96 JUMP JUMPDEST JUMPDEST PUSH0 PUSH2 0x207E DUP8 DUP3 DUP9 ADD PUSH2 0x1CAD JUMP JUMPDEST SWAP5 POP POP PUSH1 0x20 PUSH2 0x208F DUP8 DUP3 DUP9 ADD PUSH2 0x1CAD JUMP JUMPDEST SWAP4 POP POP PUSH1 0x40 PUSH2 0x20A0 DUP8 DUP3 DUP9 ADD PUSH2 0x1C00 JUMP JUMPDEST SWAP3 POP POP PUSH1 0x60 DUP6 ADD CALLDATALOAD PUSH8 0xFFFFFFFFFFFFFFFF DUP2 GT ISZERO PUSH2 0x20C1 JUMPI PUSH2 0x20C0 PUSH2 0x1A9A JUMP JUMPDEST JUMPDEST PUSH2 0x20CD DUP8 DUP3 DUP9 ADD PUSH2 0x202C JUMP JUMPDEST SWAP2 POP POP SWAP3 SWAP6 SWAP2 SWAP5 POP SWAP3 POP JUMP JUMPDEST PUSH32 0x4E487B7100000000000000000000000000000000000000000000000000000000 PUSH0 MSTORE PUSH1 0x22 PUSH1 0x4 MSTORE PUSH1 0x24 PUSH0 REVERT JUMPDEST PUSH0 PUSH1 0x2 DUP3 DIV SWAP1 POP PUSH1 0x1 DUP3 AND DUP1 PUSH2 0x211D JUMPI PUSH1 0x7F DUP3 AND SWAP2 POP JUMPDEST PUSH1 0x20 DUP3 LT DUP2 SUB PUSH2 0x2130 JUMPI PUSH2 0x212F PUSH2 0x20D9 JUMP JUMPDEST JUMPDEST POP SWAP2 SWAP1 POP JUMP JUMPDEST PUSH0 PUSH1 0x60 DUP3 ADD SWAP1 POP PUSH2 0x2149 PUSH0 DUP4 ADD DUP7 PUSH2 0x1C6F JUMP JUMPDEST PUSH2 0x2156 PUSH1 0x20 DUP4 ADD DUP6 PUSH2 0x1CFF JUMP JUMPDEST PUSH2 0x2163 PUSH1 0x40 DUP4 ADD DUP5 PUSH2 0x1C6F JUMP JUMPDEST SWAP5 SWAP4 POP POP POP POP JUMP JUMPDEST PUSH0 DUP2 SWAP1 POP DUP2 PUSH0 MSTORE PUSH1 0x20 PUSH0 KECCAK256 SWAP1 POP SWAP2 SWAP1 POP JUMP JUMPDEST PUSH0 PUSH1 0x20 PUSH1 0x1F DUP4 ADD DIV SWAP1 POP SWAP2 SWAP1 POP JUMP JUMPDEST PUSH0 DUP3 DUP3 SHL SWAP1 POP SWAP3 SWAP2 POP POP JUMP JUMPDEST PUSH0 PUSH1 0x8 DUP4 MUL PUSH2 0x21C7 PUSH32 0xFFFFFFFFFFFFFFFFFFFFFFFFFFFFFFFFFFFFFFFFFFFFFFFFFFFFFFFFFFFFFFFF DUP3 PUSH2 0x218C JUMP JUMPDEST PUSH2 0x21D1 DUP7 DUP4 PUSH2 0x218C JUMP JUMPDEST SWAP6 POP DUP1 NOT DUP5 AND SWAP4 POP DUP1 DUP7 AND DUP5 OR SWAP3 POP POP POP SWAP4 SWAP3 POP POP POP JUMP JUMPDEST PUSH0 DUP2 SWAP1 POP SWAP2 SWAP1 POP JUMP JUMPDEST PUSH0 PUSH2 0x220C PUSH2 0x2207 PUSH2 0x2202 DUP5 PUSH2 0x1BE1 JUMP JUMPDEST PUSH2 0x21E9 JUMP JUMPDEST PUSH2 0x1BE1 JUMP JUMPDEST SWAP1 POP SWAP2 SWAP1 POP JUMP JUMPDEST PUSH0 DUP2 SWAP1 POP SWAP2 SWAP1 POP JUMP JUMPDEST PUSH2 0x2225 DUP4 PUSH2 0x21F2 JUMP JUMPDEST PUSH2 0x2239 PUSH2 0x2231 DUP3 PUSH2 0x2213 JUMP JUMPDEST DUP5 DUP5 SLOAD PUSH2 0x2198 JUMP JUMPDEST DUP3 SSTORE POP POP POP POP JUMP JUMPDEST PUSH0 PUSH0 SWAP1 POP SWAP1 JUMP JUMPDEST PUSH2 0x2250 PUSH2 0x2241 JUMP JUMPDEST PUSH2 0x225B DUP2 DUP5 DUP5 PUSH2 0x221C JUMP JUMPDEST POP POP POP JUMP JUMPDEST JUMPDEST DUP2 DUP2 LT ISZERO PUSH2 0x227E JUMPI PUSH2 0x2273 PUSH0 DUP3 PUSH2 0x2248 JUMP JUMPDEST PUSH1 0x1 DUP2 ADD SWAP1 POP PUSH2 0x2261 JUMP JUMPDEST POP POP JUMP JUMPDEST PUSH1 0x1F DUP3 GT ISZERO PUSH2 0x22C3 JUMPI PUSH2 0x2294 DUP2 PUSH2 0x216B JUMP JUMPDEST PUSH2 0x229D DUP5 PUSH2 0x217D JUMP JUMPDEST DUP2 ADD PUSH1 0x20 DUP6 LT ISZERO PUSH2 0x22AC JUMPI DUP2 SWAP1 POP JUMPDEST PUSH2 0x22C0 PUSH2 0x22B8 DUP6 PUSH2 0x217D JUMP JUMPDEST DUP4 ADD DUP3 PUSH2 0x2260 JUMP JUMPDEST POP POP JUMPDEST POP POP POP JUMP JUMPDEST PUSH0 DUP3 DUP3 SHR SWAP1 POP SWAP3 SWAP2 POP POP JUMP JUMPDEST PUSH0 PUSH2 0x22E3 PUSH0 NOT DUP5 PUSH1 0x8 MUL PUSH2 0x22C8 JUMP JUMPDEST NOT DUP1 DUP4 AND SWAP2 POP POP SWAP3 SWAP2 POP POP JUMP JUMPDEST PUSH0 PUSH2 0x22FB DUP4 DUP4 PUSH2 0x22D4 JUMP JUMPDEST SWAP2 POP DUP3 PUSH1 0x2 MUL DUP3 OR SWAP1 POP SWAP3 SWAP2 POP POP JUMP JUMPDEST PUSH2 0x2314 DUP3 PUSH2 0x1B51 JUMP JUMPDEST PUSH8 0xFFFFFFFFFFFFFFFF DUP2 GT ISZERO PUSH2 0x232D JUMPI PUSH2 0x232C PUSH2 0x1DE8 JUMP JUMPDEST JUMPDEST PUSH2 0x2337 DUP3 SLOAD PUSH2 0x2106 JUMP JUMPDEST PUSH2 0x2342 DUP3 DUP3 DUP6 PUSH2 0x2282 JUMP JUMPDEST PUSH0 PUSH1 0x20 SWAP1 POP PUSH1 0x1F DUP4 GT PUSH1 0x1 DUP2 EQ PUSH2 0x2373 JUMPI PUSH0 DUP5 ISZERO PUSH2 0x2361 JUMPI DUP3 DUP8 ADD MLOAD SWAP1 POP JUMPDEST PUSH2 0x236B DUP6 DUP3 PUSH2 0x22F0 JUMP JUMPDEST DUP7 SSTORE POP PUSH2 0x23D2 JUMP JUMPDEST PUSH1 0x1F NOT DUP5 AND PUSH2 0x2381 DUP7 PUSH2 0x216B JUMP JUMPDEST PUSH0 JUMPDEST DUP3 DUP2 LT ISZERO PUSH2 0x23A8 JUMPI DUP5 DUP10 ADD MLOAD DUP3 SSTORE PUSH1 0x1 DUP3 ADD SWAP2 POP PUSH1 0x20 DUP6 ADD SWAP5 POP PUSH1 0x20 DUP2 ADD SWAP1 POP PUSH2 0x2383 JUMP JUMPDEST DUP7 DUP4 LT ISZERO PUSH2 0x23C5 JUMPI DUP5 DUP10 ADD MLOAD PUSH2 0x23C1 PUSH1 0x1F DUP10 AND DUP3 PUSH2 0x22D4 JUMP JUMPDEST DUP4 SSTORE POP JUMPDEST PUSH1 0x1 PUSH1 0x2 DUP9 MUL ADD DUP9 SSTORE POP POP POP JUMPDEST POP POP POP POP POP POP JUMP JUMPDEST PUSH0 DUP2 SWAP1 POP SWAP3 SWAP2 POP POP JUMP JUMPDEST PUSH0 PUSH2 0x23EE DUP3 PUSH2 0x1B51 JUMP JUMPDEST PUSH2 0x23F8 DUP2 DUP6 PUSH2 0x23DA JUMP JUMPDEST SWAP4 POP PUSH2 0x2408 DUP2 DUP6 PUSH1 0x20 DUP7 ADD PUSH2 0x1B6B JUMP JUMPDEST DUP1 DUP5 ADD SWAP2 POP POP SWAP3 SWAP2 POP POP JUMP JUMPDEST PUSH0 PUSH2 0x241F DUP3 DUP6 PUSH2 0x23E4 JUMP JUMPDEST SWAP2 POP PUSH2 0x242B DUP3 DUP5 PUSH2 0x23E4 JUMP JUMPDEST SWAP2 POP DUP2 SWAP1 POP SWAP4 SWAP3 POP POP POP JUMP JUMPDEST PUSH0 DUP2 MLOAD SWAP1 POP SWAP2 SWAP1 POP JUMP JUMPDEST PUSH0 DUP3 DUP3 MSTORE PUSH1 0x20 DUP3 ADD SWAP1 POP SWAP3 SWAP2 POP POP JUMP JUMPDEST PUSH0 PUSH2 0x245B DUP3 PUSH2 0x2437 JUMP JUMPDEST PUSH2 0x2465 DUP2 DUP6 PUSH2 0x2441 JUMP JUMPDEST SWAP4 POP PUSH2 0x2475 DUP2 DUP6 PUSH1 0x20 DUP7 ADD PUSH2 0x1B6B JUMP JUMPDEST PUSH2 0x247E DUP2 PUSH2 0x1B79 JUMP JUMPDEST DUP5 ADD SWAP2 POP POP SWAP3 SWAP2 POP POP JUMP JUMPDEST PUSH0 PUSH1 0x80 DUP3 ADD SWAP1 POP PUSH2 0x249C PUSH0 DUP4 ADD DUP8 PUSH2 0x1C6F JUMP JUMPDEST PUSH2 0x24A9 PUSH1 0x20 DUP4 ADD DUP7 PUSH2 0x1C6F JUMP JUMPDEST PUSH2 0x24B6 PUSH1 0x40 DUP4 ADD DUP6 PUSH2 0x1CFF JUMP JUMPDEST DUP2 DUP2 SUB PUSH1 0x60 DUP4 ADD MSTORE PUSH2 0x24C8 DUP2 DUP5 PUSH2 0x2451 JUMP JUMPDEST SWAP1 POP SWAP6 SWAP5 POP POP POP POP POP JUMP JUMPDEST PUSH0 DUP2 MLOAD SWAP1 POP PUSH2 0x24E1 DUP2 PUSH2 0x1AC9 JUMP JUMPDEST SWAP3 SWAP2 POP POP JUMP JUMPDEST PUSH0 PUSH1 0x20 DUP3 DUP5 SUB SLT ISZERO PUSH2 0x24FC JUMPI PUSH2 0x24FB PUSH2 0x1A96 JUMP JUMPDEST JUMPDEST PUSH0 PUSH2 0x2509 DUP5 DUP3 DUP6 ADD PUSH2 0x24D3 JUMP JUMPDEST SWAP2 POP POP SWAP3 SWAP2 POP POP JUMP JUMPDEST PUSH32 0x4E487B7100000000000000000000000000000000000000000000000000000000 PUSH0 MSTORE PUSH1 0x12 PUSH1 0x4 MSTORE PUSH1 0x24 PUSH0 REVERT JUMPDEST PUSH0 PUSH1 0x40 DUP3 ADD SWAP1 POP PUSH2 0x2552 PUSH0 DUP4 ADD DUP6 PUSH2 0x1C6F JUMP JUMPDEST PUSH2 0x255F PUSH1 0x20 DUP4 ADD DUP5 PUSH2 0x1CFF JUMP JUMPDEST SWAP4 SWAP3 POP POP POP JUMP JUMPDEST PUSH32 0x4E487B7100000000000000000000000000000000000000000000000000000000 PUSH0 MSTORE PUSH1 0x51 PUSH1 0x4 MSTORE PUSH1 0x24 PUSH0 REVERT INVALID LOG2 PUSH5 0x6970667358 0x22 SLT KECCAK256 MCOPY 0xE2 TIMESTAMP CALLER DIV 0xDA 0xB0 0x2C 0xC1 SWAP6 PUSH4 0x9B00DBC4 0xA5 0xCE PUSH24 0xCD4EC283D1C0A7FAE10BBEB7E49664736F6C634300081D00 CALLER "
		},
		"gasEstimates": {
			"creation": {
				"codeDepositCost": "1934600",
				"executionCost": "infinite",
				"totalCost": "infinite"
			},
			"external": {
				"approve(address,uint256)": "infinite",
				"balanceOf(address)": "infinite",
				"getApproved(uint256)": "infinite",
				"getBalance()": "2707",
				"getTokenUri()": "infinite",
				"isApprovedForAll(address,address)": "infinite",
				"mintNFT(address)": "infinite",
				"name()": "infinite",
				"owner()": "2604",
				"ownerOf(uint256)": "infinite",
				"renounceOwnership()": "infinite",
				"safeTransferFrom(address,address,uint256)": "infinite",
				"safeTransferFrom(address,address,uint256,bytes)": "infinite",
				"setApprovalForAll(address,bool)": "infinite",
				"setBaseURI(string)": "infinite",
				"supportsInterface(bytes4)": "787",
				"symbol()": "infinite",
				"tokenURI(uint256)": "infinite",
				"transferFrom(address,address,uint256)": "infinite",
				"transferOwnership(address)": "infinite",
				"transferToken(address,address)": "infinite"
			},
			"internal": {
				"_baseURI()": "infinite"
			}
		},
		"methodIdentifiers": {
			"approve(address,uint256)": "095ea7b3",
			"balanceOf(address)": "70a08231",
			"getApproved(uint256)": "081812fc",
			"getBalance()": "12065fe0",
			"getTokenUri()": "c395c8af",
			"isApprovedForAll(address,address)": "e985e9c5",
			"mintNFT(address)": "54ba0f27",
			"name()": "06fdde03",
			"owner()": "8da5cb5b",
			"ownerOf(uint256)": "6352211e",
			"renounceOwnership()": "715018a6",
			"safeTransferFrom(address,address,uint256)": "42842e0e",
			"safeTransferFrom(address,address,uint256,bytes)": "b88d4fde",
			"setApprovalForAll(address,bool)": "a22cb465",
			"setBaseURI(string)": "55f804b3",
			"supportsInterface(bytes4)": "01ffc9a7",
			"symbol()": "95d89b41",
			"tokenURI(uint256)": "c87b56dd",
			"transferFrom(address,address,uint256)": "23b872dd",
			"transferOwnership(address)": "f2fde38b",
			"transferToken(address,address)": "48ae238f"
		}
	},
	"abi": [
		{
			"inputs": [
				{
					"internalType": "string",
					"name": "name",
					"type": "string"
				},
				{
					"internalType": "string",
					"name": "symbol",
					"type": "string"
				},
				{
					"internalType": "string",
					"name": "baseURI",
					"type": "string"
				}
			],
			"stateMutability": "nonpayable",
			"type": "constructor"
		},
		{
			"inputs": [
				{
					"internalType": "address",
					"name": "sender",
					"type": "address"
				},
				{
					"internalType": "uint256",
					"name": "tokenId",
					"type": "uint256"
				},
				{
					"internalType": "address",
					"name": "owner",
					"type": "address"
				}
			],
			"name": "ERC721IncorrectOwner",
			"type": "error"
		},
		{
			"inputs": [
				{
					"internalType": "address",
					"name": "operator",
					"type": "address"
				},
				{
					"internalType": "uint256",
					"name": "tokenId",
					"type": "uint256"
				}
			],
			"name": "ERC721InsufficientApproval",
			"type": "error"
		},
		{
			"inputs": [
				{
					"internalType": "address",
					"name": "approver",
					"type": "address"
				}
			],
			"name": "ERC721InvalidApprover",
			"type": "error"
		},
		{
			"inputs": [
				{
					"internalType": "address",
					"name": "operator",
					"type": "address"
				}
			],
			"name": "ERC721InvalidOperator",
			"type": "error"
		},
		{
			"inputs": [
				{
					"internalType": "address",
					"name": "owner",
					"type": "address"
				}
			],
			"name": "ERC721InvalidOwner",
			"type": "error"
		},
		{
			"inputs": [
				{
					"internalType": "address",
					"name": "receiver",
					"type": "address"
				}
			],
			"name": "ERC721InvalidReceiver",
			"type": "error"
		},
		{
			"inputs": [
				{
					"internalType": "address",
					"name": "sender",
					"type": "address"
				}
			],
			"name": "ERC721InvalidSender",
			"type": "error"
		},
		{
			"inputs": [
				{
					"internalType": "uint256",
					"name": "tokenId",
					"type": "uint256"
				}
			],
			"name": "ERC721NonexistentToken",
			"type": "error"
		},
		{
			"inputs": [
				{
					"internalType": "address",
					"name": "owner",
					"type": "address"
				}
			],
			"name": "OwnableInvalidOwner",
			"type": "error"
		},
		{
			"inputs": [
				{
					"internalType": "address",
					"name": "account",
					"type": "address"
				}
			],
			"name": "OwnableUnauthorizedAccount",
			"type": "error"
		},
		{
			"anonymous": false,
			"inputs": [
				{
					"indexed": true,
					"internalType": "address",
					"name": "owner",
					"type": "address"
				},
				{
					"indexed": true,
					"internalType": "address",
					"name": "approved",
					"type": "address"
				},
				{
					"indexed": true,
					"internalType": "uint256",
					"name": "tokenId",
					"type": "uint256"
				}
			],
			"name": "Approval",
			"type": "event"
		},
		{
			"anonymous": false,
			"inputs": [
				{
					"indexed": true,
					"internalType": "address",
					"name": "owner",
					"type": "address"
				},
				{
					"indexed": true,
					"internalType": "address",
					"name": "operator",
					"type": "address"
				},
				{
					"indexed": false,
					"internalType": "bool",
					"name": "approved",
					"type": "bool"
				}
			],
			"name": "ApprovalForAll",
			"type": "event"
		},
		{
			"anonymous": false,
			"inputs": [
				{
					"indexed": true,
					"internalType": "address",
					"name": "previousOwner",
					"type": "address"
				},
				{
					"indexed": true,
					"internalType": "address",
					"name": "newOwner",
					"type": "address"
				}
			],
			"name": "OwnershipTransferred",
			"type": "event"
		},
		{
			"anonymous": false,
			"inputs": [
				{
					"indexed": true,
					"internalType": "address",
					"name": "from",
					"type": "address"
				},
				{
					"indexed": true,
					"internalType": "address",
					"name": "to",
					"type": "address"
				},
				{
					"indexed": true,
					"internalType": "uint256",
					"name": "tokenId",
					"type": "uint256"
				}
			],
			"name": "Transfer",
			"type": "event"
		},
		{
			"inputs": [
				{
					"internalType": "address",
					"name": "to",
					"type": "address"
				},
				{
					"internalType": "uint256",
					"name": "tokenId",
					"type": "uint256"
				}
			],
			"name": "approve",
			"outputs": [],
			"stateMutability": "nonpayable",
			"type": "function"
		},
		{
			"inputs": [
				{
					"internalType": "address",
					"name": "owner",
					"type": "address"
				}
			],
			"name": "balanceOf",
			"outputs": [
				{
					"internalType": "uint256",
					"name": "",
					"type": "uint256"
				}
			],
			"stateMutability": "view",
			"type": "function"
		},
		{
			"inputs": [
				{
					"internalType": "uint256",
					"name": "tokenId",
					"type": "uint256"
				}
			],
			"name": "getApproved",
			"outputs": [
				{
					"internalType": "address",
					"name": "",
					"type": "address"
				}
			],
			"stateMutability": "view",
			"type": "function"
		},
		{
			"inputs": [],
			"name": "getBalance",
			"outputs": [
				{
					"internalType": "uint256",
					"name": "",
					"type": "uint256"
				}
			],
			"stateMutability": "view",
			"type": "function"
		},
		{
			"inputs": [],
			"name": "getTokenUri",
			"outputs": [
				{
					"internalType": "string",
					"name": "",
					"type": "string"
				}
			],
			"stateMutability": "view",
			"type": "function"
		},
		{
			"inputs": [
				{
					"internalType": "address",
					"name": "owner",
					"type": "address"
				},
				{
					"internalType": "address",
					"name": "operator",
					"type": "address"
				}
			],
			"name": "isApprovedForAll",
			"outputs": [
				{
					"internalType": "bool",
					"name": "",
					"type": "bool"
				}
			],
			"stateMutability": "view",
			"type": "function"
		},
		{
			"inputs": [
				{
					"internalType": "address",
					"name": "_receiver",
					"type": "address"
				}
			],
			"name": "mintNFT",
			"outputs": [],
			"stateMutability": "nonpayable",
			"type": "function"
		},
		{
			"inputs": [],
			"name": "name",
			"outputs": [
				{
					"internalType": "string",
					"name": "",
					"type": "string"
				}
			],
			"stateMutability": "view",
			"type": "function"
		},
		{
			"inputs": [],
			"name": "owner",
			"outputs": [
				{
					"internalType": "address",
					"name": "",
					"type": "address"
				}
			],
			"stateMutability": "view",
			"type": "function"
		},
		{
			"inputs": [
				{
					"internalType": "uint256",
					"name": "tokenId",
					"type": "uint256"
				}
			],
			"name": "ownerOf",
			"outputs": [
				{
					"internalType": "address",
					"name": "",
					"type": "address"
				}
			],
			"stateMutability": "view",
			"type": "function"
		},
		{
			"inputs": [],
			"name": "renounceOwnership",
			"outputs": [],
			"stateMutability": "nonpayable",
			"type": "function"
		},
		{
			"inputs": [
				{
					"internalType": "address",
					"name": "from",
					"type": "address"
				},
				{
					"internalType": "address",
					"name": "to",
					"type": "address"
				},
				{
					"internalType": "uint256",
					"name": "tokenId",
					"type": "uint256"
				}
			],
			"name": "safeTransferFrom",
			"outputs": [],
			"stateMutability": "nonpayable",
			"type": "function"
		},
		{
			"inputs": [
				{
					"internalType": "address",
					"name": "from",
					"type": "address"
				},
				{
					"internalType": "address",
					"name": "to",
					"type": "address"
				},
				{
					"internalType": "uint256",
					"name": "tokenId",
					"type": "uint256"
				},
				{
					"internalType": "bytes",
					"name": "data",
					"type": "bytes"
				}
			],
			"name": "safeTransferFrom",
			"outputs": [],
			"stateMutability": "nonpayable",
			"type": "function"
		},
		{
			"inputs": [
				{
					"internalType": "address",
					"name": "operator",
					"type": "address"
				},
				{
					"internalType": "bool",
					"name": "approved",
					"type": "bool"
				}
			],
			"name": "setApprovalForAll",
			"outputs": [],
			"stateMutability": "nonpayable",
			"type": "function"
		},
		{
			"inputs": [
				{
					"internalType": "string",
					"name": "baseURI",
					"type": "string"
				}
			],
			"name": "setBaseURI",
			"outputs": [],
			"stateMutability": "nonpayable",
			"type": "function"
		},
		{
			"inputs": [
				{
					"internalType": "bytes4",
					"name": "interfaceId",
					"type": "bytes4"
				}
			],
			"name": "supportsInterface",
			"outputs": [
				{
					"internalType": "bool",
					"name": "",
					"type": "bool"
				}
			],
			"stateMutability": "view",
			"type": "function"
		},
		{
			"inputs": [],
			"name": "symbol",
			"outputs": [
				{
					"internalType": "string",
					"name": "",
					"type": "string"
				}
			],
			"stateMutability": "view",
			"type": "function"
		},
		{
			"inputs": [
				{
					"internalType": "uint256",
					"name": "tokenId",
					"type": "uint256"
				}
			],
			"name": "tokenURI",
			"outputs": [
				{
					"internalType": "string",
					"name": "",
					"type": "string"
				}
			],
			"stateMutability": "view",
			"type": "function"
		},
		{
			"inputs": [
				{
					"internalType": "address",
					"name": "from",
					"type": "address"
				},
				{
					"internalType": "address",
					"name": "to",
					"type": "address"
				},
				{
					"internalType": "uint256",
					"name": "tokenId",
					"type": "uint256"
				}
			],
			"name": "transferFrom",
			"outputs": [],
			"stateMutability": "nonpayable",
			"type": "function"
		},
		{
			"inputs": [
				{
					"internalType": "address",
					"name": "newOwner",
					"type": "address"
				}
			],
			"name": "transferOwnership",
			"outputs": [],
			"stateMutability": "nonpayable",
			"type": "function"
		},
		{
			"inputs": [
				{
					"internalType": "address",
					"name": "_from",
					"type": "address"
				},
				{
					"internalType": "address",
					"name": "_to",
					"type": "address"
				}
			],
			"name": "transferToken",
			"outputs": [],
			"stateMutability": "nonpayable",
			"type": "function"
		}
	]
}