{
	"data": {
		"bytecode": {
			"linkReferences": {},
			"object": "608060405234801561000f575f5ffd5b50604051612bb3380380612bb3833981810160405281019061003191906102fd565b338383815f908161004291906105b1565b50806001908161005291906105b1565b5050505f73ffffffffffffffffffffffffffffffffffffffff168173ffffffffffffffffffffffffffffffffffffffff16036100c5575f6040517f1e4fbdf70000000000000000000000000000000000000000000000000000000081526004016100bc91906106bf565b60405180910390fd5b6100d4816100ed60201b60201c565b5080600890816100e491906105b1565b505050506106d8565b5f60065f9054906101000a900473ffffffffffffffffffffffffffffffffffffffff1690508160065f6101000a81548173ffffffffffffffffffffffffffffffffffffffff021916908373ffffffffffffffffffffffffffffffffffffffff1602179055508173ffffffffffffffffffffffffffffffffffffffff168173ffffffffffffffffffffffffffffffffffffffff167f8be0079c531659141344cd1fd0a4f28419497f9722a3daafe3b4186f6b6457e060405160405180910390a35050565b5f604051905090565b5f5ffd5b5f5ffd5b5f5ffd5b5f5ffd5b5f601f19601f8301169050919050565b7f4e487b71000000000000000000000000000000000000000000000000000000005f52604160045260245ffd5b61020f826101c9565b810181811067ffffffffffffffff8211171561022e5761022d6101d9565b5b80604052505050565b5f6102406101b0565b905061024c8282610206565b919050565b5f67ffffffffffffffff82111561026b5761026a6101d9565b5b610274826101c9565b9050602081019050919050565b8281835e5f83830152505050565b5f6102a161029c84610251565b610237565b9050828152602081018484840111156102bd576102bc6101c5565b5b6102c8848285610281565b509392505050565b5f82601f8301126102e4576102e36101c1565b5b81516102f484826020860161028f565b91505092915050565b5f5f5f60608486031215610314576103136101b9565b5b5f84015167ffffffffffffffff811115610331576103306101bd565b5b61033d868287016102d0565b935050602084015167ffffffffffffffff81111561035e5761035d6101bd565b5b61036a868287016102d0565b925050604084015167ffffffffffffffff81111561038b5761038a6101bd565b5b610397868287016102d0565b9150509250925092565b5f81519050919050565b7f4e487b71000000000000000000000000000000000000000000000000000000005f52602260045260245ffd5b5f60028204905060018216806103ef57607f821691505b602082108103610402576104016103ab565b5b50919050565b5f819050815f5260205f209050919050565b5f6020601f8301049050919050565b5f82821b905092915050565b5f600883026104647fffffffffffffffffffffffffffffffffffffffffffffffffffffffffffffffff82610429565b61046e8683610429565b95508019841693508086168417925050509392505050565b5f819050919050565b5f819050919050565b5f6104b26104ad6104a884610486565b61048f565b610486565b9050919050565b5f819050919050565b6104cb83610498565b6104df6104d7826104b9565b848454610435565b825550505050565b5f5f905090565b6104f66104e7565b6105018184846104c2565b505050565b5b81811015610524576105195f826104ee565b600181019050610507565b5050565b601f8211156105695761053a81610408565b6105438461041a565b81016020851015610552578190505b61056661055e8561041a565b830182610506565b50505b505050565b5f82821c905092915050565b5f6105895f198460080261056e565b1980831691505092915050565b5f6105a1838361057a565b9150826002028217905092915050565b6105ba826103a1565b67ffffffffffffffff8111156105d3576105d26101d9565b5b6105dd82546103d8565b6105e8828285610528565b5f60209050601f831160018114610619575f8415610607578287015190505b6106118582610596565b865550610678565b601f19841661062786610408565b5f5b8281101561064e57848901518255600182019150602085019450602081019050610629565b8683101561066b5784890151610667601f89168261057a565b8355505b6001600288020188555050505b505050505050565b5f73ffffffffffffffffffffffffffffffffffffffff82169050919050565b5f6106a982610680565b9050919050565b6106b98161069f565b82525050565b5f6020820190506106d25f8301846106b0565b92915050565b6124ce806106e55f395ff3fe608060405234801561000f575f5ffd5b506004361061011f575f3560e01c806370a08231116100ab578063b88d4fde1161006f578063b88d4fde14610303578063c395c8af1461031f578063c87b56dd1461033d578063e985e9c51461036d578063f2fde38b1461039d5761011f565b806370a0823114610271578063715018a6146102a15780638da5cb5b146102ab57806395d89b41146102c9578063a22cb465146102e75761011f565b806323b872dd116100f257806323b872dd146101bd57806342842e0e146101d957806354ba0f27146101f557806355f804b3146102255780636352211e146102415761011f565b806301ffc9a71461012357806306fdde0314610153578063081812fc14610171578063095ea7b3146101a1575b5f5ffd5b61013d60048036038101906101389190611a25565b6103b9565b60405161014a9190611a6a565b60405180910390f35b61015b61049a565b6040516101689190611af3565b60405180910390f35b61018b60048036038101906101869190611b46565b610529565b6040516101989190611bb0565b60405180910390f35b6101bb60048036038101906101b69190611bf3565b610544565b005b6101d760048036038101906101d29190611c31565b61055a565b005b6101f360048036038101906101ee9190611c31565b610659565b005b61020f600480360381019061020a9190611c81565b610678565b60405161021c9190611cbb565b60405180910390f35b61023f600480360381019061023a9190611e00565b6106ab565b005b61025b60048036038101906102569190611b46565b6106c6565b6040516102689190611bb0565b60405180910390f35b61028b60048036038101906102869190611c81565b6106d7565b6040516102989190611cbb565b60405180910390f35b6102a961078d565b005b6102b36107a0565b6040516102c09190611bb0565b60405180910390f35b6102d16107c8565b6040516102de9190611af3565b60405180910390f35b61030160048036038101906102fc9190611e71565b610858565b005b61031d60048036038101906103189190611f4d565b61086e565b005b610327610893565b6040516103349190611af3565b60405180910390f35b61035760048036038101906103529190611b46565b610923565b6040516103649190611af3565b60405180910390f35b61038760048036038101906103829190611fcd565b610989565b6040516103949190611a6a565b60405180910390f35b6103b760048036038101906103b29190611c81565b610a17565b005b5f7f80ac58cd000000000000000000000000000000000000000000000000000000007bffffffffffffffffffffffffffffffffffffffffffffffffffffffff1916827bffffffffffffffffffffffffffffffffffffffffffffffffffffffff1916148061048357507f5b5e139f000000000000000000000000000000000000000000000000000000007bffffffffffffffffffffffffffffffffffffffffffffffffffffffff1916827bffffffffffffffffffffffffffffffffffffffffffffffffffffffff1916145b80610493575061049282610a9b565b5b9050919050565b60605f80546104a890612038565b80601f01602080910402602001604051908101604052809291908181526020018280546104d490612038565b801561051f5780601f106104f65761010080835404028352916020019161051f565b820191905f5260205f20905b81548152906001019060200180831161050257829003601f168201915b5050505050905090565b5f61053382610b04565b5061053d82610b8a565b9050919050565b6105568282610551610bc3565b610bca565b5050565b5f73ffffffffffffffffffffffffffffffffffffffff168273ffffffffffffffffffffffffffffffffffffffff16036105ca575f6040517f64a0ae920000000000000000000000000000000000000000000000000000000081526004016105c19190611bb0565b60405180910390fd5b5f6105dd83836105d8610bc3565b610bdc565b90508373ffffffffffffffffffffffffffffffffffffffff168173ffffffffffffffffffffffffffffffffffffffff1614610653578382826040517f64283d7b00000000000000000000000000000000000000000000000000000000815260040161064a93929190612068565b60405180910390fd5b50505050565b61067383838360405180602001604052805f81525061086e565b505050565b5f610681610de7565b61068b6007610e6e565b5f6106966007610e82565b90506106a28382610e8e565b80915050919050565b6106b3610de7565b80600890816106c2919061223d565b5050565b5f6106d082610b04565b9050919050565b5f5f73ffffffffffffffffffffffffffffffffffffffff168273ffffffffffffffffffffffffffffffffffffffff1603610748575f6040517f89c62b6400000000000000000000000000000000000000000000000000000000815260040161073f9190611bb0565b60405180910390fd5b60035f8373ffffffffffffffffffffffffffffffffffffffff1673ffffffffffffffffffffffffffffffffffffffff1681526020019081526020015f20549050919050565b610795610de7565b61079e5f610eab565b565b5f60065f9054906101000a900473ffffffffffffffffffffffffffffffffffffffff16905090565b6060600180546107d790612038565b80601f016020809104026020016040519081016040528092919081815260200182805461080390612038565b801561084e5780601f106108255761010080835404028352916020019161084e565b820191905f5260205f20905b81548152906001019060200180831161083157829003601f168201915b5050505050905090565b61086a610863610bc3565b8383610f6e565b5050565b61087984848461055a565b61088d610884610bc3565b858585856110d7565b50505050565b6060600880546108a290612038565b80601f01602080910402602001604051908101604052809291908181526020018280546108ce90612038565b80156109195780601f106108f057610100808354040283529160200191610919565b820191905f5260205f20905b8154815290600101906020018083116108fc57829003601f168201915b5050505050905090565b606061092e82610b04565b505f610938611283565b90505f8151116109565760405180602001604052805f815250610981565b8061096084611313565b604051602001610971929190612346565b6040516020818303038152906040525b915050919050565b5f60055f8473ffffffffffffffffffffffffffffffffffffffff1673ffffffffffffffffffffffffffffffffffffffff1681526020019081526020015f205f8373ffffffffffffffffffffffffffffffffffffffff1673ffffffffffffffffffffffffffffffffffffffff1681526020019081526020015f205f9054906101000a900460ff16905092915050565b610a1f610de7565b5f73ffffffffffffffffffffffffffffffffffffffff168173ffffffffffffffffffffffffffffffffffffffff1603610a8f575f6040517f1e4fbdf7000000000000000000000000000000000000000000000000000000008152600401610a869190611bb0565b60405180910390fd5b610a9881610eab565b50565b5f7f01ffc9a7000000000000000000000000000000000000000000000000000000007bffffffffffffffffffffffffffffffffffffffffffffffffffffffff1916827bffffffffffffffffffffffffffffffffffffffffffffffffffffffff1916149050919050565b5f5f610b0f836113dd565b90505f73ffffffffffffffffffffffffffffffffffffffff168173ffffffffffffffffffffffffffffffffffffffff1603610b8157826040517f7e273289000000000000000000000000000000000000000000000000000000008152600401610b789190611cbb565b60405180910390fd5b80915050919050565b5f60045f8381526020019081526020015f205f9054906101000a900473ffffffffffffffffffffffffffffffffffffffff169050919050565b5f33905090565b610bd78383836001611416565b505050565b5f5f610be7846113dd565b90505f73ffffffffffffffffffffffffffffffffffffffff168373ffffffffffffffffffffffffffffffffffffffff1614610c2857610c278184866115d5565b5b5f73ffffffffffffffffffffffffffffffffffffffff168173ffffffffffffffffffffffffffffffffffffffff1614610cb357610c675f855f5f611416565b600160035f8373ffffffffffffffffffffffffffffffffffffffff1673ffffffffffffffffffffffffffffffffffffffff1681526020019081526020015f205f82825403925050819055505b5f73ffffffffffffffffffffffffffffffffffffffff168573ffffffffffffffffffffffffffffffffffffffff1614610d3257600160035f8773ffffffffffffffffffffffffffffffffffffffff1673ffffffffffffffffffffffffffffffffffffffff1681526020019081526020015f205f82825401925050819055505b8460025f8681526020019081526020015f205f6101000a81548173ffffffffffffffffffffffffffffffffffffffff021916908373ffffffffffffffffffffffffffffffffffffffff160217905550838573ffffffffffffffffffffffffffffffffffffffff168273ffffffffffffffffffffffffffffffffffffffff167fddf252ad1be2c89b69c2b068fc378daa952ba7f163c4a11628f55a4df523b3ef60405160405180910390a4809150509392505050565b610def610bc3565b73ffffffffffffffffffffffffffffffffffffffff16610e0d6107a0565b73ffffffffffffffffffffffffffffffffffffffff1614610e6c57610e30610bc3565b6040517f118cdaa7000000000000000000000000000000000000000000000000000000008152600401610e639190611bb0565b60405180910390fd5b565b6001815f015f828254019250508190555050565b5f815f01549050919050565b610ea7828260405180602001604052805f815250611698565b5050565b5f60065f9054906101000a900473ffffffffffffffffffffffffffffffffffffffff1690508160065f6101000a81548173ffffffffffffffffffffffffffffffffffffffff021916908373ffffffffffffffffffffffffffffffffffffffff1602179055508173ffffffffffffffffffffffffffffffffffffffff168173ffffffffffffffffffffffffffffffffffffffff167f8be0079c531659141344cd1fd0a4f28419497f9722a3daafe3b4186f6b6457e060405160405180910390a35050565b5f73ffffffffffffffffffffffffffffffffffffffff168273ffffffffffffffffffffffffffffffffffffffff1603610fde57816040517f5b08ba18000000000000000000000000000000000000000000000000000000008152600401610fd59190611bb0565b60405180910390fd5b8060055f8573ffffffffffffffffffffffffffffffffffffffff1673ffffffffffffffffffffffffffffffffffffffff1681526020019081526020015f205f8473ffffffffffffffffffffffffffffffffffffffff1673ffffffffffffffffffffffffffffffffffffffff1681526020019081526020015f205f6101000a81548160ff0219169083151502179055508173ffffffffffffffffffffffffffffffffffffffff168373ffffffffffffffffffffffffffffffffffffffff167f17307eab39ab6107e8899845ad3d59bd9653f200f220920489ca2b5937696c31836040516110ca9190611a6a565b60405180910390a3505050565b5f8373ffffffffffffffffffffffffffffffffffffffff163b111561127c578273ffffffffffffffffffffffffffffffffffffffff1663150b7a02868685856040518563ffffffff1660e01b815260040161113594939291906123bb565b6020604051808303815f875af192505050801561117057506040513d601f19601f8201168201806040525081019061116d9190612419565b60015b6111f1573d805f811461119e576040519150601f19603f3d011682016040523d82523d5f602084013e6111a3565b606091505b505f8151036111e957836040517f64a0ae920000000000000000000000000000000000000000000000000000000081526004016111e09190611bb0565b60405180910390fd5b805181602001fd5b63150b7a0260e01b7bffffffffffffffffffffffffffffffffffffffffffffffffffffffff1916817bffffffffffffffffffffffffffffffffffffffffffffffffffffffff19161461127a57836040517f64a0ae920000000000000000000000000000000000000000000000000000000081526004016112719190611bb0565b60405180910390fd5b505b5050505050565b60606008805461129290612038565b80601f01602080910402602001604051908101604052809291908181526020018280546112be90612038565b80156113095780601f106112e057610100808354040283529160200191611309565b820191905f5260205f20905b8154815290600101906020018083116112ec57829003601f168201915b5050505050905090565b60605f6001611321846116bb565b0190505f8167ffffffffffffffff81111561133f5761133e611cdc565b5b6040519080825280601f01601f1916602001820160405280156113715781602001600182028036833780820191505090505b5090505f82602001820190505b6001156113d2578080600190039150507f3031323334353637383961626364656600000000000000000000000000000000600a86061a8153600a85816113c7576113c6612444565b5b0494505f850361137e575b819350505050919050565b5f60025f8381526020019081526020015f205f9054906101000a900473ffffffffffffffffffffffffffffffffffffffff169050919050565b808061144e57505f73ffffffffffffffffffffffffffffffffffffffff168273ffffffffffffffffffffffffffffffffffffffff1614155b15611580575f61145d84610b04565b90505f73ffffffffffffffffffffffffffffffffffffffff168373ffffffffffffffffffffffffffffffffffffffff16141580156114c757508273ffffffffffffffffffffffffffffffffffffffff168173ffffffffffffffffffffffffffffffffffffffff1614155b80156114da57506114d88184610989565b155b1561151c57826040517fa9fbf51f0000000000000000000000000000000000000000000000000000000081526004016115139190611bb0565b60405180910390fd5b811561157e57838573ffffffffffffffffffffffffffffffffffffffff168273ffffffffffffffffffffffffffffffffffffffff167f8c5be1e5ebec7d5bd14f71427d1e84f3dd0314c0f7b2291e5b200ac8c7c3b92560405160405180910390a45b505b8360045f8581526020019081526020015f205f6101000a81548173ffffffffffffffffffffffffffffffffffffffff021916908373ffffffffffffffffffffffffffffffffffffffff16021790555050505050565b6115e083838361180c565b611693575f73ffffffffffffffffffffffffffffffffffffffff168373ffffffffffffffffffffffffffffffffffffffff160361165457806040517f7e27328900000000000000000000000000000000000000000000000000000000815260040161164b9190611cbb565b60405180910390fd5b81816040517f177e802f00000000000000000000000000000000000000000000000000000000815260040161168a929190612471565b60405180910390fd5b505050565b6116a283836118cc565b6116b66116ad610bc3565b5f8585856110d7565b505050565b5f5f5f90507a184f03e93ff9f4daa797ed6e38ed64bf6a1f0100000000000000008310611717577a184f03e93ff9f4daa797ed6e38ed64bf6a1f010000000000000000838161170d5761170c612444565b5b0492506040810190505b6d04ee2d6d415b85acef81000000008310611754576d04ee2d6d415b85acef8100000000838161174a57611749612444565b5b0492506020810190505b662386f26fc10000831061178357662386f26fc10000838161177957611778612444565b5b0492506010810190505b6305f5e10083106117ac576305f5e10083816117a2576117a1612444565b5b0492506008810190505b61271083106117d15761271083816117c7576117c6612444565b5b0492506004810190505b606483106117f457606483816117ea576117e9612444565b5b0492506002810190505b600a8310611803576001810190505b80915050919050565b5f5f73ffffffffffffffffffffffffffffffffffffffff168373ffffffffffffffffffffffffffffffffffffffff16141580156118c357508273ffffffffffffffffffffffffffffffffffffffff168473ffffffffffffffffffffffffffffffffffffffff16148061188457506118838484610989565b5b806118c257508273ffffffffffffffffffffffffffffffffffffffff166118aa83610b8a565b73ffffffffffffffffffffffffffffffffffffffff16145b5b90509392505050565b5f73ffffffffffffffffffffffffffffffffffffffff168273ffffffffffffffffffffffffffffffffffffffff160361193c575f6040517f64a0ae920000000000000000000000000000000000000000000000000000000081526004016119339190611bb0565b60405180910390fd5b5f61194883835f610bdc565b90505f73ffffffffffffffffffffffffffffffffffffffff168173ffffffffffffffffffffffffffffffffffffffff16146119ba575f6040517f73c6ac6e0000000000000000000000000000000000000000000000000000000081526004016119b19190611bb0565b60405180910390fd5b505050565b5f604051905090565b5f5ffd5b5f5ffd5b5f7fffffffff0000000000000000000000000000000000000000000000000000000082169050919050565b611a04816119d0565b8114611a0e575f5ffd5b50565b5f81359050611a1f816119fb565b92915050565b5f60208284031215611a3a57611a396119c8565b5b5f611a4784828501611a11565b91505092915050565b5f8115159050919050565b611a6481611a50565b82525050565b5f602082019050611a7d5f830184611a5b565b92915050565b5f81519050919050565b5f82825260208201905092915050565b8281835e5f83830152505050565b5f601f19601f8301169050919050565b5f611ac582611a83565b611acf8185611a8d565b9350611adf818560208601611a9d565b611ae881611aab565b840191505092915050565b5f6020820190508181035f830152611b0b8184611abb565b905092915050565b5f819050919050565b611b2581611b13565b8114611b2f575f5ffd5b50565b5f81359050611b4081611b1c565b92915050565b5f60208284031215611b5b57611b5a6119c8565b5b5f611b6884828501611b32565b91505092915050565b5f73ffffffffffffffffffffffffffffffffffffffff82169050919050565b5f611b9a82611b71565b9050919050565b611baa81611b90565b82525050565b5f602082019050611bc35f830184611ba1565b92915050565b611bd281611b90565b8114611bdc575f5ffd5b50565b5f81359050611bed81611bc9565b92915050565b5f5f60408385031215611c0957611c086119c8565b5b5f611c1685828601611bdf565b9250506020611c2785828601611b32565b9150509250929050565b5f5f5f60608486031215611c4857611c476119c8565b5b5f611c5586828701611bdf565b9350506020611c6686828701611bdf565b9250506040611c7786828701611b32565b9150509250925092565b5f60208284031215611c9657611c956119c8565b5b5f611ca384828501611bdf565b91505092915050565b611cb581611b13565b82525050565b5f602082019050611cce5f830184611cac565b92915050565b5f5ffd5b5f5ffd5b7f4e487b71000000000000000000000000000000000000000000000000000000005f52604160045260245ffd5b611d1282611aab565b810181811067ffffffffffffffff82111715611d3157611d30611cdc565b5b80604052505050565b5f611d436119bf565b9050611d4f8282611d09565b919050565b5f67ffffffffffffffff821115611d6e57611d6d611cdc565b5b611d7782611aab565b9050602081019050919050565b828183375f83830152505050565b5f611da4611d9f84611d54565b611d3a565b905082815260208101848484011115611dc057611dbf611cd8565b5b611dcb848285611d84565b509392505050565b5f82601f830112611de757611de6611cd4565b5b8135611df7848260208601611d92565b91505092915050565b5f60208284031215611e1557611e146119c8565b5b5f82013567ffffffffffffffff811115611e3257611e316119cc565b5b611e3e84828501611dd3565b91505092915050565b611e5081611a50565b8114611e5a575f5ffd5b50565b5f81359050611e6b81611e47565b92915050565b5f5f60408385031215611e8757611e866119c8565b5b5f611e9485828601611bdf565b9250506020611ea585828601611e5d565b9150509250929050565b5f67ffffffffffffffff821115611ec957611ec8611cdc565b5b611ed282611aab565b9050602081019050919050565b5f611ef1611eec84611eaf565b611d3a565b905082815260208101848484011115611f0d57611f0c611cd8565b5b611f18848285611d84565b509392505050565b5f82601f830112611f3457611f33611cd4565b5b8135611f44848260208601611edf565b91505092915050565b5f5f5f5f60808587031215611f6557611f646119c8565b5b5f611f7287828801611bdf565b9450506020611f8387828801611bdf565b9350506040611f9487828801611b32565b925050606085013567ffffffffffffffff811115611fb557611fb46119cc565b5b611fc187828801611f20565b91505092959194509250565b5f5f60408385031215611fe357611fe26119c8565b5b5f611ff085828601611bdf565b925050602061200185828601611bdf565b9150509250929050565b7f4e487b71000000000000000000000000000000000000000000000000000000005f52602260045260245ffd5b5f600282049050600182168061204f57607f821691505b6020821081036120625761206161200b565b5b50919050565b5f60608201905061207b5f830186611ba1565b6120886020830185611cac565b6120956040830184611ba1565b949350505050565b5f819050815f5260205f209050919050565b5f6020601f8301049050919050565b5f82821b905092915050565b5f600883026120f97fffffffffffffffffffffffffffffffffffffffffffffffffffffffffffffffff826120be565b61210386836120be565b95508019841693508086168417925050509392505050565b5f819050919050565b5f61213e61213961213484611b13565b61211b565b611b13565b9050919050565b5f819050919050565b61215783612124565b61216b61216382612145565b8484546120ca565b825550505050565b5f5f905090565b612182612173565b61218d81848461214e565b505050565b5b818110156121b0576121a55f8261217a565b600181019050612193565b5050565b601f8211156121f5576121c68161209d565b6121cf846120af565b810160208510156121de578190505b6121f26121ea856120af565b830182612192565b50505b505050565b5f82821c905092915050565b5f6122155f19846008026121fa565b1980831691505092915050565b5f61222d8383612206565b9150826002028217905092915050565b61224682611a83565b67ffffffffffffffff81111561225f5761225e611cdc565b5b6122698254612038565b6122748282856121b4565b5f60209050601f8311600181146122a5575f8415612293578287015190505b61229d8582612222565b865550612304565b601f1984166122b38661209d565b5f5b828110156122da578489015182556001820191506020850194506020810190506122b5565b868310156122f757848901516122f3601f891682612206565b8355505b6001600288020188555050505b505050505050565b5f81905092915050565b5f61232082611a83565b61232a818561230c565b935061233a818560208601611a9d565b80840191505092915050565b5f6123518285612316565b915061235d8284612316565b91508190509392505050565b5f81519050919050565b5f82825260208201905092915050565b5f61238d82612369565b6123978185612373565b93506123a7818560208601611a9d565b6123b081611aab565b840191505092915050565b5f6080820190506123ce5f830187611ba1565b6123db6020830186611ba1565b6123e86040830185611cac565b81810360608301526123fa8184612383565b905095945050505050565b5f81519050612413816119fb565b92915050565b5f6020828403121561242e5761242d6119c8565b5b5f61243b84828501612405565b91505092915050565b7f4e487b71000000000000000000000000000000000000000000000000000000005f52601260045260245ffd5b5f6040820190506124845f830185611ba1565b6124916020830184611cac565b939250505056fea2646970667358221220f21a5a85f0092a55c46568a763703dfb34903d64001457479a1d2f89f62c33fb64736f6c634300081c0033",
			"opcodes": "PUSH1 0x80 PUSH1 0x40 MSTORE CALLVALUE DUP1 ISZERO PUSH2 0xF JUMPI PUSH0 PUSH0 REVERT JUMPDEST POP PUSH1 0x40 MLOAD PUSH2 0x2BB3 CODESIZE SUB DUP1 PUSH2 0x2BB3 DUP4 CODECOPY DUP2 DUP2 ADD PUSH1 0x40 MSTORE DUP2 ADD SWAP1 PUSH2 0x31 SWAP2 SWAP1 PUSH2 0x2FD JUMP JUMPDEST CALLER DUP4 DUP4 DUP2 PUSH0 SWAP1 DUP2 PUSH2 0x42 SWAP2 SWAP1 PUSH2 0x5B1 JUMP JUMPDEST POP DUP1 PUSH1 0x1 SWAP1 DUP2 PUSH2 0x52 SWAP2 SWAP1 PUSH2 0x5B1 JUMP JUMPDEST POP POP POP PUSH0 PUSH20 0xFFFFFFFFFFFFFFFFFFFFFFFFFFFFFFFFFFFFFFFF AND DUP2 PUSH20 0xFFFFFFFFFFFFFFFFFFFFFFFFFFFFFFFFFFFFFFFF AND SUB PUSH2 0xC5 JUMPI PUSH0 PUSH1 0x40 MLOAD PUSH32 0x1E4FBDF700000000000000000000000000000000000000000000000000000000 DUP2 MSTORE PUSH1 0x4 ADD PUSH2 0xBC SWAP2 SWAP1 PUSH2 0x6BF JUMP JUMPDEST PUSH1 0x40 MLOAD DUP1 SWAP2 SUB SWAP1 REVERT JUMPDEST PUSH2 0xD4 DUP2 PUSH2 0xED PUSH1 0x20 SHL PUSH1 0x20 SHR JUMP JUMPDEST POP DUP1 PUSH1 0x8 SWAP1 DUP2 PUSH2 0xE4 SWAP2 SWAP1 PUSH2 0x5B1 JUMP JUMPDEST POP POP POP POP PUSH2 0x6D8 JUMP JUMPDEST PUSH0 PUSH1 0x6 PUSH0 SWAP1 SLOAD SWAP1 PUSH2 0x100 EXP SWAP1 DIV PUSH20 0xFFFFFFFFFFFFFFFFFFFFFFFFFFFFFFFFFFFFFFFF AND SWAP1 POP DUP2 PUSH1 0x6 PUSH0 PUSH2 0x100 EXP DUP2 SLOAD DUP2 PUSH20 0xFFFFFFFFFFFFFFFFFFFFFFFFFFFFFFFFFFFFFFFF MUL NOT AND SWAP1 DUP4 PUSH20 0xFFFFFFFFFFFFFFFFFFFFFFFFFFFFFFFFFFFFFFFF AND MUL OR SWAP1 SSTORE POP DUP2 PUSH20 0xFFFFFFFFFFFFFFFFFFFFFFFFFFFFFFFFFFFFFFFF AND DUP2 PUSH20 0xFFFFFFFFFFFFFFFFFFFFFFFFFFFFFFFFFFFFFFFF AND PUSH32 0x8BE0079C531659141344CD1FD0A4F28419497F9722A3DAAFE3B4186F6B6457E0 PUSH1 0x40 MLOAD PUSH1 0x40 MLOAD DUP1 SWAP2 SUB SWAP1 LOG3 POP POP JUMP JUMPDEST PUSH0 PUSH1 0x40 MLOAD SWAP1 POP SWAP1 JUMP JUMPDEST PUSH0 PUSH0 REVERT JUMPDEST PUSH0 PUSH0 REVERT JUMPDEST PUSH0 PUSH0 REVERT JUMPDEST PUSH0 PUSH0 REVERT JUMPDEST PUSH0 PUSH1 0x1F NOT PUSH1 0x1F DUP4 ADD AND SWAP1 POP SWAP2 SWAP1 POP JUMP JUMPDEST PUSH32 0x4E487B7100000000000000000000000000000000000000000000000000000000 PUSH0 MSTORE PUSH1 0x41 PUSH1 0x4 MSTORE PUSH1 0x24 PUSH0 REVERT JUMPDEST PUSH2 0x20F DUP3 PUSH2 0x1C9 JUMP JUMPDEST DUP2 ADD DUP2 DUP2 LT PUSH8 0xFFFFFFFFFFFFFFFF DUP3 GT OR ISZERO PUSH2 0x22E JUMPI PUSH2 0x22D PUSH2 0x1D9 JUMP JUMPDEST JUMPDEST DUP1 PUSH1 0x40 MSTORE POP POP POP JUMP JUMPDEST PUSH0 PUSH2 0x240 PUSH2 0x1B0 JUMP JUMPDEST SWAP1 POP PUSH2 0x24C DUP3 DUP3 PUSH2 0x206 JUMP JUMPDEST SWAP2 SWAP1 POP JUMP JUMPDEST PUSH0 PUSH8 0xFFFFFFFFFFFFFFFF DUP3 GT ISZERO PUSH2 0x26B JUMPI PUSH2 0x26A PUSH2 0x1D9 JUMP JUMPDEST JUMPDEST PUSH2 0x274 DUP3 PUSH2 0x1C9 JUMP JUMPDEST SWAP1 POP PUSH1 0x20 DUP2 ADD SWAP1 POP SWAP2 SWAP1 POP JUMP JUMPDEST DUP3 DUP2 DUP4 MCOPY PUSH0 DUP4 DUP4 ADD MSTORE POP POP POP JUMP JUMPDEST PUSH0 PUSH2 0x2A1 PUSH2 0x29C DUP5 PUSH2 0x251 JUMP JUMPDEST PUSH2 0x237 JUMP JUMPDEST SWAP1 POP DUP3 DUP2 MSTORE PUSH1 0x20 DUP2 ADD DUP5 DUP5 DUP5 ADD GT ISZERO PUSH2 0x2BD JUMPI PUSH2 0x2BC PUSH2 0x1C5 JUMP JUMPDEST JUMPDEST PUSH2 0x2C8 DUP5 DUP3 DUP6 PUSH2 0x281 JUMP JUMPDEST POP SWAP4 SWAP3 POP POP POP JUMP JUMPDEST PUSH0 DUP3 PUSH1 0x1F DUP4 ADD SLT PUSH2 0x2E4 JUMPI PUSH2 0x2E3 PUSH2 0x1C1 JUMP JUMPDEST JUMPDEST DUP2 MLOAD PUSH2 0x2F4 DUP5 DUP3 PUSH1 0x20 DUP7 ADD PUSH2 0x28F JUMP JUMPDEST SWAP2 POP POP SWAP3 SWAP2 POP POP JUMP JUMPDEST PUSH0 PUSH0 PUSH0 PUSH1 0x60 DUP5 DUP7 SUB SLT ISZERO PUSH2 0x314 JUMPI PUSH2 0x313 PUSH2 0x1B9 JUMP JUMPDEST JUMPDEST PUSH0 DUP5 ADD MLOAD PUSH8 0xFFFFFFFFFFFFFFFF DUP2 GT ISZERO PUSH2 0x331 JUMPI PUSH2 0x330 PUSH2 0x1BD JUMP JUMPDEST JUMPDEST PUSH2 0x33D DUP7 DUP3 DUP8 ADD PUSH2 0x2D0 JUMP JUMPDEST SWAP4 POP POP PUSH1 0x20 DUP5 ADD MLOAD PUSH8 0xFFFFFFFFFFFFFFFF DUP2 GT ISZERO PUSH2 0x35E JUMPI PUSH2 0x35D PUSH2 0x1BD JUMP JUMPDEST JUMPDEST PUSH2 0x36A DUP7 DUP3 DUP8 ADD PUSH2 0x2D0 JUMP JUMPDEST SWAP3 POP POP PUSH1 0x40 DUP5 ADD MLOAD PUSH8 0xFFFFFFFFFFFFFFFF DUP2 GT ISZERO PUSH2 0x38B JUMPI PUSH2 0x38A PUSH2 0x1BD JUMP JUMPDEST JUMPDEST PUSH2 0x397 DUP7 DUP3 DUP8 ADD PUSH2 0x2D0 JUMP JUMPDEST SWAP2 POP POP SWAP3 POP SWAP3 POP SWAP3 JUMP JUMPDEST PUSH0 DUP2 MLOAD SWAP1 POP SWAP2 SWAP1 POP JUMP JUMPDEST PUSH32 0x4E487B7100000000000000000000000000000000000000000000000000000000 PUSH0 MSTORE PUSH1 0x22 PUSH1 0x4 MSTORE PUSH1 0x24 PUSH0 REVERT JUMPDEST PUSH0 PUSH1 0x2 DUP3 DIV SWAP1 POP PUSH1 0x1 DUP3 AND DUP1 PUSH2 0x3EF JUMPI PUSH1 0x7F DUP3 AND SWAP2 POP JUMPDEST PUSH1 0x20 DUP3 LT DUP2 SUB PUSH2 0x402 JUMPI PUSH2 0x401 PUSH2 0x3AB JUMP JUMPDEST JUMPDEST POP SWAP2 SWAP1 POP JUMP JUMPDEST PUSH0 DUP2 SWAP1 POP DUP2 PUSH0 MSTORE PUSH1 0x20 PUSH0 KECCAK256 SWAP1 POP SWAP2 SWAP1 POP JUMP JUMPDEST PUSH0 PUSH1 0x20 PUSH1 0x1F DUP4 ADD DIV SWAP1 POP SWAP2 SWAP1 POP JUMP JUMPDEST PUSH0 DUP3 DUP3 SHL SWAP1 POP SWAP3 SWAP2 POP POP JUMP JUMPDEST PUSH0 PUSH1 0x8 DUP4 MUL PUSH2 0x464 PUSH32 0xFFFFFFFFFFFFFFFFFFFFFFFFFFFFFFFFFFFFFFFFFFFFFFFFFFFFFFFFFFFFFFFF DUP3 PUSH2 0x429 JUMP JUMPDEST PUSH2 0x46E DUP7 DUP4 PUSH2 0x429 JUMP JUMPDEST SWAP6 POP DUP1 NOT DUP5 AND SWAP4 POP DUP1 DUP7 AND DUP5 OR SWAP3 POP POP POP SWAP4 SWAP3 POP POP POP JUMP JUMPDEST PUSH0 DUP2 SWAP1 POP SWAP2 SWAP1 POP JUMP JUMPDEST PUSH0 DUP2 SWAP1 POP SWAP2 SWAP1 POP JUMP JUMPDEST PUSH0 PUSH2 0x4B2 PUSH2 0x4AD PUSH2 0x4A8 DUP5 PUSH2 0x486 JUMP JUMPDEST PUSH2 0x48F JUMP JUMPDEST PUSH2 0x486 JUMP JUMPDEST SWAP1 POP SWAP2 SWAP1 POP JUMP JUMPDEST PUSH0 DUP2 SWAP1 POP SWAP2 SWAP1 POP JUMP JUMPDEST PUSH2 0x4CB DUP4 PUSH2 0x498 JUMP JUMPDEST PUSH2 0x4DF PUSH2 0x4D7 DUP3 PUSH2 0x4B9 JUMP JUMPDEST DUP5 DUP5 SLOAD PUSH2 0x435 JUMP JUMPDEST DUP3 SSTORE POP POP POP POP JUMP JUMPDEST PUSH0 PUSH0 SWAP1 POP SWAP1 JUMP JUMPDEST PUSH2 0x4F6 PUSH2 0x4E7 JUMP JUMPDEST PUSH2 0x501 DUP2 DUP5 DUP5 PUSH2 0x4C2 JUMP JUMPDEST POP POP POP JUMP JUMPDEST JUMPDEST DUP2 DUP2 LT ISZERO PUSH2 0x524 JUMPI PUSH2 0x519 PUSH0 DUP3 PUSH2 0x4EE JUMP JUMPDEST PUSH1 0x1 DUP2 ADD SWAP1 POP PUSH2 0x507 JUMP JUMPDEST POP POP JUMP JUMPDEST PUSH1 0x1F DUP3 GT ISZERO PUSH2 0x569 JUMPI PUSH2 0x53A DUP2 PUSH2 0x408 JUMP JUMPDEST PUSH2 0x543 DUP5 PUSH2 0x41A JUMP JUMPDEST DUP2 ADD PUSH1 0x20 DUP6 LT ISZERO PUSH2 0x552 JUMPI DUP2 SWAP1 POP JUMPDEST PUSH2 0x566 PUSH2 0x55E DUP6 PUSH2 0x41A JUMP JUMPDEST DUP4 ADD DUP3 PUSH2 0x506 JUMP JUMPDEST POP POP JUMPDEST POP POP POP JUMP JUMPDEST PUSH0 DUP3 DUP3 SHR SWAP1 POP SWAP3 SWAP2 POP POP JUMP JUMPDEST PUSH0 PUSH2 0x589 PUSH0 NOT DUP5 PUSH1 0x8 MUL PUSH2 0x56E JUMP JUMPDEST NOT DUP1 DUP4 AND SWAP2 POP POP SWAP3 SWAP2 POP POP JUMP JUMPDEST PUSH0 PUSH2 0x5A1 DUP4 DUP4 PUSH2 0x57A JUMP JUMPDEST SWAP2 POP DUP3 PUSH1 0x2 MUL DUP3 OR SWAP1 POP SWAP3 SWAP2 POP POP JUMP JUMPDEST PUSH2 0x5BA DUP3 PUSH2 0x3A1 JUMP JUMPDEST PUSH8 0xFFFFFFFFFFFFFFFF DUP2 GT ISZERO PUSH2 0x5D3 JUMPI PUSH2 0x5D2 PUSH2 0x1D9 JUMP JUMPDEST JUMPDEST PUSH2 0x5DD DUP3 SLOAD PUSH2 0x3D8 JUMP JUMPDEST PUSH2 0x5E8 DUP3 DUP3 DUP6 PUSH2 0x528 JUMP JUMPDEST PUSH0 PUSH1 0x20 SWAP1 POP PUSH1 0x1F DUP4 GT PUSH1 0x1 DUP2 EQ PUSH2 0x619 JUMPI PUSH0 DUP5 ISZERO PUSH2 0x607 JUMPI DUP3 DUP8 ADD MLOAD SWAP1 POP JUMPDEST PUSH2 0x611 DUP6 DUP3 PUSH2 0x596 JUMP JUMPDEST DUP7 SSTORE POP PUSH2 0x678 JUMP JUMPDEST PUSH1 0x1F NOT DUP5 AND PUSH2 0x627 DUP7 PUSH2 0x408 JUMP JUMPDEST PUSH0 JUMPDEST DUP3 DUP2 LT ISZERO PUSH2 0x64E JUMPI DUP5 DUP10 ADD MLOAD DUP3 SSTORE PUSH1 0x1 DUP3 ADD SWAP2 POP PUSH1 0x20 DUP6 ADD SWAP5 POP PUSH1 0x20 DUP2 ADD SWAP1 POP PUSH2 0x629 JUMP JUMPDEST DUP7 DUP4 LT ISZERO PUSH2 0x66B JUMPI DUP5 DUP10 ADD MLOAD PUSH2 0x667 PUSH1 0x1F DUP10 AND DUP3 PUSH2 0x57A JUMP JUMPDEST DUP4 SSTORE POP JUMPDEST PUSH1 0x1 PUSH1 0x2 DUP9 MUL ADD DUP9 SSTORE POP POP POP JUMPDEST POP POP POP POP POP POP JUMP JUMPDEST PUSH0 PUSH20 0xFFFFFFFFFFFFFFFFFFFFFFFFFFFFFFFFFFFFFFFF DUP3 AND SWAP1 POP SWAP2 SWAP1 POP JUMP JUMPDEST PUSH0 PUSH2 0x6A9 DUP3 PUSH2 0x680 JUMP JUMPDEST SWAP1 POP SWAP2 SWAP1 POP JUMP JUMPDEST PUSH2 0x6B9 DUP2 PUSH2 0x69F JUMP JUMPDEST DUP3 MSTORE POP POP JUMP JUMPDEST PUSH0 PUSH1 0x20 DUP3 ADD SWAP1 POP PUSH2 0x6D2 PUSH0 DUP4 ADD DUP5 PUSH2 0x6B0 JUMP JUMPDEST SWAP3 SWAP2 POP POP JUMP JUMPDEST PUSH2 0x24CE DUP1 PUSH2 0x6E5 PUSH0 CODECOPY PUSH0 RETURN INVALID PUSH1 0x80 PUSH1 0x40 MSTORE CALLVALUE DUP1 ISZERO PUSH2 0xF JUMPI PUSH0 PUSH0 REVERT JUMPDEST POP PUSH1 0x4 CALLDATASIZE LT PUSH2 0x11F JUMPI PUSH0 CALLDATALOAD PUSH1 0xE0 SHR DUP1 PUSH4 0x70A08231 GT PUSH2 0xAB JUMPI DUP1 PUSH4 0xB88D4FDE GT PUSH2 0x6F JUMPI DUP1 PUSH4 0xB88D4FDE EQ PUSH2 0x303 JUMPI DUP1 PUSH4 0xC395C8AF EQ PUSH2 0x31F JUMPI DUP1 PUSH4 0xC87B56DD EQ PUSH2 0x33D JUMPI DUP1 PUSH4 0xE985E9C5 EQ PUSH2 0x36D JUMPI DUP1 PUSH4 0xF2FDE38B EQ PUSH2 0x39D JUMPI PUSH2 0x11F JUMP JUMPDEST DUP1 PUSH4 0x70A08231 EQ PUSH2 0x271 JUMPI DUP1 PUSH4 0x715018A6 EQ PUSH2 0x2A1 JUMPI DUP1 PUSH4 0x8DA5CB5B EQ PUSH2 0x2AB JUMPI DUP1 PUSH4 0x95D89B41 EQ PUSH2 0x2C9 JUMPI DUP1 PUSH4 0xA22CB465 EQ PUSH2 0x2E7 JUMPI PUSH2 0x11F JUMP JUMPDEST DUP1 PUSH4 0x23B872DD GT PUSH2 0xF2 JUMPI DUP1 PUSH4 0x23B872DD EQ PUSH2 0x1BD JUMPI DUP1 PUSH4 0x42842E0E EQ PUSH2 0x1D9 JUMPI DUP1 PUSH4 0x54BA0F27 EQ PUSH2 0x1F5 JUMPI DUP1 PUSH4 0x55F804B3 EQ PUSH2 0x225 JUMPI DUP1 PUSH4 0x6352211E EQ PUSH2 0x241 JUMPI PUSH2 0x11F JUMP JUMPDEST DUP1 PUSH4 0x1FFC9A7 EQ PUSH2 0x123 JUMPI DUP1 PUSH4 0x6FDDE03 EQ PUSH2 0x153 JUMPI DUP1 PUSH4 0x81812FC EQ PUSH2 0x171 JUMPI DUP1 PUSH4 0x95EA7B3 EQ PUSH2 0x1A1 JUMPI JUMPDEST PUSH0 PUSH0 REVERT JUMPDEST PUSH2 0x13D PUSH1 0x4 DUP1 CALLDATASIZE SUB DUP2 ADD SWAP1 PUSH2 0x138 SWAP2 SWAP1 PUSH2 0x1A25 JUMP JUMPDEST PUSH2 0x3B9 JUMP JUMPDEST PUSH1 0x40 MLOAD PUSH2 0x14A SWAP2 SWAP1 PUSH2 0x1A6A JUMP JUMPDEST PUSH1 0x40 MLOAD DUP1 SWAP2 SUB SWAP1 RETURN JUMPDEST PUSH2 0x15B PUSH2 0x49A JUMP JUMPDEST PUSH1 0x40 MLOAD PUSH2 0x168 SWAP2 SWAP1 PUSH2 0x1AF3 JUMP JUMPDEST PUSH1 0x40 MLOAD DUP1 SWAP2 SUB SWAP1 RETURN JUMPDEST PUSH2 0x18B PUSH1 0x4 DUP1 CALLDATASIZE SUB DUP2 ADD SWAP1 PUSH2 0x186 SWAP2 SWAP1 PUSH2 0x1B46 JUMP JUMPDEST PUSH2 0x529 JUMP JUMPDEST PUSH1 0x40 MLOAD PUSH2 0x198 SWAP2 SWAP1 PUSH2 0x1BB0 JUMP JUMPDEST PUSH1 0x40 MLOAD DUP1 SWAP2 SUB SWAP1 RETURN JUMPDEST PUSH2 0x1BB PUSH1 0x4 DUP1 CALLDATASIZE SUB DUP2 ADD SWAP1 PUSH2 0x1B6 SWAP2 SWAP1 PUSH2 0x1BF3 JUMP JUMPDEST PUSH2 0x544 JUMP JUMPDEST STOP JUMPDEST PUSH2 0x1D7 PUSH1 0x4 DUP1 CALLDATASIZE SUB DUP2 ADD SWAP1 PUSH2 0x1D2 SWAP2 SWAP1 PUSH2 0x1C31 JUMP JUMPDEST PUSH2 0x55A JUMP JUMPDEST STOP JUMPDEST PUSH2 0x1F3 PUSH1 0x4 DUP1 CALLDATASIZE SUB DUP2 ADD SWAP1 PUSH2 0x1EE SWAP2 SWAP1 PUSH2 0x1C31 JUMP JUMPDEST PUSH2 0x659 JUMP JUMPDEST STOP JUMPDEST PUSH2 0x20F PUSH1 0x4 DUP1 CALLDATASIZE SUB DUP2 ADD SWAP1 PUSH2 0x20A SWAP2 SWAP1 PUSH2 0x1C81 JUMP JUMPDEST PUSH2 0x678 JUMP JUMPDEST PUSH1 0x40 MLOAD PUSH2 0x21C SWAP2 SWAP1 PUSH2 0x1CBB JUMP JUMPDEST PUSH1 0x40 MLOAD DUP1 SWAP2 SUB SWAP1 RETURN JUMPDEST PUSH2 0x23F PUSH1 0x4 DUP1 CALLDATASIZE SUB DUP2 ADD SWAP1 PUSH2 0x23A SWAP2 SWAP1 PUSH2 0x1E00 JUMP JUMPDEST PUSH2 0x6AB JUMP JUMPDEST STOP JUMPDEST PUSH2 0x25B PUSH1 0x4 DUP1 CALLDATASIZE SUB DUP2 ADD SWAP1 PUSH2 0x256 SWAP2 SWAP1 PUSH2 0x1B46 JUMP JUMPDEST PUSH2 0x6C6 JUMP JUMPDEST PUSH1 0x40 MLOAD PUSH2 0x268 SWAP2 SWAP1 PUSH2 0x1BB0 JUMP JUMPDEST PUSH1 0x40 MLOAD DUP1 SWAP2 SUB SWAP1 RETURN JUMPDEST PUSH2 0x28B PUSH1 0x4 DUP1 CALLDATASIZE SUB DUP2 ADD SWAP1 PUSH2 0x286 SWAP2 SWAP1 PUSH2 0x1C81 JUMP JUMPDEST PUSH2 0x6D7 JUMP JUMPDEST PUSH1 0x40 MLOAD PUSH2 0x298 SWAP2 SWAP1 PUSH2 0x1CBB JUMP JUMPDEST PUSH1 0x40 MLOAD DUP1 SWAP2 SUB SWAP1 RETURN JUMPDEST PUSH2 0x2A9 PUSH2 0x78D JUMP JUMPDEST STOP JUMPDEST PUSH2 0x2B3 PUSH2 0x7A0 JUMP JUMPDEST PUSH1 0x40 MLOAD PUSH2 0x2C0 SWAP2 SWAP1 PUSH2 0x1BB0 JUMP JUMPDEST PUSH1 0x40 MLOAD DUP1 SWAP2 SUB SWAP1 RETURN JUMPDEST PUSH2 0x2D1 PUSH2 0x7C8 JUMP JUMPDEST PUSH1 0x40 MLOAD PUSH2 0x2DE SWAP2 SWAP1 PUSH2 0x1AF3 JUMP JUMPDEST PUSH1 0x40 MLOAD DUP1 SWAP2 SUB SWAP1 RETURN JUMPDEST PUSH2 0x301 PUSH1 0x4 DUP1 CALLDATASIZE SUB DUP2 ADD SWAP1 PUSH2 0x2FC SWAP2 SWAP1 PUSH2 0x1E71 JUMP JUMPDEST PUSH2 0x858 JUMP JUMPDEST STOP JUMPDEST PUSH2 0x31D PUSH1 0x4 DUP1 CALLDATASIZE SUB DUP2 ADD SWAP1 PUSH2 0x318 SWAP2 SWAP1 PUSH2 0x1F4D JUMP JUMPDEST PUSH2 0x86E JUMP JUMPDEST STOP JUMPDEST PUSH2 0x327 PUSH2 0x893 JUMP JUMPDEST PUSH1 0x40 MLOAD PUSH2 0x334 SWAP2 SWAP1 PUSH2 0x1AF3 JUMP JUMPDEST PUSH1 0x40 MLOAD DUP1 SWAP2 SUB SWAP1 RETURN JUMPDEST PUSH2 0x357 PUSH1 0x4 DUP1 CALLDATASIZE SUB DUP2 ADD SWAP1 PUSH2 0x352 SWAP2 SWAP1 PUSH2 0x1B46 JUMP JUMPDEST PUSH2 0x923 JUMP JUMPDEST PUSH1 0x40 MLOAD PUSH2 0x364 SWAP2 SWAP1 PUSH2 0x1AF3 JUMP JUMPDEST PUSH1 0x40 MLOAD DUP1 SWAP2 SUB SWAP1 RETURN JUMPDEST PUSH2 0x387 PUSH1 0x4 DUP1 CALLDATASIZE SUB DUP2 ADD SWAP1 PUSH2 0x382 SWAP2 SWAP1 PUSH2 0x1FCD JUMP JUMPDEST PUSH2 0x989 JUMP JUMPDEST PUSH1 0x40 MLOAD PUSH2 0x394 SWAP2 SWAP1 PUSH2 0x1A6A JUMP JUMPDEST PUSH1 0x40 MLOAD DUP1 SWAP2 SUB SWAP1 RETURN JUMPDEST PUSH2 0x3B7 PUSH1 0x4 DUP1 CALLDATASIZE SUB DUP2 ADD SWAP1 PUSH2 0x3B2 SWAP2 SWAP1 PUSH2 0x1C81 JUMP JUMPDEST PUSH2 0xA17 JUMP JUMPDEST STOP JUMPDEST PUSH0 PUSH32 0x80AC58CD00000000000000000000000000000000000000000000000000000000 PUSH28 0xFFFFFFFFFFFFFFFFFFFFFFFFFFFFFFFFFFFFFFFFFFFFFFFFFFFFFFFF NOT AND DUP3 PUSH28 0xFFFFFFFFFFFFFFFFFFFFFFFFFFFFFFFFFFFFFFFFFFFFFFFFFFFFFFFF NOT AND EQ DUP1 PUSH2 0x483 JUMPI POP PUSH32 0x5B5E139F00000000000000000000000000000000000000000000000000000000 PUSH28 0xFFFFFFFFFFFFFFFFFFFFFFFFFFFFFFFFFFFFFFFFFFFFFFFFFFFFFFFF NOT AND DUP3 PUSH28 0xFFFFFFFFFFFFFFFFFFFFFFFFFFFFFFFFFFFFFFFFFFFFFFFFFFFFFFFF NOT AND EQ JUMPDEST DUP1 PUSH2 0x493 JUMPI POP PUSH2 0x492 DUP3 PUSH2 0xA9B JUMP JUMPDEST JUMPDEST SWAP1 POP SWAP2 SWAP1 POP JUMP JUMPDEST PUSH1 0x60 PUSH0 DUP1 SLOAD PUSH2 0x4A8 SWAP1 PUSH2 0x2038 JUMP JUMPDEST DUP1 PUSH1 0x1F ADD PUSH1 0x20 DUP1 SWAP2 DIV MUL PUSH1 0x20 ADD PUSH1 0x40 MLOAD SWAP1 DUP2 ADD PUSH1 0x40 MSTORE DUP1 SWAP3 SWAP2 SWAP1 DUP2 DUP2 MSTORE PUSH1 0x20 ADD DUP3 DUP1 SLOAD PUSH2 0x4D4 SWAP1 PUSH2 0x2038 JUMP JUMPDEST DUP1 ISZERO PUSH2 0x51F JUMPI DUP1 PUSH1 0x1F LT PUSH2 0x4F6 JUMPI PUSH2 0x100 DUP1 DUP4 SLOAD DIV MUL DUP4 MSTORE SWAP2 PUSH1 0x20 ADD SWAP2 PUSH2 0x51F JUMP JUMPDEST DUP3 ADD SWAP2 SWAP1 PUSH0 MSTORE PUSH1 0x20 PUSH0 KECCAK256 SWAP1 JUMPDEST DUP2 SLOAD DUP2 MSTORE SWAP1 PUSH1 0x1 ADD SWAP1 PUSH1 0x20 ADD DUP1 DUP4 GT PUSH2 0x502 JUMPI DUP3 SWAP1 SUB PUSH1 0x1F AND DUP3 ADD SWAP2 JUMPDEST POP POP POP POP POP SWAP1 POP SWAP1 JUMP JUMPDEST PUSH0 PUSH2 0x533 DUP3 PUSH2 0xB04 JUMP JUMPDEST POP PUSH2 0x53D DUP3 PUSH2 0xB8A JUMP JUMPDEST SWAP1 POP SWAP2 SWAP1 POP JUMP JUMPDEST PUSH2 0x556 DUP3 DUP3 PUSH2 0x551 PUSH2 0xBC3 JUMP JUMPDEST PUSH2 0xBCA JUMP JUMPDEST POP POP JUMP JUMPDEST PUSH0 PUSH20 0xFFFFFFFFFFFFFFFFFFFFFFFFFFFFFFFFFFFFFFFF AND DUP3 PUSH20 0xFFFFFFFFFFFFFFFFFFFFFFFFFFFFFFFFFFFFFFFF AND SUB PUSH2 0x5CA JUMPI PUSH0 PUSH1 0x40 MLOAD PUSH32 0x64A0AE9200000000000000000000000000000000000000000000000000000000 DUP2 MSTORE PUSH1 0x4 ADD PUSH2 0x5C1 SWAP2 SWAP1 PUSH2 0x1BB0 JUMP JUMPDEST PUSH1 0x40 MLOAD DUP1 SWAP2 SUB SWAP1 REVERT JUMPDEST PUSH0 PUSH2 0x5DD DUP4 DUP4 PUSH2 0x5D8 PUSH2 0xBC3 JUMP JUMPDEST PUSH2 0xBDC JUMP JUMPDEST SWAP1 POP DUP4 PUSH20 0xFFFFFFFFFFFFFFFFFFFFFFFFFFFFFFFFFFFFFFFF AND DUP2 PUSH20 0xFFFFFFFFFFFFFFFFFFFFFFFFFFFFFFFFFFFFFFFF AND EQ PUSH2 0x653 JUMPI DUP4 DUP3 DUP3 PUSH1 0x40 MLOAD PUSH32 0x64283D7B00000000000000000000000000000000000000000000000000000000 DUP2 MSTORE PUSH1 0x4 ADD PUSH2 0x64A SWAP4 SWAP3 SWAP2 SWAP1 PUSH2 0x2068 JUMP JUMPDEST PUSH1 0x40 MLOAD DUP1 SWAP2 SUB SWAP1 REVERT JUMPDEST POP POP POP POP JUMP JUMPDEST PUSH2 0x673 DUP4 DUP4 DUP4 PUSH1 0x40 MLOAD DUP1 PUSH1 0x20 ADD PUSH1 0x40 MSTORE DUP1 PUSH0 DUP2 MSTORE POP PUSH2 0x86E JUMP JUMPDEST POP POP POP JUMP JUMPDEST PUSH0 PUSH2 0x681 PUSH2 0xDE7 JUMP JUMPDEST PUSH2 0x68B PUSH1 0x7 PUSH2 0xE6E JUMP JUMPDEST PUSH0 PUSH2 0x696 PUSH1 0x7 PUSH2 0xE82 JUMP JUMPDEST SWAP1 POP PUSH2 0x6A2 DUP4 DUP3 PUSH2 0xE8E JUMP JUMPDEST DUP1 SWAP2 POP POP SWAP2 SWAP1 POP JUMP JUMPDEST PUSH2 0x6B3 PUSH2 0xDE7 JUMP JUMPDEST DUP1 PUSH1 0x8 SWAP1 DUP2 PUSH2 0x6C2 SWAP2 SWAP1 PUSH2 0x223D JUMP JUMPDEST POP POP JUMP JUMPDEST PUSH0 PUSH2 0x6D0 DUP3 PUSH2 0xB04 JUMP JUMPDEST SWAP1 POP SWAP2 SWAP1 POP JUMP JUMPDEST PUSH0 PUSH0 PUSH20 0xFFFFFFFFFFFFFFFFFFFFFFFFFFFFFFFFFFFFFFFF AND DUP3 PUSH20 0xFFFFFFFFFFFFFFFFFFFFFFFFFFFFFFFFFFFFFFFF AND SUB PUSH2 0x748 JUMPI PUSH0 PUSH1 0x40 MLOAD PUSH32 0x89C62B6400000000000000000000000000000000000000000000000000000000 DUP2 MSTORE PUSH1 0x4 ADD PUSH2 0x73F SWAP2 SWAP1 PUSH2 0x1BB0 JUMP JUMPDEST PUSH1 0x40 MLOAD DUP1 SWAP2 SUB SWAP1 REVERT JUMPDEST PUSH1 0x3 PUSH0 DUP4 PUSH20 0xFFFFFFFFFFFFFFFFFFFFFFFFFFFFFFFFFFFFFFFF AND PUSH20 0xFFFFFFFFFFFFFFFFFFFFFFFFFFFFFFFFFFFFFFFF AND DUP2 MSTORE PUSH1 0x20 ADD SWAP1 DUP2 MSTORE PUSH1 0x20 ADD PUSH0 KECCAK256 SLOAD SWAP1 POP SWAP2 SWAP1 POP JUMP JUMPDEST PUSH2 0x795 PUSH2 0xDE7 JUMP JUMPDEST PUSH2 0x79E PUSH0 PUSH2 0xEAB JUMP JUMPDEST JUMP JUMPDEST PUSH0 PUSH1 0x6 PUSH0 SWAP1 SLOAD SWAP1 PUSH2 0x100 EXP SWAP1 DIV PUSH20 0xFFFFFFFFFFFFFFFFFFFFFFFFFFFFFFFFFFFFFFFF AND SWAP1 POP SWAP1 JUMP JUMPDEST PUSH1 0x60 PUSH1 0x1 DUP1 SLOAD PUSH2 0x7D7 SWAP1 PUSH2 0x2038 JUMP JUMPDEST DUP1 PUSH1 0x1F ADD PUSH1 0x20 DUP1 SWAP2 DIV MUL PUSH1 0x20 ADD PUSH1 0x40 MLOAD SWAP1 DUP2 ADD PUSH1 0x40 MSTORE DUP1 SWAP3 SWAP2 SWAP1 DUP2 DUP2 MSTORE PUSH1 0x20 ADD DUP3 DUP1 SLOAD PUSH2 0x803 SWAP1 PUSH2 0x2038 JUMP JUMPDEST DUP1 ISZERO PUSH2 0x84E JUMPI DUP1 PUSH1 0x1F LT PUSH2 0x825 JUMPI PUSH2 0x100 DUP1 DUP4 SLOAD DIV MUL DUP4 MSTORE SWAP2 PUSH1 0x20 ADD SWAP2 PUSH2 0x84E JUMP JUMPDEST DUP3 ADD SWAP2 SWAP1 PUSH0 MSTORE PUSH1 0x20 PUSH0 KECCAK256 SWAP1 JUMPDEST DUP2 SLOAD DUP2 MSTORE SWAP1 PUSH1 0x1 ADD SWAP1 PUSH1 0x20 ADD DUP1 DUP4 GT PUSH2 0x831 JUMPI DUP3 SWAP1 SUB PUSH1 0x1F AND DUP3 ADD SWAP2 JUMPDEST POP POP POP POP POP SWAP1 POP SWAP1 JUMP JUMPDEST PUSH2 0x86A PUSH2 0x863 PUSH2 0xBC3 JUMP JUMPDEST DUP4 DUP4 PUSH2 0xF6E JUMP JUMPDEST POP POP JUMP JUMPDEST PUSH2 0x879 DUP5 DUP5 DUP5 PUSH2 0x55A JUMP JUMPDEST PUSH2 0x88D PUSH2 0x884 PUSH2 0xBC3 JUMP JUMPDEST DUP6 DUP6 DUP6 DUP6 PUSH2 0x10D7 JUMP JUMPDEST POP POP POP POP JUMP JUMPDEST PUSH1 0x60 PUSH1 0x8 DUP1 SLOAD PUSH2 0x8A2 SWAP1 PUSH2 0x2038 JUMP JUMPDEST DUP1 PUSH1 0x1F ADD PUSH1 0x20 DUP1 SWAP2 DIV MUL PUSH1 0x20 ADD PUSH1 0x40 MLOAD SWAP1 DUP2 ADD PUSH1 0x40 MSTORE DUP1 SWAP3 SWAP2 SWAP1 DUP2 DUP2 MSTORE PUSH1 0x20 ADD DUP3 DUP1 SLOAD PUSH2 0x8CE SWAP1 PUSH2 0x2038 JUMP JUMPDEST DUP1 ISZERO PUSH2 0x919 JUMPI DUP1 PUSH1 0x1F LT PUSH2 0x8F0 JUMPI PUSH2 0x100 DUP1 DUP4 SLOAD DIV MUL DUP4 MSTORE SWAP2 PUSH1 0x20 ADD SWAP2 PUSH2 0x919 JUMP JUMPDEST DUP3 ADD SWAP2 SWAP1 PUSH0 MSTORE PUSH1 0x20 PUSH0 KECCAK256 SWAP1 JUMPDEST DUP2 SLOAD DUP2 MSTORE SWAP1 PUSH1 0x1 ADD SWAP1 PUSH1 0x20 ADD DUP1 DUP4 GT PUSH2 0x8FC JUMPI DUP3 SWAP1 SUB PUSH1 0x1F AND DUP3 ADD SWAP2 JUMPDEST POP POP POP POP POP SWAP1 POP SWAP1 JUMP JUMPDEST PUSH1 0x60 PUSH2 0x92E DUP3 PUSH2 0xB04 JUMP JUMPDEST POP PUSH0 PUSH2 0x938 PUSH2 0x1283 JUMP JUMPDEST SWAP1 POP PUSH0 DUP2 MLOAD GT PUSH2 0x956 JUMPI PUSH1 0x40 MLOAD DUP1 PUSH1 0x20 ADD PUSH1 0x40 MSTORE DUP1 PUSH0 DUP2 MSTORE POP PUSH2 0x981 JUMP JUMPDEST DUP1 PUSH2 0x960 DUP5 PUSH2 0x1313 JUMP JUMPDEST PUSH1 0x40 MLOAD PUSH1 0x20 ADD PUSH2 0x971 SWAP3 SWAP2 SWAP1 PUSH2 0x2346 JUMP JUMPDEST PUSH1 0x40 MLOAD PUSH1 0x20 DUP2 DUP4 SUB SUB DUP2 MSTORE SWAP1 PUSH1 0x40 MSTORE JUMPDEST SWAP2 POP POP SWAP2 SWAP1 POP JUMP JUMPDEST PUSH0 PUSH1 0x5 PUSH0 DUP5 PUSH20 0xFFFFFFFFFFFFFFFFFFFFFFFFFFFFFFFFFFFFFFFF AND PUSH20 0xFFFFFFFFFFFFFFFFFFFFFFFFFFFFFFFFFFFFFFFF AND DUP2 MSTORE PUSH1 0x20 ADD SWAP1 DUP2 MSTORE PUSH1 0x20 ADD PUSH0 KECCAK256 PUSH0 DUP4 PUSH20 0xFFFFFFFFFFFFFFFFFFFFFFFFFFFFFFFFFFFFFFFF AND PUSH20 0xFFFFFFFFFFFFFFFFFFFFFFFFFFFFFFFFFFFFFFFF AND DUP2 MSTORE PUSH1 0x20 ADD SWAP1 DUP2 MSTORE PUSH1 0x20 ADD PUSH0 KECCAK256 PUSH0 SWAP1 SLOAD SWAP1 PUSH2 0x100 EXP SWAP1 DIV PUSH1 0xFF AND SWAP1 POP SWAP3 SWAP2 POP POP JUMP JUMPDEST PUSH2 0xA1F PUSH2 0xDE7 JUMP JUMPDEST PUSH0 PUSH20 0xFFFFFFFFFFFFFFFFFFFFFFFFFFFFFFFFFFFFFFFF AND DUP2 PUSH20 0xFFFFFFFFFFFFFFFFFFFFFFFFFFFFFFFFFFFFFFFF AND SUB PUSH2 0xA8F JUMPI PUSH0 PUSH1 0x40 MLOAD PUSH32 0x1E4FBDF700000000000000000000000000000000000000000000000000000000 DUP2 MSTORE PUSH1 0x4 ADD PUSH2 0xA86 SWAP2 SWAP1 PUSH2 0x1BB0 JUMP JUMPDEST PUSH1 0x40 MLOAD DUP1 SWAP2 SUB SWAP1 REVERT JUMPDEST PUSH2 0xA98 DUP2 PUSH2 0xEAB JUMP JUMPDEST POP JUMP JUMPDEST PUSH0 PUSH32 0x1FFC9A700000000000000000000000000000000000000000000000000000000 PUSH28 0xFFFFFFFFFFFFFFFFFFFFFFFFFFFFFFFFFFFFFFFFFFFFFFFFFFFFFFFF NOT AND DUP3 PUSH28 0xFFFFFFFFFFFFFFFFFFFFFFFFFFFFFFFFFFFFFFFFFFFFFFFFFFFFFFFF NOT AND EQ SWAP1 POP SWAP2 SWAP1 POP JUMP JUMPDEST PUSH0 PUSH0 PUSH2 0xB0F DUP4 PUSH2 0x13DD JUMP JUMPDEST SWAP1 POP PUSH0 PUSH20 0xFFFFFFFFFFFFFFFFFFFFFFFFFFFFFFFFFFFFFFFF AND DUP2 PUSH20 0xFFFFFFFFFFFFFFFFFFFFFFFFFFFFFFFFFFFFFFFF AND SUB PUSH2 0xB81 JUMPI DUP3 PUSH1 0x40 MLOAD PUSH32 0x7E27328900000000000000000000000000000000000000000000000000000000 DUP2 MSTORE PUSH1 0x4 ADD PUSH2 0xB78 SWAP2 SWAP1 PUSH2 0x1CBB JUMP JUMPDEST PUSH1 0x40 MLOAD DUP1 SWAP2 SUB SWAP1 REVERT JUMPDEST DUP1 SWAP2 POP POP SWAP2 SWAP1 POP JUMP JUMPDEST PUSH0 PUSH1 0x4 PUSH0 DUP4 DUP2 MSTORE PUSH1 0x20 ADD SWAP1 DUP2 MSTORE PUSH1 0x20 ADD PUSH0 KECCAK256 PUSH0 SWAP1 SLOAD SWAP1 PUSH2 0x100 EXP SWAP1 DIV PUSH20 0xFFFFFFFFFFFFFFFFFFFFFFFFFFFFFFFFFFFFFFFF AND SWAP1 POP SWAP2 SWAP1 POP JUMP JUMPDEST PUSH0 CALLER SWAP1 POP SWAP1 JUMP JUMPDEST PUSH2 0xBD7 DUP4 DUP4 DUP4 PUSH1 0x1 PUSH2 0x1416 JUMP JUMPDEST POP POP POP JUMP JUMPDEST PUSH0 PUSH0 PUSH2 0xBE7 DUP5 PUSH2 0x13DD JUMP JUMPDEST SWAP1 POP PUSH0 PUSH20 0xFFFFFFFFFFFFFFFFFFFFFFFFFFFFFFFFFFFFFFFF AND DUP4 PUSH20 0xFFFFFFFFFFFFFFFFFFFFFFFFFFFFFFFFFFFFFFFF AND EQ PUSH2 0xC28 JUMPI PUSH2 0xC27 DUP2 DUP5 DUP7 PUSH2 0x15D5 JUMP JUMPDEST JUMPDEST PUSH0 PUSH20 0xFFFFFFFFFFFFFFFFFFFFFFFFFFFFFFFFFFFFFFFF AND DUP2 PUSH20 0xFFFFFFFFFFFFFFFFFFFFFFFFFFFFFFFFFFFFFFFF AND EQ PUSH2 0xCB3 JUMPI PUSH2 0xC67 PUSH0 DUP6 PUSH0 PUSH0 PUSH2 0x1416 JUMP JUMPDEST PUSH1 0x1 PUSH1 0x3 PUSH0 DUP4 PUSH20 0xFFFFFFFFFFFFFFFFFFFFFFFFFFFFFFFFFFFFFFFF AND PUSH20 0xFFFFFFFFFFFFFFFFFFFFFFFFFFFFFFFFFFFFFFFF AND DUP2 MSTORE PUSH1 0x20 ADD SWAP1 DUP2 MSTORE PUSH1 0x20 ADD PUSH0 KECCAK256 PUSH0 DUP3 DUP3 SLOAD SUB SWAP3 POP POP DUP2 SWAP1 SSTORE POP JUMPDEST PUSH0 PUSH20 0xFFFFFFFFFFFFFFFFFFFFFFFFFFFFFFFFFFFFFFFF AND DUP6 PUSH20 0xFFFFFFFFFFFFFFFFFFFFFFFFFFFFFFFFFFFFFFFF AND EQ PUSH2 0xD32 JUMPI PUSH1 0x1 PUSH1 0x3 PUSH0 DUP8 PUSH20 0xFFFFFFFFFFFFFFFFFFFFFFFFFFFFFFFFFFFFFFFF AND PUSH20 0xFFFFFFFFFFFFFFFFFFFFFFFFFFFFFFFFFFFFFFFF AND DUP2 MSTORE PUSH1 0x20 ADD SWAP1 DUP2 MSTORE PUSH1 0x20 ADD PUSH0 KECCAK256 PUSH0 DUP3 DUP3 SLOAD ADD SWAP3 POP POP DUP2 SWAP1 SSTORE POP JUMPDEST DUP5 PUSH1 0x2 PUSH0 DUP7 DUP2 MSTORE PUSH1 0x20 ADD SWAP1 DUP2 MSTORE PUSH1 0x20 ADD PUSH0 KECCAK256 PUSH0 PUSH2 0x100 EXP DUP2 SLOAD DUP2 PUSH20 0xFFFFFFFFFFFFFFFFFFFFFFFFFFFFFFFFFFFFFFFF MUL NOT AND SWAP1 DUP4 PUSH20 0xFFFFFFFFFFFFFFFFFFFFFFFFFFFFFFFFFFFFFFFF AND MUL OR SWAP1 SSTORE POP DUP4 DUP6 PUSH20 0xFFFFFFFFFFFFFFFFFFFFFFFFFFFFFFFFFFFFFFFF AND DUP3 PUSH20 0xFFFFFFFFFFFFFFFFFFFFFFFFFFFFFFFFFFFFFFFF AND PUSH32 0xDDF252AD1BE2C89B69C2B068FC378DAA952BA7F163C4A11628F55A4DF523B3EF PUSH1 0x40 MLOAD PUSH1 0x40 MLOAD DUP1 SWAP2 SUB SWAP1 LOG4 DUP1 SWAP2 POP POP SWAP4 SWAP3 POP POP POP JUMP JUMPDEST PUSH2 0xDEF PUSH2 0xBC3 JUMP JUMPDEST PUSH20 0xFFFFFFFFFFFFFFFFFFFFFFFFFFFFFFFFFFFFFFFF AND PUSH2 0xE0D PUSH2 0x7A0 JUMP JUMPDEST PUSH20 0xFFFFFFFFFFFFFFFFFFFFFFFFFFFFFFFFFFFFFFFF AND EQ PUSH2 0xE6C JUMPI PUSH2 0xE30 PUSH2 0xBC3 JUMP JUMPDEST PUSH1 0x40 MLOAD PUSH32 0x118CDAA700000000000000000000000000000000000000000000000000000000 DUP2 MSTORE PUSH1 0x4 ADD PUSH2 0xE63 SWAP2 SWAP1 PUSH2 0x1BB0 JUMP JUMPDEST PUSH1 0x40 MLOAD DUP1 SWAP2 SUB SWAP1 REVERT JUMPDEST JUMP JUMPDEST PUSH1 0x1 DUP2 PUSH0 ADD PUSH0 DUP3 DUP3 SLOAD ADD SWAP3 POP POP DUP2 SWAP1 SSTORE POP POP JUMP JUMPDEST PUSH0 DUP2 PUSH0 ADD SLOAD SWAP1 POP SWAP2 SWAP1 POP JUMP JUMPDEST PUSH2 0xEA7 DUP3 DUP3 PUSH1 0x40 MLOAD DUP1 PUSH1 0x20 ADD PUSH1 0x40 MSTORE DUP1 PUSH0 DUP2 MSTORE POP PUSH2 0x1698 JUMP JUMPDEST POP POP JUMP JUMPDEST PUSH0 PUSH1 0x6 PUSH0 SWAP1 SLOAD SWAP1 PUSH2 0x100 EXP SWAP1 DIV PUSH20 0xFFFFFFFFFFFFFFFFFFFFFFFFFFFFFFFFFFFFFFFF AND SWAP1 POP DUP2 PUSH1 0x6 PUSH0 PUSH2 0x100 EXP DUP2 SLOAD DUP2 PUSH20 0xFFFFFFFFFFFFFFFFFFFFFFFFFFFFFFFFFFFFFFFF MUL NOT AND SWAP1 DUP4 PUSH20 0xFFFFFFFFFFFFFFFFFFFFFFFFFFFFFFFFFFFFFFFF AND MUL OR SWAP1 SSTORE POP DUP2 PUSH20 0xFFFFFFFFFFFFFFFFFFFFFFFFFFFFFFFFFFFFFFFF AND DUP2 PUSH20 0xFFFFFFFFFFFFFFFFFFFFFFFFFFFFFFFFFFFFFFFF AND PUSH32 0x8BE0079C531659141344CD1FD0A4F28419497F9722A3DAAFE3B4186F6B6457E0 PUSH1 0x40 MLOAD PUSH1 0x40 MLOAD DUP1 SWAP2 SUB SWAP1 LOG3 POP POP JUMP JUMPDEST PUSH0 PUSH20 0xFFFFFFFFFFFFFFFFFFFFFFFFFFFFFFFFFFFFFFFF AND DUP3 PUSH20 0xFFFFFFFFFFFFFFFFFFFFFFFFFFFFFFFFFFFFFFFF AND SUB PUSH2 0xFDE JUMPI DUP2 PUSH1 0x40 MLOAD PUSH32 0x5B08BA1800000000000000000000000000000000000000000000000000000000 DUP2 MSTORE PUSH1 0x4 ADD PUSH2 0xFD5 SWAP2 SWAP1 PUSH2 0x1BB0 JUMP JUMPDEST PUSH1 0x40 MLOAD DUP1 SWAP2 SUB SWAP1 REVERT JUMPDEST DUP1 PUSH1 0x5 PUSH0 DUP6 PUSH20 0xFFFFFFFFFFFFFFFFFFFFFFFFFFFFFFFFFFFFFFFF AND PUSH20 0xFFFFFFFFFFFFFFFFFFFFFFFFFFFFFFFFFFFFFFFF AND DUP2 MSTORE PUSH1 0x20 ADD SWAP1 DUP2 MSTORE PUSH1 0x20 ADD PUSH0 KECCAK256 PUSH0 DUP5 PUSH20 0xFFFFFFFFFFFFFFFFFFFFFFFFFFFFFFFFFFFFFFFF AND PUSH20 0xFFFFFFFFFFFFFFFFFFFFFFFFFFFFFFFFFFFFFFFF AND DUP2 MSTORE PUSH1 0x20 ADD SWAP1 DUP2 MSTORE PUSH1 0x20 ADD PUSH0 KECCAK256 PUSH0 PUSH2 0x100 EXP DUP2 SLOAD DUP2 PUSH1 0xFF MUL NOT AND SWAP1 DUP4 ISZERO ISZERO MUL OR SWAP1 SSTORE POP DUP2 PUSH20 0xFFFFFFFFFFFFFFFFFFFFFFFFFFFFFFFFFFFFFFFF AND DUP4 PUSH20 0xFFFFFFFFFFFFFFFFFFFFFFFFFFFFFFFFFFFFFFFF AND PUSH32 0x17307EAB39AB6107E8899845AD3D59BD9653F200F220920489CA2B5937696C31 DUP4 PUSH1 0x40 MLOAD PUSH2 0x10CA SWAP2 SWAP1 PUSH2 0x1A6A JUMP JUMPDEST PUSH1 0x40 MLOAD DUP1 SWAP2 SUB SWAP1 LOG3 POP POP POP JUMP JUMPDEST PUSH0 DUP4 PUSH20 0xFFFFFFFFFFFFFFFFFFFFFFFFFFFFFFFFFFFFFFFF AND EXTCODESIZE GT ISZERO PUSH2 0x127C JUMPI DUP3 PUSH20 0xFFFFFFFFFFFFFFFFFFFFFFFFFFFFFFFFFFFFFFFF AND PUSH4 0x150B7A02 DUP7 DUP7 DUP6 DUP6 PUSH1 0x40 MLOAD DUP6 PUSH4 0xFFFFFFFF AND PUSH1 0xE0 SHL DUP2 MSTORE PUSH1 0x4 ADD PUSH2 0x1135 SWAP5 SWAP4 SWAP3 SWAP2 SWAP1 PUSH2 0x23BB JUMP JUMPDEST PUSH1 0x20 PUSH1 0x40 MLOAD DUP1 DUP4 SUB DUP2 PUSH0 DUP8 GAS CALL SWAP3 POP POP POP DUP1 ISZERO PUSH2 0x1170 JUMPI POP PUSH1 0x40 MLOAD RETURNDATASIZE PUSH1 0x1F NOT PUSH1 0x1F DUP3 ADD AND DUP3 ADD DUP1 PUSH1 0x40 MSTORE POP DUP2 ADD SWAP1 PUSH2 0x116D SWAP2 SWAP1 PUSH2 0x2419 JUMP JUMPDEST PUSH1 0x1 JUMPDEST PUSH2 0x11F1 JUMPI RETURNDATASIZE DUP1 PUSH0 DUP2 EQ PUSH2 0x119E JUMPI PUSH1 0x40 MLOAD SWAP2 POP PUSH1 0x1F NOT PUSH1 0x3F RETURNDATASIZE ADD AND DUP3 ADD PUSH1 0x40 MSTORE RETURNDATASIZE DUP3 MSTORE RETURNDATASIZE PUSH0 PUSH1 0x20 DUP5 ADD RETURNDATACOPY PUSH2 0x11A3 JUMP JUMPDEST PUSH1 0x60 SWAP2 POP JUMPDEST POP PUSH0 DUP2 MLOAD SUB PUSH2 0x11E9 JUMPI DUP4 PUSH1 0x40 MLOAD PUSH32 0x64A0AE9200000000000000000000000000000000000000000000000000000000 DUP2 MSTORE PUSH1 0x4 ADD PUSH2 0x11E0 SWAP2 SWAP1 PUSH2 0x1BB0 JUMP JUMPDEST PUSH1 0x40 MLOAD DUP1 SWAP2 SUB SWAP1 REVERT JUMPDEST DUP1 MLOAD DUP2 PUSH1 0x20 ADD REVERT JUMPDEST PUSH4 0x150B7A02 PUSH1 0xE0 SHL PUSH28 0xFFFFFFFFFFFFFFFFFFFFFFFFFFFFFFFFFFFFFFFFFFFFFFFFFFFFFFFF NOT AND DUP2 PUSH28 0xFFFFFFFFFFFFFFFFFFFFFFFFFFFFFFFFFFFFFFFFFFFFFFFFFFFFFFFF NOT AND EQ PUSH2 0x127A JUMPI DUP4 PUSH1 0x40 MLOAD PUSH32 0x64A0AE9200000000000000000000000000000000000000000000000000000000 DUP2 MSTORE PUSH1 0x4 ADD PUSH2 0x1271 SWAP2 SWAP1 PUSH2 0x1BB0 JUMP JUMPDEST PUSH1 0x40 MLOAD DUP1 SWAP2 SUB SWAP1 REVERT JUMPDEST POP JUMPDEST POP POP POP POP POP JUMP JUMPDEST PUSH1 0x60 PUSH1 0x8 DUP1 SLOAD PUSH2 0x1292 SWAP1 PUSH2 0x2038 JUMP JUMPDEST DUP1 PUSH1 0x1F ADD PUSH1 0x20 DUP1 SWAP2 DIV MUL PUSH1 0x20 ADD PUSH1 0x40 MLOAD SWAP1 DUP2 ADD PUSH1 0x40 MSTORE DUP1 SWAP3 SWAP2 SWAP1 DUP2 DUP2 MSTORE PUSH1 0x20 ADD DUP3 DUP1 SLOAD PUSH2 0x12BE SWAP1 PUSH2 0x2038 JUMP JUMPDEST DUP1 ISZERO PUSH2 0x1309 JUMPI DUP1 PUSH1 0x1F LT PUSH2 0x12E0 JUMPI PUSH2 0x100 DUP1 DUP4 SLOAD DIV MUL DUP4 MSTORE SWAP2 PUSH1 0x20 ADD SWAP2 PUSH2 0x1309 JUMP JUMPDEST DUP3 ADD SWAP2 SWAP1 PUSH0 MSTORE PUSH1 0x20 PUSH0 KECCAK256 SWAP1 JUMPDEST DUP2 SLOAD DUP2 MSTORE SWAP1 PUSH1 0x1 ADD SWAP1 PUSH1 0x20 ADD DUP1 DUP4 GT PUSH2 0x12EC JUMPI DUP3 SWAP1 SUB PUSH1 0x1F AND DUP3 ADD SWAP2 JUMPDEST POP POP POP POP POP SWAP1 POP SWAP1 JUMP JUMPDEST PUSH1 0x60 PUSH0 PUSH1 0x1 PUSH2 0x1321 DUP5 PUSH2 0x16BB JUMP JUMPDEST ADD SWAP1 POP PUSH0 DUP2 PUSH8 0xFFFFFFFFFFFFFFFF DUP2 GT ISZERO PUSH2 0x133F JUMPI PUSH2 0x133E PUSH2 0x1CDC JUMP JUMPDEST JUMPDEST PUSH1 0x40 MLOAD SWAP1 DUP1 DUP3 MSTORE DUP1 PUSH1 0x1F ADD PUSH1 0x1F NOT AND PUSH1 0x20 ADD DUP3 ADD PUSH1 0x40 MSTORE DUP1 ISZERO PUSH2 0x1371 JUMPI DUP2 PUSH1 0x20 ADD PUSH1 0x1 DUP3 MUL DUP1 CALLDATASIZE DUP4 CALLDATACOPY DUP1 DUP3 ADD SWAP2 POP POP SWAP1 POP JUMPDEST POP SWAP1 POP PUSH0 DUP3 PUSH1 0x20 ADD DUP3 ADD SWAP1 POP JUMPDEST PUSH1 0x1 ISZERO PUSH2 0x13D2 JUMPI DUP1 DUP1 PUSH1 0x1 SWAP1 SUB SWAP2 POP POP PUSH32 0x3031323334353637383961626364656600000000000000000000000000000000 PUSH1 0xA DUP7 MOD BYTE DUP2 MSTORE8 PUSH1 0xA DUP6 DUP2 PUSH2 0x13C7 JUMPI PUSH2 0x13C6 PUSH2 0x2444 JUMP JUMPDEST JUMPDEST DIV SWAP5 POP PUSH0 DUP6 SUB PUSH2 0x137E JUMPI JUMPDEST DUP2 SWAP4 POP POP POP POP SWAP2 SWAP1 POP JUMP JUMPDEST PUSH0 PUSH1 0x2 PUSH0 DUP4 DUP2 MSTORE PUSH1 0x20 ADD SWAP1 DUP2 MSTORE PUSH1 0x20 ADD PUSH0 KECCAK256 PUSH0 SWAP1 SLOAD SWAP1 PUSH2 0x100 EXP SWAP1 DIV PUSH20 0xFFFFFFFFFFFFFFFFFFFFFFFFFFFFFFFFFFFFFFFF AND SWAP1 POP SWAP2 SWAP1 POP JUMP JUMPDEST DUP1 DUP1 PUSH2 0x144E JUMPI POP PUSH0 PUSH20 0xFFFFFFFFFFFFFFFFFFFFFFFFFFFFFFFFFFFFFFFF AND DUP3 PUSH20 0xFFFFFFFFFFFFFFFFFFFFFFFFFFFFFFFFFFFFFFFF AND EQ ISZERO JUMPDEST ISZERO PUSH2 0x1580 JUMPI PUSH0 PUSH2 0x145D DUP5 PUSH2 0xB04 JUMP JUMPDEST SWAP1 POP PUSH0 PUSH20 0xFFFFFFFFFFFFFFFFFFFFFFFFFFFFFFFFFFFFFFFF AND DUP4 PUSH20 0xFFFFFFFFFFFFFFFFFFFFFFFFFFFFFFFFFFFFFFFF AND EQ ISZERO DUP1 ISZERO PUSH2 0x14C7 JUMPI POP DUP3 PUSH20 0xFFFFFFFFFFFFFFFFFFFFFFFFFFFFFFFFFFFFFFFF AND DUP2 PUSH20 0xFFFFFFFFFFFFFFFFFFFFFFFFFFFFFFFFFFFFFFFF AND EQ ISZERO JUMPDEST DUP1 ISZERO PUSH2 0x14DA JUMPI POP PUSH2 0x14D8 DUP2 DUP5 PUSH2 0x989 JUMP JUMPDEST ISZERO JUMPDEST ISZERO PUSH2 0x151C JUMPI DUP3 PUSH1 0x40 MLOAD PUSH32 0xA9FBF51F00000000000000000000000000000000000000000000000000000000 DUP2 MSTORE PUSH1 0x4 ADD PUSH2 0x1513 SWAP2 SWAP1 PUSH2 0x1BB0 JUMP JUMPDEST PUSH1 0x40 MLOAD DUP1 SWAP2 SUB SWAP1 REVERT JUMPDEST DUP2 ISZERO PUSH2 0x157E JUMPI DUP4 DUP6 PUSH20 0xFFFFFFFFFFFFFFFFFFFFFFFFFFFFFFFFFFFFFFFF AND DUP3 PUSH20 0xFFFFFFFFFFFFFFFFFFFFFFFFFFFFFFFFFFFFFFFF AND PUSH32 0x8C5BE1E5EBEC7D5BD14F71427D1E84F3DD0314C0F7B2291E5B200AC8C7C3B925 PUSH1 0x40 MLOAD PUSH1 0x40 MLOAD DUP1 SWAP2 SUB SWAP1 LOG4 JUMPDEST POP JUMPDEST DUP4 PUSH1 0x4 PUSH0 DUP6 DUP2 MSTORE PUSH1 0x20 ADD SWAP1 DUP2 MSTORE PUSH1 0x20 ADD PUSH0 KECCAK256 PUSH0 PUSH2 0x100 EXP DUP2 SLOAD DUP2 PUSH20 0xFFFFFFFFFFFFFFFFFFFFFFFFFFFFFFFFFFFFFFFF MUL NOT AND SWAP1 DUP4 PUSH20 0xFFFFFFFFFFFFFFFFFFFFFFFFFFFFFFFFFFFFFFFF AND MUL OR SWAP1 SSTORE POP POP POP POP POP JUMP JUMPDEST PUSH2 0x15E0 DUP4 DUP4 DUP4 PUSH2 0x180C JUMP JUMPDEST PUSH2 0x1693 JUMPI PUSH0 PUSH20 0xFFFFFFFFFFFFFFFFFFFFFFFFFFFFFFFFFFFFFFFF AND DUP4 PUSH20 0xFFFFFFFFFFFFFFFFFFFFFFFFFFFFFFFFFFFFFFFF AND SUB PUSH2 0x1654 JUMPI DUP1 PUSH1 0x40 MLOAD PUSH32 0x7E27328900000000000000000000000000000000000000000000000000000000 DUP2 MSTORE PUSH1 0x4 ADD PUSH2 0x164B SWAP2 SWAP1 PUSH2 0x1CBB JUMP JUMPDEST PUSH1 0x40 MLOAD DUP1 SWAP2 SUB SWAP1 REVERT JUMPDEST DUP2 DUP2 PUSH1 0x40 MLOAD PUSH32 0x177E802F00000000000000000000000000000000000000000000000000000000 DUP2 MSTORE PUSH1 0x4 ADD PUSH2 0x168A SWAP3 SWAP2 SWAP1 PUSH2 0x2471 JUMP JUMPDEST PUSH1 0x40 MLOAD DUP1 SWAP2 SUB SWAP1 REVERT JUMPDEST POP POP POP JUMP JUMPDEST PUSH2 0x16A2 DUP4 DUP4 PUSH2 0x18CC JUMP JUMPDEST PUSH2 0x16B6 PUSH2 0x16AD PUSH2 0xBC3 JUMP JUMPDEST PUSH0 DUP6 DUP6 DUP6 PUSH2 0x10D7 JUMP JUMPDEST POP POP POP JUMP JUMPDEST PUSH0 PUSH0 PUSH0 SWAP1 POP PUSH27 0x184F03E93FF9F4DAA797ED6E38ED64BF6A1F010000000000000000 DUP4 LT PUSH2 0x1717 JUMPI PUSH27 0x184F03E93FF9F4DAA797ED6E38ED64BF6A1F010000000000000000 DUP4 DUP2 PUSH2 0x170D JUMPI PUSH2 0x170C PUSH2 0x2444 JUMP JUMPDEST JUMPDEST DIV SWAP3 POP PUSH1 0x40 DUP2 ADD SWAP1 POP JUMPDEST PUSH14 0x4EE2D6D415B85ACEF8100000000 DUP4 LT PUSH2 0x1754 JUMPI PUSH14 0x4EE2D6D415B85ACEF8100000000 DUP4 DUP2 PUSH2 0x174A JUMPI PUSH2 0x1749 PUSH2 0x2444 JUMP JUMPDEST JUMPDEST DIV SWAP3 POP PUSH1 0x20 DUP2 ADD SWAP1 POP JUMPDEST PUSH7 0x2386F26FC10000 DUP4 LT PUSH2 0x1783 JUMPI PUSH7 0x2386F26FC10000 DUP4 DUP2 PUSH2 0x1779 JUMPI PUSH2 0x1778 PUSH2 0x2444 JUMP JUMPDEST JUMPDEST DIV SWAP3 POP PUSH1 0x10 DUP2 ADD SWAP1 POP JUMPDEST PUSH4 0x5F5E100 DUP4 LT PUSH2 0x17AC JUMPI PUSH4 0x5F5E100 DUP4 DUP2 PUSH2 0x17A2 JUMPI PUSH2 0x17A1 PUSH2 0x2444 JUMP JUMPDEST JUMPDEST DIV SWAP3 POP PUSH1 0x8 DUP2 ADD SWAP1 POP JUMPDEST PUSH2 0x2710 DUP4 LT PUSH2 0x17D1 JUMPI PUSH2 0x2710 DUP4 DUP2 PUSH2 0x17C7 JUMPI PUSH2 0x17C6 PUSH2 0x2444 JUMP JUMPDEST JUMPDEST DIV SWAP3 POP PUSH1 0x4 DUP2 ADD SWAP1 POP JUMPDEST PUSH1 0x64 DUP4 LT PUSH2 0x17F4 JUMPI PUSH1 0x64 DUP4 DUP2 PUSH2 0x17EA JUMPI PUSH2 0x17E9 PUSH2 0x2444 JUMP JUMPDEST JUMPDEST DIV SWAP3 POP PUSH1 0x2 DUP2 ADD SWAP1 POP JUMPDEST PUSH1 0xA DUP4 LT PUSH2 0x1803 JUMPI PUSH1 0x1 DUP2 ADD SWAP1 POP JUMPDEST DUP1 SWAP2 POP POP SWAP2 SWAP1 POP JUMP JUMPDEST PUSH0 PUSH0 PUSH20 0xFFFFFFFFFFFFFFFFFFFFFFFFFFFFFFFFFFFFFFFF AND DUP4 PUSH20 0xFFFFFFFFFFFFFFFFFFFFFFFFFFFFFFFFFFFFFFFF AND EQ ISZERO DUP1 ISZERO PUSH2 0x18C3 JUMPI POP DUP3 PUSH20 0xFFFFFFFFFFFFFFFFFFFFFFFFFFFFFFFFFFFFFFFF AND DUP5 PUSH20 0xFFFFFFFFFFFFFFFFFFFFFFFFFFFFFFFFFFFFFFFF AND EQ DUP1 PUSH2 0x1884 JUMPI POP PUSH2 0x1883 DUP5 DUP5 PUSH2 0x989 JUMP JUMPDEST JUMPDEST DUP1 PUSH2 0x18C2 JUMPI POP DUP3 PUSH20 0xFFFFFFFFFFFFFFFFFFFFFFFFFFFFFFFFFFFFFFFF AND PUSH2 0x18AA DUP4 PUSH2 0xB8A JUMP JUMPDEST PUSH20 0xFFFFFFFFFFFFFFFFFFFFFFFFFFFFFFFFFFFFFFFF AND EQ JUMPDEST JUMPDEST SWAP1 POP SWAP4 SWAP3 POP POP POP JUMP JUMPDEST PUSH0 PUSH20 0xFFFFFFFFFFFFFFFFFFFFFFFFFFFFFFFFFFFFFFFF AND DUP3 PUSH20 0xFFFFFFFFFFFFFFFFFFFFFFFFFFFFFFFFFFFFFFFF AND SUB PUSH2 0x193C JUMPI PUSH0 PUSH1 0x40 MLOAD PUSH32 0x64A0AE9200000000000000000000000000000000000000000000000000000000 DUP2 MSTORE PUSH1 0x4 ADD PUSH2 0x1933 SWAP2 SWAP1 PUSH2 0x1BB0 JUMP JUMPDEST PUSH1 0x40 MLOAD DUP1 SWAP2 SUB SWAP1 REVERT JUMPDEST PUSH0 PUSH2 0x1948 DUP4 DUP4 PUSH0 PUSH2 0xBDC JUMP JUMPDEST SWAP1 POP PUSH0 PUSH20 0xFFFFFFFFFFFFFFFFFFFFFFFFFFFFFFFFFFFFFFFF AND DUP2 PUSH20 0xFFFFFFFFFFFFFFFFFFFFFFFFFFFFFFFFFFFFFFFF AND EQ PUSH2 0x19BA JUMPI PUSH0 PUSH1 0x40 MLOAD PUSH32 0x73C6AC6E00000000000000000000000000000000000000000000000000000000 DUP2 MSTORE PUSH1 0x4 ADD PUSH2 0x19B1 SWAP2 SWAP1 PUSH2 0x1BB0 JUMP JUMPDEST PUSH1 0x40 MLOAD DUP1 SWAP2 SUB SWAP1 REVERT JUMPDEST POP POP POP JUMP JUMPDEST PUSH0 PUSH1 0x40 MLOAD SWAP1 POP SWAP1 JUMP JUMPDEST PUSH0 PUSH0 REVERT JUMPDEST PUSH0 PUSH0 REVERT JUMPDEST PUSH0 PUSH32 0xFFFFFFFF00000000000000000000000000000000000000000000000000000000 DUP3 AND SWAP1 POP SWAP2 SWAP1 POP JUMP JUMPDEST PUSH2 0x1A04 DUP2 PUSH2 0x19D0 JUMP JUMPDEST DUP2 EQ PUSH2 0x1A0E JUMPI PUSH0 PUSH0 REVERT JUMPDEST POP JUMP JUMPDEST PUSH0 DUP2 CALLDATALOAD SWAP1 POP PUSH2 0x1A1F DUP2 PUSH2 0x19FB JUMP JUMPDEST SWAP3 SWAP2 POP POP JUMP JUMPDEST PUSH0 PUSH1 0x20 DUP3 DUP5 SUB SLT ISZERO PUSH2 0x1A3A JUMPI PUSH2 0x1A39 PUSH2 0x19C8 JUMP JUMPDEST JUMPDEST PUSH0 PUSH2 0x1A47 DUP5 DUP3 DUP6 ADD PUSH2 0x1A11 JUMP JUMPDEST SWAP2 POP POP SWAP3 SWAP2 POP POP JUMP JUMPDEST PUSH0 DUP2 ISZERO ISZERO SWAP1 POP SWAP2 SWAP1 POP JUMP JUMPDEST PUSH2 0x1A64 DUP2 PUSH2 0x1A50 JUMP JUMPDEST DUP3 MSTORE POP POP JUMP JUMPDEST PUSH0 PUSH1 0x20 DUP3 ADD SWAP1 POP PUSH2 0x1A7D PUSH0 DUP4 ADD DUP5 PUSH2 0x1A5B JUMP JUMPDEST SWAP3 SWAP2 POP POP JUMP JUMPDEST PUSH0 DUP2 MLOAD SWAP1 POP SWAP2 SWAP1 POP JUMP JUMPDEST PUSH0 DUP3 DUP3 MSTORE PUSH1 0x20 DUP3 ADD SWAP1 POP SWAP3 SWAP2 POP POP JUMP JUMPDEST DUP3 DUP2 DUP4 MCOPY PUSH0 DUP4 DUP4 ADD MSTORE POP POP POP JUMP JUMPDEST PUSH0 PUSH1 0x1F NOT PUSH1 0x1F DUP4 ADD AND SWAP1 POP SWAP2 SWAP1 POP JUMP JUMPDEST PUSH0 PUSH2 0x1AC5 DUP3 PUSH2 0x1A83 JUMP JUMPDEST PUSH2 0x1ACF DUP2 DUP6 PUSH2 0x1A8D JUMP JUMPDEST SWAP4 POP PUSH2 0x1ADF DUP2 DUP6 PUSH1 0x20 DUP7 ADD PUSH2 0x1A9D JUMP JUMPDEST PUSH2 0x1AE8 DUP2 PUSH2 0x1AAB JUMP JUMPDEST DUP5 ADD SWAP2 POP POP SWAP3 SWAP2 POP POP JUMP JUMPDEST PUSH0 PUSH1 0x20 DUP3 ADD SWAP1 POP DUP2 DUP2 SUB PUSH0 DUP4 ADD MSTORE PUSH2 0x1B0B DUP2 DUP5 PUSH2 0x1ABB JUMP JUMPDEST SWAP1 POP SWAP3 SWAP2 POP POP JUMP JUMPDEST PUSH0 DUP2 SWAP1 POP SWAP2 SWAP1 POP JUMP JUMPDEST PUSH2 0x1B25 DUP2 PUSH2 0x1B13 JUMP JUMPDEST DUP2 EQ PUSH2 0x1B2F JUMPI PUSH0 PUSH0 REVERT JUMPDEST POP JUMP JUMPDEST PUSH0 DUP2 CALLDATALOAD SWAP1 POP PUSH2 0x1B40 DUP2 PUSH2 0x1B1C JUMP JUMPDEST SWAP3 SWAP2 POP POP JUMP JUMPDEST PUSH0 PUSH1 0x20 DUP3 DUP5 SUB SLT ISZERO PUSH2 0x1B5B JUMPI PUSH2 0x1B5A PUSH2 0x19C8 JUMP JUMPDEST JUMPDEST PUSH0 PUSH2 0x1B68 DUP5 DUP3 DUP6 ADD PUSH2 0x1B32 JUMP JUMPDEST SWAP2 POP POP SWAP3 SWAP2 POP POP JUMP JUMPDEST PUSH0 PUSH20 0xFFFFFFFFFFFFFFFFFFFFFFFFFFFFFFFFFFFFFFFF DUP3 AND SWAP1 POP SWAP2 SWAP1 POP JUMP JUMPDEST PUSH0 PUSH2 0x1B9A DUP3 PUSH2 0x1B71 JUMP JUMPDEST SWAP1 POP SWAP2 SWAP1 POP JUMP JUMPDEST PUSH2 0x1BAA DUP2 PUSH2 0x1B90 JUMP JUMPDEST DUP3 MSTORE POP POP JUMP JUMPDEST PUSH0 PUSH1 0x20 DUP3 ADD SWAP1 POP PUSH2 0x1BC3 PUSH0 DUP4 ADD DUP5 PUSH2 0x1BA1 JUMP JUMPDEST SWAP3 SWAP2 POP POP JUMP JUMPDEST PUSH2 0x1BD2 DUP2 PUSH2 0x1B90 JUMP JUMPDEST DUP2 EQ PUSH2 0x1BDC JUMPI PUSH0 PUSH0 REVERT JUMPDEST POP JUMP JUMPDEST PUSH0 DUP2 CALLDATALOAD SWAP1 POP PUSH2 0x1BED DUP2 PUSH2 0x1BC9 JUMP JUMPDEST SWAP3 SWAP2 POP POP JUMP JUMPDEST PUSH0 PUSH0 PUSH1 0x40 DUP4 DUP6 SUB SLT ISZERO PUSH2 0x1C09 JUMPI PUSH2 0x1C08 PUSH2 0x19C8 JUMP JUMPDEST JUMPDEST PUSH0 PUSH2 0x1C16 DUP6 DUP3 DUP7 ADD PUSH2 0x1BDF JUMP JUMPDEST SWAP3 POP POP PUSH1 0x20 PUSH2 0x1C27 DUP6 DUP3 DUP7 ADD PUSH2 0x1B32 JUMP JUMPDEST SWAP2 POP POP SWAP3 POP SWAP3 SWAP1 POP JUMP JUMPDEST PUSH0 PUSH0 PUSH0 PUSH1 0x60 DUP5 DUP7 SUB SLT ISZERO PUSH2 0x1C48 JUMPI PUSH2 0x1C47 PUSH2 0x19C8 JUMP JUMPDEST JUMPDEST PUSH0 PUSH2 0x1C55 DUP7 DUP3 DUP8 ADD PUSH2 0x1BDF JUMP JUMPDEST SWAP4 POP POP PUSH1 0x20 PUSH2 0x1C66 DUP7 DUP3 DUP8 ADD PUSH2 0x1BDF JUMP JUMPDEST SWAP3 POP POP PUSH1 0x40 PUSH2 0x1C77 DUP7 DUP3 DUP8 ADD PUSH2 0x1B32 JUMP JUMPDEST SWAP2 POP POP SWAP3 POP SWAP3 POP SWAP3 JUMP JUMPDEST PUSH0 PUSH1 0x20 DUP3 DUP5 SUB SLT ISZERO PUSH2 0x1C96 JUMPI PUSH2 0x1C95 PUSH2 0x19C8 JUMP JUMPDEST JUMPDEST PUSH0 PUSH2 0x1CA3 DUP5 DUP3 DUP6 ADD PUSH2 0x1BDF JUMP JUMPDEST SWAP2 POP POP SWAP3 SWAP2 POP POP JUMP JUMPDEST PUSH2 0x1CB5 DUP2 PUSH2 0x1B13 JUMP JUMPDEST DUP3 MSTORE POP POP JUMP JUMPDEST PUSH0 PUSH1 0x20 DUP3 ADD SWAP1 POP PUSH2 0x1CCE PUSH0 DUP4 ADD DUP5 PUSH2 0x1CAC JUMP JUMPDEST SWAP3 SWAP2 POP POP JUMP JUMPDEST PUSH0 PUSH0 REVERT JUMPDEST PUSH0 PUSH0 REVERT JUMPDEST PUSH32 0x4E487B7100000000000000000000000000000000000000000000000000000000 PUSH0 MSTORE PUSH1 0x41 PUSH1 0x4 MSTORE PUSH1 0x24 PUSH0 REVERT JUMPDEST PUSH2 0x1D12 DUP3 PUSH2 0x1AAB JUMP JUMPDEST DUP2 ADD DUP2 DUP2 LT PUSH8 0xFFFFFFFFFFFFFFFF DUP3 GT OR ISZERO PUSH2 0x1D31 JUMPI PUSH2 0x1D30 PUSH2 0x1CDC JUMP JUMPDEST JUMPDEST DUP1 PUSH1 0x40 MSTORE POP POP POP JUMP JUMPDEST PUSH0 PUSH2 0x1D43 PUSH2 0x19BF JUMP JUMPDEST SWAP1 POP PUSH2 0x1D4F DUP3 DUP3 PUSH2 0x1D09 JUMP JUMPDEST SWAP2 SWAP1 POP JUMP JUMPDEST PUSH0 PUSH8 0xFFFFFFFFFFFFFFFF DUP3 GT ISZERO PUSH2 0x1D6E JUMPI PUSH2 0x1D6D PUSH2 0x1CDC JUMP JUMPDEST JUMPDEST PUSH2 0x1D77 DUP3 PUSH2 0x1AAB JUMP JUMPDEST SWAP1 POP PUSH1 0x20 DUP2 ADD SWAP1 POP SWAP2 SWAP1 POP JUMP JUMPDEST DUP3 DUP2 DUP4 CALLDATACOPY PUSH0 DUP4 DUP4 ADD MSTORE POP POP POP JUMP JUMPDEST PUSH0 PUSH2 0x1DA4 PUSH2 0x1D9F DUP5 PUSH2 0x1D54 JUMP JUMPDEST PUSH2 0x1D3A JUMP JUMPDEST SWAP1 POP DUP3 DUP2 MSTORE PUSH1 0x20 DUP2 ADD DUP5 DUP5 DUP5 ADD GT ISZERO PUSH2 0x1DC0 JUMPI PUSH2 0x1DBF PUSH2 0x1CD8 JUMP JUMPDEST JUMPDEST PUSH2 0x1DCB DUP5 DUP3 DUP6 PUSH2 0x1D84 JUMP JUMPDEST POP SWAP4 SWAP3 POP POP POP JUMP JUMPDEST PUSH0 DUP3 PUSH1 0x1F DUP4 ADD SLT PUSH2 0x1DE7 JUMPI PUSH2 0x1DE6 PUSH2 0x1CD4 JUMP JUMPDEST JUMPDEST DUP2 CALLDATALOAD PUSH2 0x1DF7 DUP5 DUP3 PUSH1 0x20 DUP7 ADD PUSH2 0x1D92 JUMP JUMPDEST SWAP2 POP POP SWAP3 SWAP2 POP POP JUMP JUMPDEST PUSH0 PUSH1 0x20 DUP3 DUP5 SUB SLT ISZERO PUSH2 0x1E15 JUMPI PUSH2 0x1E14 PUSH2 0x19C8 JUMP JUMPDEST JUMPDEST PUSH0 DUP3 ADD CALLDATALOAD PUSH8 0xFFFFFFFFFFFFFFFF DUP2 GT ISZERO PUSH2 0x1E32 JUMPI PUSH2 0x1E31 PUSH2 0x19CC JUMP JUMPDEST JUMPDEST PUSH2 0x1E3E DUP5 DUP3 DUP6 ADD PUSH2 0x1DD3 JUMP JUMPDEST SWAP2 POP POP SWAP3 SWAP2 POP POP JUMP JUMPDEST PUSH2 0x1E50 DUP2 PUSH2 0x1A50 JUMP JUMPDEST DUP2 EQ PUSH2 0x1E5A JUMPI PUSH0 PUSH0 REVERT JUMPDEST POP JUMP JUMPDEST PUSH0 DUP2 CALLDATALOAD SWAP1 POP PUSH2 0x1E6B DUP2 PUSH2 0x1E47 JUMP JUMPDEST SWAP3 SWAP2 POP POP JUMP JUMPDEST PUSH0 PUSH0 PUSH1 0x40 DUP4 DUP6 SUB SLT ISZERO PUSH2 0x1E87 JUMPI PUSH2 0x1E86 PUSH2 0x19C8 JUMP JUMPDEST JUMPDEST PUSH0 PUSH2 0x1E94 DUP6 DUP3 DUP7 ADD PUSH2 0x1BDF JUMP JUMPDEST SWAP3 POP POP PUSH1 0x20 PUSH2 0x1EA5 DUP6 DUP3 DUP7 ADD PUSH2 0x1E5D JUMP JUMPDEST SWAP2 POP POP SWAP3 POP SWAP3 SWAP1 POP JUMP JUMPDEST PUSH0 PUSH8 0xFFFFFFFFFFFFFFFF DUP3 GT ISZERO PUSH2 0x1EC9 JUMPI PUSH2 0x1EC8 PUSH2 0x1CDC JUMP JUMPDEST JUMPDEST PUSH2 0x1ED2 DUP3 PUSH2 0x1AAB JUMP JUMPDEST SWAP1 POP PUSH1 0x20 DUP2 ADD SWAP1 POP SWAP2 SWAP1 POP JUMP JUMPDEST PUSH0 PUSH2 0x1EF1 PUSH2 0x1EEC DUP5 PUSH2 0x1EAF JUMP JUMPDEST PUSH2 0x1D3A JUMP JUMPDEST SWAP1 POP DUP3 DUP2 MSTORE PUSH1 0x20 DUP2 ADD DUP5 DUP5 DUP5 ADD GT ISZERO PUSH2 0x1F0D JUMPI PUSH2 0x1F0C PUSH2 0x1CD8 JUMP JUMPDEST JUMPDEST PUSH2 0x1F18 DUP5 DUP3 DUP6 PUSH2 0x1D84 JUMP JUMPDEST POP SWAP4 SWAP3 POP POP POP JUMP JUMPDEST PUSH0 DUP3 PUSH1 0x1F DUP4 ADD SLT PUSH2 0x1F34 JUMPI PUSH2 0x1F33 PUSH2 0x1CD4 JUMP JUMPDEST JUMPDEST DUP2 CALLDATALOAD PUSH2 0x1F44 DUP5 DUP3 PUSH1 0x20 DUP7 ADD PUSH2 0x1EDF JUMP JUMPDEST SWAP2 POP POP SWAP3 SWAP2 POP POP JUMP JUMPDEST PUSH0 PUSH0 PUSH0 PUSH0 PUSH1 0x80 DUP6 DUP8 SUB SLT ISZERO PUSH2 0x1F65 JUMPI PUSH2 0x1F64 PUSH2 0x19C8 JUMP JUMPDEST JUMPDEST PUSH0 PUSH2 0x1F72 DUP8 DUP3 DUP9 ADD PUSH2 0x1BDF JUMP JUMPDEST SWAP5 POP POP PUSH1 0x20 PUSH2 0x1F83 DUP8 DUP3 DUP9 ADD PUSH2 0x1BDF JUMP JUMPDEST SWAP4 POP POP PUSH1 0x40 PUSH2 0x1F94 DUP8 DUP3 DUP9 ADD PUSH2 0x1B32 JUMP JUMPDEST SWAP3 POP POP PUSH1 0x60 DUP6 ADD CALLDATALOAD PUSH8 0xFFFFFFFFFFFFFFFF DUP2 GT ISZERO PUSH2 0x1FB5 JUMPI PUSH2 0x1FB4 PUSH2 0x19CC JUMP JUMPDEST JUMPDEST PUSH2 0x1FC1 DUP8 DUP3 DUP9 ADD PUSH2 0x1F20 JUMP JUMPDEST SWAP2 POP POP SWAP3 SWAP6 SWAP2 SWAP5 POP SWAP3 POP JUMP JUMPDEST PUSH0 PUSH0 PUSH1 0x40 DUP4 DUP6 SUB SLT ISZERO PUSH2 0x1FE3 JUMPI PUSH2 0x1FE2 PUSH2 0x19C8 JUMP JUMPDEST JUMPDEST PUSH0 PUSH2 0x1FF0 DUP6 DUP3 DUP7 ADD PUSH2 0x1BDF JUMP JUMPDEST SWAP3 POP POP PUSH1 0x20 PUSH2 0x2001 DUP6 DUP3 DUP7 ADD PUSH2 0x1BDF JUMP JUMPDEST SWAP2 POP POP SWAP3 POP SWAP3 SWAP1 POP JUMP JUMPDEST PUSH32 0x4E487B7100000000000000000000000000000000000000000000000000000000 PUSH0 MSTORE PUSH1 0x22 PUSH1 0x4 MSTORE PUSH1 0x24 PUSH0 REVERT JUMPDEST PUSH0 PUSH1 0x2 DUP3 DIV SWAP1 POP PUSH1 0x1 DUP3 AND DUP1 PUSH2 0x204F JUMPI PUSH1 0x7F DUP3 AND SWAP2 POP JUMPDEST PUSH1 0x20 DUP3 LT DUP2 SUB PUSH2 0x2062 JUMPI PUSH2 0x2061 PUSH2 0x200B JUMP JUMPDEST JUMPDEST POP SWAP2 SWAP1 POP JUMP JUMPDEST PUSH0 PUSH1 0x60 DUP3 ADD SWAP1 POP PUSH2 0x207B PUSH0 DUP4 ADD DUP7 PUSH2 0x1BA1 JUMP JUMPDEST PUSH2 0x2088 PUSH1 0x20 DUP4 ADD DUP6 PUSH2 0x1CAC JUMP JUMPDEST PUSH2 0x2095 PUSH1 0x40 DUP4 ADD DUP5 PUSH2 0x1BA1 JUMP JUMPDEST SWAP5 SWAP4 POP POP POP POP JUMP JUMPDEST PUSH0 DUP2 SWAP1 POP DUP2 PUSH0 MSTORE PUSH1 0x20 PUSH0 KECCAK256 SWAP1 POP SWAP2 SWAP1 POP JUMP JUMPDEST PUSH0 PUSH1 0x20 PUSH1 0x1F DUP4 ADD DIV SWAP1 POP SWAP2 SWAP1 POP JUMP JUMPDEST PUSH0 DUP3 DUP3 SHL SWAP1 POP SWAP3 SWAP2 POP POP JUMP JUMPDEST PUSH0 PUSH1 0x8 DUP4 MUL PUSH2 0x20F9 PUSH32 0xFFFFFFFFFFFFFFFFFFFFFFFFFFFFFFFFFFFFFFFFFFFFFFFFFFFFFFFFFFFFFFFF DUP3 PUSH2 0x20BE JUMP JUMPDEST PUSH2 0x2103 DUP7 DUP4 PUSH2 0x20BE JUMP JUMPDEST SWAP6 POP DUP1 NOT DUP5 AND SWAP4 POP DUP1 DUP7 AND DUP5 OR SWAP3 POP POP POP SWAP4 SWAP3 POP POP POP JUMP JUMPDEST PUSH0 DUP2 SWAP1 POP SWAP2 SWAP1 POP JUMP JUMPDEST PUSH0 PUSH2 0x213E PUSH2 0x2139 PUSH2 0x2134 DUP5 PUSH2 0x1B13 JUMP JUMPDEST PUSH2 0x211B JUMP JUMPDEST PUSH2 0x1B13 JUMP JUMPDEST SWAP1 POP SWAP2 SWAP1 POP JUMP JUMPDEST PUSH0 DUP2 SWAP1 POP SWAP2 SWAP1 POP JUMP JUMPDEST PUSH2 0x2157 DUP4 PUSH2 0x2124 JUMP JUMPDEST PUSH2 0x216B PUSH2 0x2163 DUP3 PUSH2 0x2145 JUMP JUMPDEST DUP5 DUP5 SLOAD PUSH2 0x20CA JUMP JUMPDEST DUP3 SSTORE POP POP POP POP JUMP JUMPDEST PUSH0 PUSH0 SWAP1 POP SWAP1 JUMP JUMPDEST PUSH2 0x2182 PUSH2 0x2173 JUMP JUMPDEST PUSH2 0x218D DUP2 DUP5 DUP5 PUSH2 0x214E JUMP JUMPDEST POP POP POP JUMP JUMPDEST JUMPDEST DUP2 DUP2 LT ISZERO PUSH2 0x21B0 JUMPI PUSH2 0x21A5 PUSH0 DUP3 PUSH2 0x217A JUMP JUMPDEST PUSH1 0x1 DUP2 ADD SWAP1 POP PUSH2 0x2193 JUMP JUMPDEST POP POP JUMP JUMPDEST PUSH1 0x1F DUP3 GT ISZERO PUSH2 0x21F5 JUMPI PUSH2 0x21C6 DUP2 PUSH2 0x209D JUMP JUMPDEST PUSH2 0x21CF DUP5 PUSH2 0x20AF JUMP JUMPDEST DUP2 ADD PUSH1 0x20 DUP6 LT ISZERO PUSH2 0x21DE JUMPI DUP2 SWAP1 POP JUMPDEST PUSH2 0x21F2 PUSH2 0x21EA DUP6 PUSH2 0x20AF JUMP JUMPDEST DUP4 ADD DUP3 PUSH2 0x2192 JUMP JUMPDEST POP POP JUMPDEST POP POP POP JUMP JUMPDEST PUSH0 DUP3 DUP3 SHR SWAP1 POP SWAP3 SWAP2 POP POP JUMP JUMPDEST PUSH0 PUSH2 0x2215 PUSH0 NOT DUP5 PUSH1 0x8 MUL PUSH2 0x21FA JUMP JUMPDEST NOT DUP1 DUP4 AND SWAP2 POP POP SWAP3 SWAP2 POP POP JUMP JUMPDEST PUSH0 PUSH2 0x222D DUP4 DUP4 PUSH2 0x2206 JUMP JUMPDEST SWAP2 POP DUP3 PUSH1 0x2 MUL DUP3 OR SWAP1 POP SWAP3 SWAP2 POP POP JUMP JUMPDEST PUSH2 0x2246 DUP3 PUSH2 0x1A83 JUMP JUMPDEST PUSH8 0xFFFFFFFFFFFFFFFF DUP2 GT ISZERO PUSH2 0x225F JUMPI PUSH2 0x225E PUSH2 0x1CDC JUMP JUMPDEST JUMPDEST PUSH2 0x2269 DUP3 SLOAD PUSH2 0x2038 JUMP JUMPDEST PUSH2 0x2274 DUP3 DUP3 DUP6 PUSH2 0x21B4 JUMP JUMPDEST PUSH0 PUSH1 0x20 SWAP1 POP PUSH1 0x1F DUP4 GT PUSH1 0x1 DUP2 EQ PUSH2 0x22A5 JUMPI PUSH0 DUP5 ISZERO PUSH2 0x2293 JUMPI DUP3 DUP8 ADD MLOAD SWAP1 POP JUMPDEST PUSH2 0x229D DUP6 DUP3 PUSH2 0x2222 JUMP JUMPDEST DUP7 SSTORE POP PUSH2 0x2304 JUMP JUMPDEST PUSH1 0x1F NOT DUP5 AND PUSH2 0x22B3 DUP7 PUSH2 0x209D JUMP JUMPDEST PUSH0 JUMPDEST DUP3 DUP2 LT ISZERO PUSH2 0x22DA JUMPI DUP5 DUP10 ADD MLOAD DUP3 SSTORE PUSH1 0x1 DUP3 ADD SWAP2 POP PUSH1 0x20 DUP6 ADD SWAP5 POP PUSH1 0x20 DUP2 ADD SWAP1 POP PUSH2 0x22B5 JUMP JUMPDEST DUP7 DUP4 LT ISZERO PUSH2 0x22F7 JUMPI DUP5 DUP10 ADD MLOAD PUSH2 0x22F3 PUSH1 0x1F DUP10 AND DUP3 PUSH2 0x2206 JUMP JUMPDEST DUP4 SSTORE POP JUMPDEST PUSH1 0x1 PUSH1 0x2 DUP9 MUL ADD DUP9 SSTORE POP POP POP JUMPDEST POP POP POP POP POP POP JUMP JUMPDEST PUSH0 DUP2 SWAP1 POP SWAP3 SWAP2 POP POP JUMP JUMPDEST PUSH0 PUSH2 0x2320 DUP3 PUSH2 0x1A83 JUMP JUMPDEST PUSH2 0x232A DUP2 DUP6 PUSH2 0x230C JUMP JUMPDEST SWAP4 POP PUSH2 0x233A DUP2 DUP6 PUSH1 0x20 DUP7 ADD PUSH2 0x1A9D JUMP JUMPDEST DUP1 DUP5 ADD SWAP2 POP POP SWAP3 SWAP2 POP POP JUMP JUMPDEST PUSH0 PUSH2 0x2351 DUP3 DUP6 PUSH2 0x2316 JUMP JUMPDEST SWAP2 POP PUSH2 0x235D DUP3 DUP5 PUSH2 0x2316 JUMP JUMPDEST SWAP2 POP DUP2 SWAP1 POP SWAP4 SWAP3 POP POP POP JUMP JUMPDEST PUSH0 DUP2 MLOAD SWAP1 POP SWAP2 SWAP1 POP JUMP JUMPDEST PUSH0 DUP3 DUP3 MSTORE PUSH1 0x20 DUP3 ADD SWAP1 POP SWAP3 SWAP2 POP POP JUMP JUMPDEST PUSH0 PUSH2 0x238D DUP3 PUSH2 0x2369 JUMP JUMPDEST PUSH2 0x2397 DUP2 DUP6 PUSH2 0x2373 JUMP JUMPDEST SWAP4 POP PUSH2 0x23A7 DUP2 DUP6 PUSH1 0x20 DUP7 ADD PUSH2 0x1A9D JUMP JUMPDEST PUSH2 0x23B0 DUP2 PUSH2 0x1AAB JUMP JUMPDEST DUP5 ADD SWAP2 POP POP SWAP3 SWAP2 POP POP JUMP JUMPDEST PUSH0 PUSH1 0x80 DUP3 ADD SWAP1 POP PUSH2 0x23CE PUSH0 DUP4 ADD DUP8 PUSH2 0x1BA1 JUMP JUMPDEST PUSH2 0x23DB PUSH1 0x20 DUP4 ADD DUP7 PUSH2 0x1BA1 JUMP JUMPDEST PUSH2 0x23E8 PUSH1 0x40 DUP4 ADD DUP6 PUSH2 0x1CAC JUMP JUMPDEST DUP2 DUP2 SUB PUSH1 0x60 DUP4 ADD MSTORE PUSH2 0x23FA DUP2 DUP5 PUSH2 0x2383 JUMP JUMPDEST SWAP1 POP SWAP6 SWAP5 POP POP POP POP POP JUMP JUMPDEST PUSH0 DUP2 MLOAD SWAP1 POP PUSH2 0x2413 DUP2 PUSH2 0x19FB JUMP JUMPDEST SWAP3 SWAP2 POP POP JUMP JUMPDEST PUSH0 PUSH1 0x20 DUP3 DUP5 SUB SLT ISZERO PUSH2 0x242E JUMPI PUSH2 0x242D PUSH2 0x19C8 JUMP JUMPDEST JUMPDEST PUSH0 PUSH2 0x243B DUP5 DUP3 DUP6 ADD PUSH2 0x2405 JUMP JUMPDEST SWAP2 POP POP SWAP3 SWAP2 POP POP JUMP JUMPDEST PUSH32 0x4E487B7100000000000000000000000000000000000000000000000000000000 PUSH0 MSTORE PUSH1 0x12 PUSH1 0x4 MSTORE PUSH1 0x24 PUSH0 REVERT JUMPDEST PUSH0 PUSH1 0x40 DUP3 ADD SWAP1 POP PUSH2 0x2484 PUSH0 DUP4 ADD DUP6 PUSH2 0x1BA1 JUMP JUMPDEST PUSH2 0x2491 PUSH1 0x20 DUP4 ADD DUP5 PUSH2 0x1CAC JUMP JUMPDEST SWAP4 SWAP3 POP POP POP JUMP INVALID LOG2 PUSH5 0x6970667358 0x22 SLT KECCAK256 CALLCODE BYTE GAS DUP6 CREATE MULMOD 0x2A SSTORE 0xC4 PUSH6 0x68A763703DFB CALLVALUE SWAP1 RETURNDATASIZE PUSH5 0x1457479A SAR 0x2F DUP10 0xF6 0x2C CALLER 0xFB PUSH5 0x736F6C6343 STOP ADDMOD SHR STOP CALLER "
		},
		"gasEstimates": {
			"creation": {
				"codeDepositCost": "1884400",
				"executionCost": "infinite",
				"totalCost": "infinite"
			},
			"external": {
				"approve(address,uint256)": "infinite",
				"balanceOf(address)": "infinite",
				"getApproved(uint256)": "infinite",
				"getTokenUri()": "infinite",
				"isApprovedForAll(address,address)": "infinite",
				"mintNFT(address)": "infinite",
				"name()": "infinite",
				"owner()": "2582",
				"ownerOf(uint256)": "infinite",
				"renounceOwnership()": "infinite",
				"safeTransferFrom(address,address,uint256)": "infinite",
				"safeTransferFrom(address,address,uint256,bytes)": "infinite",
				"setApprovalForAll(address,bool)": "infinite",
				"setBaseURI(string)": "infinite",
				"supportsInterface(bytes4)": "787",
				"symbol()": "infinite",
				"tokenURI(uint256)": "infinite",
				"transferFrom(address,address,uint256)": "infinite",
				"transferOwnership(address)": "infinite"
			},
			"internal": {
				"_baseURI()": "infinite"
			}
		},
		"methodIdentifiers": {
			"approve(address,uint256)": "095ea7b3",
			"balanceOf(address)": "70a08231",
			"getApproved(uint256)": "081812fc",
			"getTokenUri()": "c395c8af",
			"isApprovedForAll(address,address)": "e985e9c5",
			"mintNFT(address)": "54ba0f27",
			"name()": "06fdde03",
			"owner()": "8da5cb5b",
			"ownerOf(uint256)": "6352211e",
			"renounceOwnership()": "715018a6",
			"safeTransferFrom(address,address,uint256)": "42842e0e",
			"safeTransferFrom(address,address,uint256,bytes)": "b88d4fde",
			"setApprovalForAll(address,bool)": "a22cb465",
			"setBaseURI(string)": "55f804b3",
			"supportsInterface(bytes4)": "01ffc9a7",
			"symbol()": "95d89b41",
			"tokenURI(uint256)": "c87b56dd",
			"transferFrom(address,address,uint256)": "23b872dd",
			"transferOwnership(address)": "f2fde38b"
		}
	},
	"abi": [
		{
			"inputs": [
				{
					"internalType": "string",
					"name": "name",
					"type": "string"
				},
				{
					"internalType": "string",
					"name": "symbol",
					"type": "string"
				},
				{
					"internalType": "string",
					"name": "baseURI",
					"type": "string"
				}
			],
			"stateMutability": "nonpayable",
			"type": "constructor"
		},
		{
			"inputs": [
				{
					"internalType": "address",
					"name": "sender",
					"type": "address"
				},
				{
					"internalType": "uint256",
					"name": "tokenId",
					"type": "uint256"
				},
				{
					"internalType": "address",
					"name": "owner",
					"type": "address"
				}
			],
			"name": "ERC721IncorrectOwner",
			"type": "error"
		},
		{
			"inputs": [
				{
					"internalType": "address",
					"name": "operator",
					"type": "address"
				},
				{
					"internalType": "uint256",
					"name": "tokenId",
					"type": "uint256"
				}
			],
			"name": "ERC721InsufficientApproval",
			"type": "error"
		},
		{
			"inputs": [
				{
					"internalType": "address",
					"name": "approver",
					"type": "address"
				}
			],
			"name": "ERC721InvalidApprover",
			"type": "error"
		},
		{
			"inputs": [
				{
					"internalType": "address",
					"name": "operator",
					"type": "address"
				}
			],
			"name": "ERC721InvalidOperator",
			"type": "error"
		},
		{
			"inputs": [
				{
					"internalType": "address",
					"name": "owner",
					"type": "address"
				}
			],
			"name": "ERC721InvalidOwner",
			"type": "error"
		},
		{
			"inputs": [
				{
					"internalType": "address",
					"name": "receiver",
					"type": "address"
				}
			],
			"name": "ERC721InvalidReceiver",
			"type": "error"
		},
		{
			"inputs": [
				{
					"internalType": "address",
					"name": "sender",
					"type": "address"
				}
			],
			"name": "ERC721InvalidSender",
			"type": "error"
		},
		{
			"inputs": [
				{
					"internalType": "uint256",
					"name": "tokenId",
					"type": "uint256"
				}
			],
			"name": "ERC721NonexistentToken",
			"type": "error"
		},
		{
			"inputs": [
				{
					"internalType": "address",
					"name": "owner",
					"type": "address"
				}
			],
			"name": "OwnableInvalidOwner",
			"type": "error"
		},
		{
			"inputs": [
				{
					"internalType": "address",
					"name": "account",
					"type": "address"
				}
			],
			"name": "OwnableUnauthorizedAccount",
			"type": "error"
		},
		{
			"anonymous": false,
			"inputs": [
				{
					"indexed": true,
					"internalType": "address",
					"name": "owner",
					"type": "address"
				},
				{
					"indexed": true,
					"internalType": "address",
					"name": "approved",
					"type": "address"
				},
				{
					"indexed": true,
					"internalType": "uint256",
					"name": "tokenId",
					"type": "uint256"
				}
			],
			"name": "Approval",
			"type": "event"
		},
		{
			"anonymous": false,
			"inputs": [
				{
					"indexed": true,
					"internalType": "address",
					"name": "owner",
					"type": "address"
				},
				{
					"indexed": true,
					"internalType": "address",
					"name": "operator",
					"type": "address"
				},
				{
					"indexed": false,
					"internalType": "bool",
					"name": "approved",
					"type": "bool"
				}
			],
			"name": "ApprovalForAll",
			"type": "event"
		},
		{
			"anonymous": false,
			"inputs": [
				{
					"indexed": true,
					"internalType": "address",
					"name": "previousOwner",
					"type": "address"
				},
				{
					"indexed": true,
					"internalType": "address",
					"name": "newOwner",
					"type": "address"
				}
			],
			"name": "OwnershipTransferred",
			"type": "event"
		},
		{
			"anonymous": false,
			"inputs": [
				{
					"indexed": true,
					"internalType": "address",
					"name": "from",
					"type": "address"
				},
				{
					"indexed": true,
					"internalType": "address",
					"name": "to",
					"type": "address"
				},
				{
					"indexed": true,
					"internalType": "uint256",
					"name": "tokenId",
					"type": "uint256"
				}
			],
			"name": "Transfer",
			"type": "event"
		},
		{
			"inputs": [
				{
					"internalType": "address",
					"name": "to",
					"type": "address"
				},
				{
					"internalType": "uint256",
					"name": "tokenId",
					"type": "uint256"
				}
			],
			"name": "approve",
			"outputs": [],
			"stateMutability": "nonpayable",
			"type": "function"
		},
		{
			"inputs": [
				{
					"internalType": "address",
					"name": "owner",
					"type": "address"
				}
			],
			"name": "balanceOf",
			"outputs": [
				{
					"internalType": "uint256",
					"name": "",
					"type": "uint256"
				}
			],
			"stateMutability": "view",
			"type": "function"
		},
		{
			"inputs": [
				{
					"internalType": "uint256",
					"name": "tokenId",
					"type": "uint256"
				}
			],
			"name": "getApproved",
			"outputs": [
				{
					"internalType": "address",
					"name": "",
					"type": "address"
				}
			],
			"stateMutability": "view",
			"type": "function"
		},
		{
			"inputs": [],
			"name": "getTokenUri",
			"outputs": [
				{
					"internalType": "string",
					"name": "",
					"type": "string"
				}
			],
			"stateMutability": "view",
			"type": "function"
		},
		{
			"inputs": [
				{
					"internalType": "address",
					"name": "owner",
					"type": "address"
				},
				{
					"internalType": "address",
					"name": "operator",
					"type": "address"
				}
			],
			"name": "isApprovedForAll",
			"outputs": [
				{
					"internalType": "bool",
					"name": "",
					"type": "bool"
				}
			],
			"stateMutability": "view",
			"type": "function"
		},
		{
			"inputs": [
				{
					"internalType": "address",
					"name": "to",
					"type": "address"
				}
			],
			"name": "mintNFT",
			"outputs": [
				{
					"internalType": "uint256",
					"name": "",
					"type": "uint256"
				}
			],
			"stateMutability": "nonpayable",
			"type": "function"
		},
		{
			"inputs": [],
			"name": "name",
			"outputs": [
				{
					"internalType": "string",
					"name": "",
					"type": "string"
				}
			],
			"stateMutability": "view",
			"type": "function"
		},
		{
			"inputs": [],
			"name": "owner",
			"outputs": [
				{
					"internalType": "address",
					"name": "",
					"type": "address"
				}
			],
			"stateMutability": "view",
			"type": "function"
		},
		{
			"inputs": [
				{
					"internalType": "uint256",
					"name": "tokenId",
					"type": "uint256"
				}
			],
			"name": "ownerOf",
			"outputs": [
				{
					"internalType": "address",
					"name": "",
					"type": "address"
				}
			],
			"stateMutability": "view",
			"type": "function"
		},
		{
			"inputs": [],
			"name": "renounceOwnership",
			"outputs": [],
			"stateMutability": "nonpayable",
			"type": "function"
		},
		{
			"inputs": [
				{
					"internalType": "address",
					"name": "from",
					"type": "address"
				},
				{
					"internalType": "address",
					"name": "to",
					"type": "address"
				},
				{
					"internalType": "uint256",
					"name": "tokenId",
					"type": "uint256"
				}
			],
			"name": "safeTransferFrom",
			"outputs": [],
			"stateMutability": "nonpayable",
			"type": "function"
		},
		{
			"inputs": [
				{
					"internalType": "address",
					"name": "from",
					"type": "address"
				},
				{
					"internalType": "address",
					"name": "to",
					"type": "address"
				},
				{
					"internalType": "uint256",
					"name": "tokenId",
					"type": "uint256"
				},
				{
					"internalType": "bytes",
					"name": "data",
					"type": "bytes"
				}
			],
			"name": "safeTransferFrom",
			"outputs": [],
			"stateMutability": "nonpayable",
			"type": "function"
		},
		{
			"inputs": [
				{
					"internalType": "address",
					"name": "operator",
					"type": "address"
				},
				{
					"internalType": "bool",
					"name": "approved",
					"type": "bool"
				}
			],
			"name": "setApprovalForAll",
			"outputs": [],
			"stateMutability": "nonpayable",
			"type": "function"
		},
		{
			"inputs": [
				{
					"internalType": "string",
					"name": "baseURI",
					"type": "string"
				}
			],
			"name": "setBaseURI",
			"outputs": [],
			"stateMutability": "nonpayable",
			"type": "function"
		},
		{
			"inputs": [
				{
					"internalType": "bytes4",
					"name": "interfaceId",
					"type": "bytes4"
				}
			],
			"name": "supportsInterface",
			"outputs": [
				{
					"internalType": "bool",
					"name": "",
					"type": "bool"
				}
			],
			"stateMutability": "view",
			"type": "function"
		},
		{
			"inputs": [],
			"name": "symbol",
			"outputs": [
				{
					"internalType": "string",
					"name": "",
					"type": "string"
				}
			],
			"stateMutability": "view",
			"type": "function"
		},
		{
			"inputs": [
				{
					"internalType": "uint256",
					"name": "tokenId",
					"type": "uint256"
				}
			],
			"name": "tokenURI",
			"outputs": [
				{
					"internalType": "string",
					"name": "",
					"type": "string"
				}
			],
			"stateMutability": "view",
			"type": "function"
		},
		{
			"inputs": [
				{
					"internalType": "address",
					"name": "from",
					"type": "address"
				},
				{
					"internalType": "address",
					"name": "to",
					"type": "address"
				},
				{
					"internalType": "uint256",
					"name": "tokenId",
					"type": "uint256"
				}
			],
			"name": "transferFrom",
			"outputs": [],
			"stateMutability": "nonpayable",
			"type": "function"
		},
		{
			"inputs": [
				{
					"internalType": "address",
					"name": "newOwner",
					"type": "address"
				}
			],
			"name": "transferOwnership",
			"outputs": [],
			"stateMutability": "nonpayable",
			"type": "function"
		}
	]
}